:020000040800F2
:10000000300A002049010008792D00082B21000842
:10001000752D00084D0A0008A531000800000000F9
:100020000000000000000000000000003D2F00085C
:10003000510A0008000000007D2D00083F2F000835
:100040006301000863010008630100086301000800
:1000500063010008630100086301000863010008F0
:1000600063010008630100086301000863010008E0
:1000700063010008630100086301000863010008D0
:1000800063010008630100086301000863010008C0
:1000900063010008630100086301000863010008B0
:1000A00063010008630100086301000863010008A0
:1000B0006301000863010008630100086301000890
:1000C0006301000863010008630100086301000880
:1000D0006301000863010008630100086301000870
:1000E0006301000863010008630100086301000860
:1000F0006301000863010008630100086301000850
:10010000630100086301000863010008630100083F
:10011000630100086301000863010008630100082F
:10012000630100086301000863010008630100081F
:10013000DFF810D000F00AFC00480047615C0008BE
:10014000AFF30080300A0020064880470648004789
:10015000FEE7FEE7FEE7FEE7FEE7FEE7FEE7FEE777
:10016000FEE7FEE7AD2F000831010008202A04DB7E
:10017000203A21FA02F00021704721FA02F3D04020
:10018000C2F12002914008431946704740EA01033A
:100190009B0703D009E008C9121F08C0042AFAD23D
:1001A00003E011F8013B00F8013B521EF9D2704701
:1001B000D2B201E000F8012B491EFBD270470022A9
:1001C000F6E710B513460A4604461946FFF7F0FF56
:1001D000204610BD0022CBB20178994200D10246E0
:1001E000401C0029F8D11046704780EA010210B582
:1001F00002F00043400022D04A001FD0010E01EB64
:100200001261C0F35600C2F3560240F4000042F4FB
:100210000002A0FB022000047F39140400D0401C1F
:1002200050EA124001D44000491EC2B20C0604EB51
:10023000D010401C4008802A02D003E0002010BDEE
:1002400020F00100002900DA0020184310BD30B46E
:1002500080EA010202F0004530F0004221F0004047
:1002600013D090B1C30DD40DC2F31601C0F3160024
:10027000E41A41F4000140F400027D34914201D3BC
:10028000641C00E04900002C02DA30BC00207047FA
:100290004FF400000023914201D3891A0343400820
:1002A0004FEA4101F7D151B1914202D14FF00041E3
:1002B00005E002D24FF0010101E06FF0010103EB14
:1002C000C450284430BC00F041B92DE9FE4F81EA0A
:1002D000030404F0004421F0004100944FF0000BAF
:1002E00023F0004350EA01045ED052EA03045BD0DD
:1002F000C3F30A54C1F30A552C44A4F2F334019415
:10030000A0FB0254C1F3130141F48011C3F31303A2
:1003100043F4801301FB024400FB034E840A970A56
:1003200044EA815447EA8357A4FB076802958D0A83
:1003300005FB07854FEA932C04FB0C542705029D0F
:100340004FEA065847EA1637B5EB08056EEB070C7F
:10035000870E920E47EA811742EA8312A7FB020139
:10036000B6EB0B0164EB00042B0D43EA0C335E1873
:1003700044EB1C50DA465146E7FB0201C5F3130477
:100380004FEA0B3343EA14534FEA0432019C43EA29
:100390000603A4F10C040294009CCDE900B400F023
:1003A0007FF903B0BDE8F08F00200146F9E72DE9A1
:1003B000F04D81EA030404F0004B21F0004514469F
:1003C0004FF0000A23F0004150EA050220D054EA21
:1003D00001021DD0C5F30A570246C5F31303C1F34A
:1003E0001300C1F30A5640F4801543F48013A7EBC1
:1003F0000608101BD64608F2FD3873EB050002D341
:1004000008F1010801E092185B41B8F1000F03DA2E
:1004100000200146BDE8F08D00204FF48011064613
:1004200084460EE0171B73EB050705D3121B63EB25
:10043000050306434CEA010C49084FEA30009218C4
:100440005B4150EA0107EDD152EA030012D082EA83
:10045000040083EA0501084305D0101BAB4106D216
:100460000122002306E000224FF0004302E06FF07B
:10047000010253101AEB06004CEB085110EB0A0076
:1004800041EB0B01BDE8F04D00F0FBB896230022D4
:10049000114600F064B820F00040C10DC0F3160012
:1004A00040F400007F2901DA00207047962903DC20
:1004B000C1F19601C840704796398840704730B501
:1004C0000B46014600202022012409E021FA02F512
:1004D0009D4205D303FA02F5491B04FA02F52844AC
:1004E000151EA2F10102F1DC30BD2DE9F05F0546D9
:1004F000002092469B4688460646814640241BE0E3
:100500002846414647462246FFF730FE53465A46A4
:10051000C01A914110D311461846224600F028FA1D
:100520002D1A67EB01084F4622460120002100F0FA
:100530001FFA17EB00094E41201EA4F10104DFDC75
:10054000484631462A464346BDE8F09F0029A8BFE9
:100550007047401C490008BF20F00100704710B4EC
:10056000B0FA80FC00FA0CF050EA010404BF10BCA1
:10057000704749B1CCF1200421FA04F411FA0CF1CE
:1005800018BF012121430843A3EB0C01CB1D4FEA07
:1005900000614FEA102042BF002010BC704700EB02
:1005A000C35010440029A4BF10BC7047401C490030
:1005B00008BF20F0010010BC7047F0B480EA0102CF
:1005C000D40F4200B2EB410F02D202460846114658
:1005D0004A0042D0C30DDDB2C1F3C752AD1A202D7F
:1005E00035DAC1F3160141F4000204B15242C5F1FB
:1005F000200602FA06F12A411044B3EBD05F23D063
:10060000C4B1012DA0EBC35009DCF0BC4FF0004297
:1006100002EAC352DBB200F50000FFF7A0BF4000C2
:1006200000F1807000EBC350A0F1807040EAD170FF
:10063000490009E0490841EAC071A0EBC35000F548
:100640000000400800EBC350F0BCFFF77FBF6142E1
:10065000012202EB4101001BF6E7F0BC704781F07C
:100660000041AAE780F00040A7E7420005D0C0F3B0
:10067000C7525242914201DC0020704700EBC1504A
:10068000704710B5141E73F1000408DA401C41F1E4
:10069000000192185B411A4301D120F0010010BD06
:1006A0002DE9F04D92469B4611B1B1FA81F202E07C
:1006B000B0FA80F22032904600F05AF904460F4614
:1006C00040EA0A0041EA0B0153465A46084313D058
:1006D000114653EA010019D0C8F140025046FFF715
:1006E00045FD05460E4650465946424600F040F943
:1006F000084305D0012004E020463946BDE8F08DCE
:100700000020054346EAE0762C4337430A98630508
:10071000E40AA0EB08000022FD0A44EA47540A302C
:1007200002D500200146E9E7010510196941DDE91C
:10073000084500196941BDE8F04DA2E72DE9FE4FDB
:10074000804681EA0300C00F0C46009021F0004172
:1007500023F00045B8EB0200A94105D240462146EE
:1007600090461C460B46024623F00040104347D0FB
:10077000270DC7F30A00C3F30A510290401A0190F3
:1007800040286BDAC3F3130040F4801B00989246B4
:1007900020B10023D2EB030A63EB0B0B01985946FF
:1007A000C0F14002504600F0E3F806460D465046C0
:1007B0005946019A00F0EBF810EB08006141002463
:1007C00087EA115284EAE7731A4340D0009A62B371
:1007D000019A012A4FEA075215DC001B61EB020166
:1007E0004FF0004202EA0752CDE90042001C41F5F9
:1007F000801132462B46FFF753FF03B0BDE8F08F60
:1008000040462146F9E7001B61EB0201001C41F55F
:10081000801300185B412018A2F5001747EB030175
:1008200040EAD570B6196D4111E06D084FEA360601
:1008300045EAC0754FEA0752001B61EB0201001C3C
:1008400041F5801149084FEA300000195141324604
:100850002B4603B0BDE8F04FFFF713BF009801220D
:1008600040000023D0EB020263EBE07300982146C6
:100870004FEAE074B8EB000061EB0401E9E783F0B4
:1008800000435BE781F0004158E7C10F80EAE07068
:100890000844CA0796230021FFF761BEC1F30A523C
:1008A000C1F3130140F2FF3341F480119A4202DA9E
:1008B00000200146704740F233439A42A2F233428D
:1008C00002DC5242FFF752BC00F052B810B500F003
:1008D000004420F00040C20DC0F3160040F40000B8
:1008E0007F2A07DA7D2A00DA7D22763A00FA02F1C1
:1008F000002008E0962A09DCA2F1760100FA01F155
:10090000C2F19602D040FFF721FE01E0963A9040F6
:10091000002C00D0404210BD30B5041E71F100041F
:1009200004DB4FF00044404264EB0101141E73F1FC
:10093000000405DB1C464FF00043524263EB040306
:10094000994208BF904230BD00207047064C074DC9
:1009500006E0E06840F0010394E80700984710348F
:10096000AC42F6D3FFF7E8FBD4680008F46800084F
:10097000202A04DB203A00FA02F10020704791405F
:10098000C2F1200320FA03F3194390407047202A54
:1009900006DBCB17203A41FA02F043EAE07306E0A7
:1009A00041FA02F3D040C2F12002914008431946B7
:1009B000704770B58C1810F8015B15F0070301D172
:1009C00010F8013B2A1106D110F8012B03E010F8B2
:1009D000016B01F8016B5B1EF9D12B0705D40023D5
:1009E000521E0DD401F8013BFAE710F8013BCB1A77
:1009F000921C03E013F8015B01F8015B521EF9D56C
:100A0000A142D8D3002070BD10B501F0F1FB01F078
:100A1000CFFE10BD10B50B490B4801F09DFE0948F3
:100A2000008800280CDD07480188074801F03AFFDC
:100A30004FF400710448FFF7C2FB00200149088011
:100A400010BD00001E0300203004002000BFFEE7A0
:100A5000704772B600BFFEE770B5044600F068FA52
:100A600006462546681C10B104480078054400BFBE
:100A700000F05EFA801BA842FAD370BD0800002087
:100A80002DE9F04102460B4600208CE0012787400B
:100A900007EA030100296FD0464F4FEA900C57F840
:100AA0002C4087074FEA177C0F2707FA0CF73C40CA
:100AB000414FBA4201D1002719E0404FBA4201D15B
:100AC000012714E03E4FBA4201D102270FE03D4F0B
:100AD000BA4201D103270AE03B4FBA4201D10427B1
:100AE00005E03A4FBA4201D1052700E006274FEA58
:100AF000807C4FEA1C7C07FA0CF7A74232D1344FB6
:100B00003F688F43DFF8C8C0CCF800700CF10407D1
:100B10003F688F430CF1040CCCF800702C4F0C375D
:100B20003F688F43DFF8A8C00CF10C0CCCF80070C4
:100B3000ACF104073F688F43ACF1040CCCF80070B3
:100B400087074FEA177C0F2707FA0CF4194F4FEA73
:100B5000900C57F82C70A743DFF858C04FEA900864
:100B60004CF82870FF2901D8174600E0171D3D46B4
:100B7000FF2902D8870003E014E0A0F10807BF00B6
:100B80003E462F684FF00F0C0CFA06FC27EA0C07C4
:100B90004FF0040C0CFA06FC47EA0C072F60D768EC
:100BA0008F43D760401C23FA00F7002F7FF46EAF0D
:100BB000BDE8F0810800014000080140000C014040
:100BC000001001400014014000180140001C0140C9
:100BD000000401402DE9F847024600239C467BE1D2
:100BE0004FF0010808FA03F4D1F8008008EA040085
:100BF000A0427DD1DFF8F4A2D1F80480A8EB0A0965
:100C0000D0453AD014DCB8F1030F50D009DCB8F16C
:100C1000000F31D0B8F1010F1CD0B8F1020F49D14B
:100C200020E0B8F1110F18D0B8F1120F42D11EE038
:100C3000B9F5881F25D006DCB9F5803F20D0B9F57D
:100C4000801F37D11AE0B9F5001F18D0B9F5041F7D
:100C500030D117E0D1F80CC02DE0D1F80C8008F1AC
:100C6000040C28E0D1F80C8008F1080C23E0D1F83E
:100C70000C8008F10C0C1EE000BF00BF00BF00BFDD
:100C800000BF00BFD1F80880B8F1000F02D14FF0CB
:100C9000040C0BE0D1F80880B8F1010F03D14FF03C
:100CA000080C146102E04FF0080C546103E04FF0AF
:100CB000000C00E000BF00BFFF2801D8904601E013
:100CC00002F104084646FF2802D84FEA830803E0F1
:100CD000A3F108084FEA88084746D6F800804FF08D
:100CE0000F0909FA07F928EA09080CFA07F900E0E0
:100CF0007AE048EA0908C6F80080D1F8048008F0D4
:100D00008058B8F1805F6FD100BFDFF8E481D8F878
:100D1000188048F00108DFF8D891C9F81880C84653
:100D2000D8F8188008F00108CDF8008000BF00BF97
:100D30004FEAB9384FEA930958F829504FEA8378B7
:100D40004FEA18794FF00F0808FA09F825EA080564
:100D5000DFF8A081424502D14FF0000824E0DFF81F
:100D60009881424502D14FF001081DE0DFF88C81E7
:100D7000424502D14FF0020816E0DFF88481424577
:100D800002D14FF003080FE0DFF87881424502D12D
:100D90004FF0040808E0DFF87081424502D14FF0BF
:100DA000050801E04FF006084FEA83794FEA197908
:100DB00008FA09F848EA0505DFF850814FEA930977
:100DC00048F82950D1F8048008F48018B8F5801F3D
:100DD0000BD1DFF83C81D8F8008048EA0008DFF842
:100DE0003091C9F800800AE075E0DFF82481D8F876
:100DF000008028EA0008DFF81891C9F80080D1F8CF
:100E0000048008F40018B8F5001F0ED1DFF8008147
:100E100008F10408D8F8008048EA0008DFF8F090EC
:100E200009F10409C9F800800DE0DFF8E48008F159
:100E30000408D8F8008028EA0008DFF8D49009F107
:100E40000409C9F80080D1F8048008F40038B8F526
:100E5000003F0ED1DFF8B880A8F10408D8F8008070
:100E600048EA0008DFF8A890A9F10409C9F8008051
:100E70000DE0DFF89C80A8F10408D8F8008028EA8B
:100E80000008DFF88C90A9F10409C9F80080D1F8B6
:100E9000048008F48038B8F5803F0ED1DFF8708008
:100EA000A8F10808D8F8008048EA0008DFF8609048
:100EB000A9F10809C9F800800DE0DFF85480A8F115
:100EC0000808D8F8008028EA0008DFF84490A9F163
:100ED0000809C9F800805B1CD1F8008028FA03F8E3
:100EE000B8F1000F7FF47CAEBDE8F8870000111068
:100EF0000010024000080140000C014000100140B9
:100F00000014014000180140001C0140080001408D
:100F100008040140024693680B400BB1012000E039
:100F2000002070470AB1016101E00B0403617047C2
:100F30000148006870470000000000200348006876
:100F400003490978084401490860704700000020FF
:100F50000800002010B50848006840F0100006495D
:100F60000860032000F098F80F2000F007F800F068
:100F70002BF8002010BD00000020024070B5044690
:100F80000E4800784FF47A71B1FBF0F00C49096813
:100F9000B1FBF0F5284600F0CFFF08B1012070BD8D
:100FA000102C07D200222146501E00F037F80548C9
:100FB000046001E00120F2E70020F0E708000020D3
:100FC0000C0000200400002008B500BF1148806913
:100FD00040F001000F4988610846806900F0010077
:100FE000009000BF00BF00BF0846C06940F08050BD
:100FF000C8610846C06900F08050009000BF00BF83
:1010000000BF0549486820F0E06040F0007048608B
:1010100000BF08BD00100240000001402DE9F05F54
:1010200080460D461646002702F0E8F90746394685
:101030002A46334601F00700C0F1070ABAF1040F4F
:1010400002D94FF0040A01E0C0F1070AD14600F1CD
:10105000040ABAF1070F02D24FF0000A01E0A0F132
:10106000030AD4464FF0010A0AFA09FAAAF1010A62
:101070000AEA020A0AFA0CFA4FF0010B0BFA0CFB0F
:10108000ABF1010B0BEA030B4AEA0B042146404685
:1010900002F0BCF9BDE8F09F00BF00F00702064B6C
:1010A00019684FF6FF031940044B0B4343EA022132
:1010B000014B196000BF70470CED00E00000FA051D
:1010C00070B504460D460CB9012070BD5A48006841
:1010D00000F00700A8420ED25748006820F0070031
:1010E0002843554908600846006800F00700A842F8
:1010F00001D00120E9E7207800F0020002281DD18C
:10110000207800F00400042805D14C48406840F4E1
:10111000E0604A494860207800F00800082805D1BE
:101120004648406840F4605044494860434840683D
:1011300020F0F000A168084340494860207800F0A2
:10114000010078B36068012806D13C48006800F4CB
:10115000003090B90120B8E76068022806D137480E
:10116000006800F0007040B90120AEE73348006825
:1011700000F0020008B90120A7E73048406820F0DD
:101180000300616808432D494860FFF7D1FE064619
:1011900009E0FFF7CDFE801B41F28831884202D979
:1011A000032092E707E02548406800F00C006168E2
:1011B000B0EB810FEDD12048006800F00700A84295
:1011C0000ED91D48006820F0070028431A4908601E
:1011D0000846006800F00700A84201D0012074E72B
:1011E000207800F00400042807D11448406820F457
:1011F000E060E168084311494860207800F0080089
:10120000082808D10D48406820F46050216940EA60
:10121000C1000A49486000F03FF808494968C1F335
:101220000311074A515CC840064908600648006837
:10123000FFF7A4FE002048E7002002400010024013
:101240007A6700080C0000200400002001480068B4
:10125000704700000C00002000B5FFF7F7FF0449BD
:101260004968C1F30221034A515CC84000BD000037
:10127000001002408A67000800B5FFF7E7FF044945
:101280004968C1F3C221034A515CC84000BD000057
:10129000001002408A67000870B500210022002477
:1012A00000230020134D696801F00C05F5B1042DF1
:1012B00002D0082D19D101E00F4819E00F4DC1F3FC
:1012C0008346AB5D01F4803555B10A4D6D68C5F3B9
:1012D00040450B4E725D084D5D43B5FBF2F402E0F4
:1012E000084D03FB05F4204602E000BF024800BFA2
:1012F00000BF70BD0010024000127A00686700084D
:101300007867000800093D00F8B504460CB90120D3
:10131000F8BD207800F00100002878D0F848406837
:1013200000F00C0004280CD0F548406800F00C00D8
:10133000082811D1F248406800F48030B0F5803FB1
:101340000AD1EF48006800F4003000285FD06068E0
:1013500000285CD10120DBE700BF6068B0F5803F6A
:1013600006D1E748006840F48030E549086028E08D
:10137000606858B9E248006820F48030E0490860AD
:101380000846006820F4802008601AE06068B0F524
:10139000A02F0BD1DA48006840F48020D8490860BB
:1013A0000846006840F4803008600AE0D4480068CD
:1013B00020F48030D24908600846006820F480207C
:1013C000086000BF606888B1FFF7B2FD054606E01F
:1013D000FFF7AEFD401B642801D9032098E7C848F9
:1013E000006800F400300028F2D010E0FFF7A0FD04
:1013F000054606E0FFF79CFD401B642801D9032049
:1014000086E7BF48006800F400300028F2D1207859
:1014100000F00200022857D1B948406800F00C00E3
:1014200050B1B748406800F00C00082818D1B44803
:10143000406800F4803098B9B148006800F00200BC
:1014400020B12069012801D0012061E7AC48006883
:1014500020F0F800616940EAC100A949086033E062
:101460002069E8B10120A7490860FFF761FD054642
:1014700006E0FFF75DFD401B022801D9032047E786
:101480009F48006800F002000028F2D09C480068E5
:1014900020F0F800616940EAC1009949086013E052
:1014A000002098490860FFF743FD054606E0FFF776
:1014B0003FFD401B022801D9032029E7904800681E
:1014C00000F002000028F2D1207800F0080008287F
:1014D0002DD1A069B8B101208B490860FFF728FD24
:1014E000054606E0FFF724FD401B022801D9032032
:1014F0000EE78348406A00F002000028F2D0012085
:1015000001F03EFC13E000207F490860FFF710FD6A
:10151000054606E0FFF70CFD401B022801D9032019
:10152000F6E67748406A00F002000028F2D1207801
:1015300000F00400042873D100277148C06900F04E
:10154000805070B900BF6E48C06940F080506C494F
:10155000C8610846C06900F08050009000BF00BF1D
:1015600001276A48006800F48070B0B967480068D5
:1015700040F4807065490860FFF7DAFC054606E034
:10158000FFF7D6FC401B642801D90320C0E65F4862
:10159000006800F480700028F2D000BFE0680128E5
:1015A00006D15748006A40F001005549086227E01B
:1015B000E06858B95248006A20F0010050490862BA
:1015C0000846006A20F00400086219E0E068052877
:1015D0000BD14B48006A40F00400494908620846B4
:1015E000006A40F0010008620AE04548006A20F005
:1015F0000100434908620846006A20F004000862BE
:1016000000BFE068A0B1FFF793FC054609E0FFF7D3
:101610008FFC401B41F28831884202D9032077E6D3
:1016200022E03748006A00F002000028EFD012E004
:10163000FFF77EFC054608E0FFF77AFC401B41F20D
:101640008831884201D9032062E62D48006A00F003
:1016500002000028F0D1012F05D12948C06920F0EF
:1016600080502749C86100BFE069C8B3244840687A
:1016700000F00C00082860D0E069022848D1002062
:1016800020490866FFF754FC054606E0FFF750FCCA
:10169000401B022801D903203AE61948006800F0EF
:1016A00000700028F2D1206AB0F5803F07D11448BD
:1016B000406820F40030A168084311494860D4E92B
:1016C000080108430E49496821F4741108430C4984
:1016D000486001200B490866FFF72AFC054607E031
:1016E0003DE0FFF725FC401B022801D903200FE64F
:1016F0000348006800F000700028F2D02FE00000DE
:10170000001002400000424280044242007000404B
:10171000002014490866FFF70BFC054606E0FFF7BA
:1017200007FC401B022801D90320F1E50E480068A0
:1017300000F000700028F2D111E0E069012800D12A
:10174000E6E50948466806F48031206A814204D102
:1017500006F47011606A814201D00120D8E50020B2
:10176000D6E50000000042420010024010B50446D9
:101770000CB9012010BD022084F8510020680068D7
:1017800020F0400021680860204600F069F8002041
:10179000606584F8510000BF84F8500000BF00BFAE
:1017A000E8E710B504460CB9012010BD606A38B9ED
:1017B0006068B0F5827F00D105E00021E16102E0C0
:1017C0000021216161610021A16294F8510028B9D2
:1017D000002084F85000204600F06EF8022084F8C3
:1017E00051002068006820F0400021680860A0884F
:1017F00000F48270218901F404410843A18901F4B5
:1018000000610843217C01F002010843217D01F0C1
:1018100001010843218B01F400710843217F01F08D
:10182000380108432021095D01F080010843218D22
:1018300001F400510843216808600421A06901EA0D
:101840001040216848602068C06920F40060216869
:10185000C86100206065012084F851000020A4E7E1
:1018600010B504460F49206888420AD10E488069A5
:1018700020F480500C498861E0210C48FFF700F902
:101880000EE00B49206888420AD10748C06920F45D
:1018900080400549C8614FF460410648FFF7F0F801
:1018A00010BD00000030014000100240000801405F
:1018B00000380040000C014010B586B004460020FE
:1018C00002900390049005903449206888422ED1FC
:1018D00000BF3348806940F4805031498861084630
:1018E000806900F48050019000BF00BF00BF08462F
:1018F000806940F0040088610846806900F00400B7
:10190000019000BF00BFA02002900220039003209E
:10191000059002A92348FFF75DF9402002900020BE
:101920000390049002A91F48FFF754F933E01E49C1
:10193000206888422FD100BF1948C06940F4804018
:101940001749C8610846C06900F48040019000BF93
:1019500000BF00BF0846806940F008008861084663
:10196000806900F00800019000BF00BF4FF42040E4
:101970000290022003900320059002A90B48FFF774
:1019800029F94FF48040029000200390049002A9AE
:101990000648FFF71FF906B010BD000000300140F7
:1019A000001002400008014000380040000C0140D7
:1019B0002DE9F8430446884616461D4694F8510022
:1019C000012802D00220BDE8F8836068B0F5827F6C
:1019D0000CD1A06850B9042084F851003346424627
:1019E00041462046009500F083F9ECE7FFF7A0FAA6
:1019F0000746B8F1000F00D00EB90120E3E700BFA1
:101A000094F85000012801D10220DCE7012084F87D
:101A1000500000BF042084F8510000206065C4F825
:101A20003880A687E6872063A086E086206460640D
:101A3000A068B0F5004F0BD12068006820F040008E
:101A4000216808602068006820F4804021680860F0
:101A50002068006800F04000402805D02068006839
:101A600040F0400021680860E06830BB21E0206859
:101A7000806800F0010050B12068007BA16B087005
:101A8000A06B401CA063E08F401EE08711E0FFF7D1
:101A90004FFAC01BA84201D3681C00B94DB9012000
:101AA00084F8510000BF002084F8500000BF0320DC
:101AB00089E7E08F0028DAD125E021E020688068FE
:101AC00000F0010050B12068C068A16B0880A06BD5
:101AD000801CA063E08F401EE08711E0FFF728FA2A
:101AE000C01BA84201D3681C00B94DB9012084F87D
:101AF000510000BF002084F8500000BF032062E7BF
:101B0000E08F0028DAD13A462946204601F04CF908
:101B100008B120206065012084F8510000BF00203A
:101B200084F8500000BF606D08B101204BE7002031
:101B300049E72DE9F84304460F4616461D46FFF7D0
:101B4000F7F98046B14694F85100012802D00220EE
:101B5000BDE8F88307B10EB90120F9E700BF94F89A
:101B60005000012801D10220F2E7012084F8500042
:101B700000BF032084F85100002060652763A6861B
:101B8000E686A063A087E08760642064A068B0F563
:101B9000004F0BD12068006820F0400021680860E9
:101BA0002068006840F48040216808602068006870
:101BB00000F04000402805D02068006840F0400058
:101BC00021680860E068B0F5006F37D1606810B137
:101BD000B9F1010F09D1206B00882168C860206B22
:101BE000801C2063E08E401EE08623E02068806831
:101BF00000F0020002280AD1206B00882168C8602A
:101C0000206B801C2063E08E401EE08612E0FFF710
:101C10008FF9A0EB0800A84201D3681C00B94DB9A8
:101C2000012084F8510000BF002084F8500000BF5C
:101C300003208DE7E08E0028D8D136E0606810B12F
:101C4000B9F1010F09D1206B007821680873206B6E
:101C5000401C2063E08E401EE08623E02068806800
:101C600000F0020002280AD1206B00782168087376
:101C7000206B401C2063E08E401EE08612E0FFF7E0
:101C800057F9A0EB0800A84201D3681C00B94DB970
:101C9000012084F8510000BF002084F8500000BFEC
:101CA000032055E7E08E0028D8D142462946204639
:101CB00001F0B6F808B120206065A06850B900BFF7
:101CC000002000902068C068009020688068009024
:101CD00000BF00BF012084F8510000BF002084F83D
:101CE000500000BF606D08B1012031E700202FE7F0
:101CF0002DE9FE4F04460F4690461D460C9E0120DE
:101D00000190FFF715F9814694F851B06068029090
:101D1000AA46BBF1010F0BD00298B0F5827F04D127
:101D2000A06810B9BBF1040F02D00220BDE8FE8FFD
:101D30001FB1B8F1000F00D00DB90120F6E700BFC8
:101D400094F85000012801D10220EFE7012084F827
:101D5000500000BF94F85100042802D0052084F8F8
:101D6000510000206065C4F83880E587A5872763A7
:101D7000E586A586206460642068006800F0400065
:101D8000402805D02068006840F0400021680860C5
:101D9000E068B0F5006F52D1606810B1BAF1010F80
:101DA00009D1206B00882168C860206B801C2063EB
:101DB000E08E401EE0863BE02068806800F0020074
:101DC000022810D1E08E70B1019801280BD1206B50
:101DD00000882168C860206B801C2063E08E401E54
:101DE000E086002001902068806800F0010068B162
:101DF000E08F58B12068C068A16B0880A06B801C80
:101E0000A063E08F401EE08701200190FFF790F86B
:101E1000A0EB0900B0420BD3701C48B1012084F83C
:101E2000510000BF002084F8500000BF03207DE770
:101E3000E08E0028C0D1E08F0028BDD152E060685C
:101E400010B1BAF1010F09D1206B00782168087335
:101E5000206B401C2063E08E401EE0863CE0206842
:101E6000806800F00200022810D1E08E70B1019865
:101E700001280BD1206B007821680873206B401C6F
:101E80002063E08E401EE08600200190206880687C
:101E900000F0010068B1E08F58B12068C068A16B04
:101EA0000870A06B401CA063E08F401EE0870120FB
:101EB0000190FFF73DF8A0EB0900B04201D3701C80
:101EC00000B94EB9012084F8510000BF002084F809
:101ED000500000BF032029E7E08E0028BFD1E08F2B
:101EE0000028BCD14A463146204600F099FF40B157
:101EF0002020606500BF002084F8500000BF012052
:101F000014E7A06850B900BF002000902068C068A6
:101F1000009020688068009000BF00BF012084F816
:101F2000510000BF002084F8500000BF606D08B170
:101F30000120FBE60020F9E670B504462546681E40
:101F4000B0F1807F01D301200FE0681E4FF0E02147
:101F500048610F214FF0FF3001F058FA00204FF098
:101F6000E021886107200861002070BD10B504469B
:101F70000CB9012010BDA06900B100E000BF94F8C9
:101F8000410028B9002084F84000204600F02AF8DB
:101F9000242084F841002068C06820F400502168A3
:101FA000C860204601F03AF82068006920F49040AB
:101FB000216808612068406920F02A002168486192
:101FC0002068C06840F400502168C8600020606448
:101FD000202084F8410084F842000020606300BFA4
:101FE000C8E7000010B586B00446002002900390B8
:101FF000049005901A49206888422ED100BF1948E4
:10200000806940F48040174988610846806900F47F
:102010008040019000BF00BF00BF0846806940F0CB
:10202000040088610846806900F00400019000BF48
:1020300000BF48150290022003900320059002A9DA
:102040000948FEF7C7FD4FF480600290002003901E
:10205000049002A90448FEF7BDFD06B010BD0000C3
:102060000038014000100240000801402DE9F84FFF
:1020700004460E46174699464FF0000A94F8410070
:10208000202850D106B117B90120BDE8F88F0020F3
:102090006064212084F84100FEF74AFF8246A7844D
:1020A000E784A068B0F5805F04D1206910B90025ED
:1020B000B04602E035464FF000081EE053460022CD
:1020C00080212046CDF8009001F026F820B1202094
:1020D00084F841000320D8E745B9B8F80000C0F300
:1020E00008002168486008F1020803E028782168A8
:1020F00048606D1CE08C401EE084E08C0028DDD13F
:102100005346002240212046CDF8009001F004F80B
:1021100020B1202084F841000320B6E7202084F875
:1021200041000020B1E70220AFE700BFFEE700005A
:1021300010B5002280210748FEF7F4FE0520FEF7C7
:102140008BFC012280210348FEF7ECFE0520FEF700
:1021500083FC10BD002001400EB501222021224841
:10216000FEF7E0FE002240211F48FEF7DBFE0020C4
:10217000034640F2C232114600901C4803F040F87A
:1021800008B101200EBD40F2FF31184802F06EF890
:1021900008B10120F6E700200121FF230246CDE926
:1021A00000100C21114803F029F908B10120E9E7DA
:1021B00002A90E4802F0DCF908B10120E2E79DF81F
:1021C000080040F0040002909DF80810074803F052
:1021D0007DF808B10120D5E7044802F091F808B174
:1021E0000120CFE70020CDE70018014010000020BB
:1021F0001FB58E4802F082FA044614B18CA002F09A
:1022000089FC0121894803F0D5FB04462CB18EA03E
:1022100002F080FC854802F0E7F80021834803F0D3
:102220000BFC04462CB190A002F074FC7F4802F035
:10223000DBF801217D4803F09FFA04462CB194A0FD
:1022400002F068FC794802F0CFF8032202217748B7
:1022500003F002FA04462CB196A002F05BFC73482E
:1022600002F0C2F83021714803F05CFB04462CB147
:1022700098A002F04FFC6D4802F0B6F801216B48BF
:1022800003F036FA04462CB19DA002F043FC6748E7
:1022900002F0AAF800221121644803F099FC0446D8
:1022A0002CB1A0A002F036FC604802F09DF800209E
:1022B00001230422092100905C4803F049F80446F8
:1022C0002CB1A0A002F026FC584802F08DF803AA19
:1022D000A749564802F016F904462CB1A5A002F011
:1022E00019FC524802F080F85048039903F088FA2C
:1022F00004462CB1A9A002F00DFC4C4802F074F881
:1023000000221146494802F02FFF04462CB1ACA030
:1023100002F000FC454802F067F80021434803F052
:10232000C9F804462CB1B1A002F0F4FB3F4802F01A
:102330005BF800231A4619463C4802F0BBFE0446EF
:102340002CB1B5A002F0E6FB384802F04DF8374852
:1023500001F042FF04462CB1B7A002F0DBFB33488A
:1023600002F042F843F24441304803F0EBF80446EF
:102370002CB1BBA002F0CEFB2C4802F035F802A92C
:102380002A4802F079F904462CB1BEA002F0C2FB43
:10239000264802F029F89DF8080040F00400029059
:1023A0009DF80810214803F0D1FB04462CB1BEA0D3
:1023B00002F0B0FB1D4802F017F894211B4803F00F
:1023C0006FFA04462CB1C1A002F0A4FB174802F03A
:1023D0000BF83821154803F0FDF804462CB1C3A0D2
:1023E00002F098FB114801F0FFFF01A90F4802F02D
:1023F00001F904462CB1C4A002F08CFB0B4801F09B
:10240000F3FF9DF8040040F01E0001909DF80410B9
:10241000064803F059FB04462CB1C5A002F07AFB34
:10242000024801F0E1FFFFF797FE1FBD10000020FA
:102430006C6C636336383A20696E69742066616932
:102440006C65642E0A0000006C6C636336383A20B9
:10245000736574207374616E646279206661696C5F
:1024600065642E0A000000006C6C636336383A2005
:1024700073746F702074696D6572206F6E20707256
:1024800065616D626C65206661696C65642E0A0029
:102490006C6C636336383A207365742072656775B7
:1024A0006C61746F72206D6F6465206661696C6524
:1024B000642E0A006C6C636336383A2073657420AE
:1024C000706120636F6E666967206661696C656420
:1024D0002E0A00006C6C636336383A2073657420F2
:1024E00072782074782066616C6C6261636B206D19
:1024F0006F6465206661696C65642E0A00000000E7
:102500006C6C636336383A20736574207061636B5A
:1025100065742074797065206661696C65642E0A43
:10252000000000006C6C636336383A2073657420D9
:10253000747820706172616D73206661696C656486
:102540002E0A00006C6C636336383A207365742081
:102550006C6F7261206D6F64756C6174696F6E2051
:10256000706172616D73206661696C65642E0A002A
:1025700000389C1C6C6C636336383A20636F6E764F
:1025800065727420746F2072656769737465722058
:102590006661696C65642E0A000000006C6C636300
:1025A00036383A20736574207266206672657175DC
:1025B000656E6379206661696C65642E0A000000AF
:1025C0006C6C636336383A20736574206275666696
:1025D0006572206261736520616464726573732043
:1025E0006661696C65642E0A000000006C6C6363B0
:1025F00036383A20736574206C6F72612073796D80
:1026000062206E756D2074696D656F7574206661EA
:10261000696C65642E0A00006C6C636336383A207E
:102620007265736574207374617473206661696C7C
:1026300065642E0A000000006C6C636336383A2033
:10264000636C65617220646576696365206572728A
:102650006F7273206661696C65642E0A0000000069
:102660006C6C636336383A20736574206C6F7261EA
:102670002073796E6320776F7264206661696C6580
:10268000642E0A006C6C636336383A2067657420E8
:102690007478206D6F64756C6174696F6E2066610B
:1026A000696C65642E0A00006C6C636336383A20EE
:1026B000736574207478206D6F64756C6174696FD4
:1026C0006E206661696C65642E0A00006C6C636341
:1026D00036383A20736574207278206761696E20FD
:1026E0006661696C65642E0A000000006C6C6363AF
:1026F00036383A20736574206F6370206661696CA8
:1027000065642E0A000000006C6C636336383A2062
:1027100067657420747820636C616D7020636F6EE0
:10272000666967206661696C65642E0A00000000B6
:102730006C6C636336383A20736574207478206358
:102740006C616D7020636F6E666967206661696C8D
:1027500065642E0A0000000070B505460C4612485C
:1027600002F036FB08B1012070BD0F4890F8B602A8
:10277000002817DD0C4890F8B62200F5DB712846DA
:10278000FDF704FD084890F8B6022080002021885B
:1027900068544FF480710548FDF711FD002002498F
:1027A00081F8B6020020DFE710000020C6010020FB
:1027B00070B5FFF7BDFC03F045FF042226499001E8
:1027C00000F0ACFD042225494FF4A06000F0A6FD06
:1027D000062223494FF4106000F0A0FD0422214995
:1027E0004FF4706000F09AFD5C211FA0FDF7F2FC31
:1027F00028B15C211CA0FDF7EDFC401C00E01AA0F4
:1028000005462F21FDF7E6FC002811D05C2116A01B
:10281000FDF7E0FC28B15C2113A0FDF7DBFC401CB8
:1028200000E011A005462F21FDF7D4FC401C0BE071
:102830005C210DA0FDF7CEFC28B15C210AA0FDF7BC
:10284000C9FC401C00E008A004462B2221460EA033
:1028500000F0A8FD70BD0000CC020020D0020020D6
:10286000D4020020C80200202E2E5C696E746572AE
:10287000666163655C6574685C496E745F77353565
:1028800030302E63000000005B25733A25645D77CD
:1028900035353030B3F5CABCBBAFCDEAB3C90D0A8C
:1028A0000000000070B506460C4604B970BD02E099
:1028B0000A20FEF7D1F800F011F80028F8D14FF403
:1028C000427000F071FC0546172D04D122463146B6
:1028D000002003F02DFD00BFE8E700002DE9F041E6
:1028E0004FF4427000F060FC0446002C77D10023C6
:1028F00041F690720121184603F0DAFD0546002DDD
:1029000036D15C2178A0FDF765FC28B15C2176A06A
:10291000FDF760FC401C00E073A007462F21FDF787
:1029200059FC002811D05C216FA0FDF753FC28B1A1
:102930005C216DA0FDF74EFC401C00E06AA007463C
:102940002F21FDF747FC401C0BE05C2166A0FDF742
:1029500041FC28B15C2164A0FDF73CFC401C00E078
:1029600061A006464022314667A000F01BFD34E01E
:102970005C215DA0FDF72EFC28B15C215AA0FDF77B
:1029800029FC401C00E058A007462F21FDF722FC3F
:1029900088B15C2154A0FDF71DFC28B15C2152A038
:1029A000FDF718FC401C00E04FA007462F21FDF763
:1029B00011FC401C0BE05C214BA0FDF70BFC28B187
:1029C0005C2149A0FDF706FC401C00E046A006463D
:1029D0004422314652A000F0E5FC82E0FFE7132CD0
:1029E00075D142F2B8225449002001F003FB05469C
:1029F000012D35D15C213CA0FDF7ECFB28B15C2119
:102A000039A0FDF7E7FB401C00E037A007462F2167
:102A1000FDF7E0FB88B15C2133A0FDF7DBFB28B1BB
:102A20005C2131A0FDF7D6FB401C00E02EA007463C
:102A30002F21FDF7CFFB401C0BE05C212AA0FDF706
:102A4000C9FB28B15C2128A0FDF7C4FB401C00E0B5
:102A500025A006464E22314638A000F0A3FC34E003
:102A60005C2121A0FDF7B6FB28B15C211EA0FDF77B
:102A7000B1FB401C00E01CA007462F21FDF7AAFB7C
:102A800088B15C2118A0FDF7A5FB28B15C2116A038
:102A9000FDF7A0FB401C00E013A007462F21FDF727
:102AA00099FB401C0BE05C210FA0FDF793FB28B1C4
:102AB0005C210DA0FDF78EFB401C00E00AA006463D
:102AC0005222314623A000F06DFC0AE0FFE7172CEC
:102AD00002D10020BDE8F0811C2C02D1002001F0C1
:102AE00039FA0120F6E700002E2E5C696E746572DB
:102AF000666163655C6574685C496E745F773535E3
:102B000030302E63000000005B25733A25645DB40D
:102B1000B4BDA8736F636B6574B3C9B9A600000038
:102B20005B25733A25645DB4B4BDA8736F636B65B0
:102B300074CAA7B0DC000000DA0200205B25733AFB
:102B400025645DC1ACBDD3B7FECEF1B6CBB3C9B978
:102B5000A60D0A005B25733A25645DC1ACBDD3B7F1
:102B6000FECEF1B6CBCAA7B0DC0D0A0000B585B029
:102B70000020019002900390049000BF49488069B2
:102B800040F04000474988610846806900F04000F5
:102B9000009000BF00BF00BF0846806940F01000F1
:102BA00088610846806900F01000009000BF00BFF7
:102BB00000BF0846806940F00400886108468069CB
:102BC00000F00400009000BF00BF00BF084680690D
:102BD00040F0080088610846806900F00800009015
:102BE00000BF00BF00BF0846806940F48070886164
:102BF0000846806900F48070009000BF00BF00BFED
:102C00000846806940F0200088610846806900F02D
:102C10002000009000BF00BF002260212248FEF784
:102C200081F901224FF481412048FEF77BF901220E
:102C300008211F48FEF776F900224FF400511B4887
:102C4000FEF770F90420019000200290039001A982
:102C50001548FDF7BFFF6020019001200290002081
:102C600003900220049001A90F48FDF7B3FF4FF431
:102C7000C1400190012002900020039002200490A6
:102C800001A90A48FDF7A6FF082001900120029043
:102C9000002003900220049001A90548FDF79AFF47
:102CA00005B000BD001002400018014000200140A6
:102CB0000014014010B50E480E4908604FF48270B0
:102CC000486000210B488160C160016141614FF49F
:102CD000007181611021C161002101624162816244
:102CE0000A21C162FEF75DFD08B1FDF7B2FE10BD1D
:102CF000003001402803002010B50E480E4908603E
:102D00004FF48270486000210B488160C16001610E
:102D100041614FF4007181610821C16100210162AC
:102D2000416281620A21C162FEF73BFD08B1FDF7F5
:102D300090FE10BD003800408003002010B50B4805
:102D40000B4908604FF4E130486000210848816079
:102D5000C16001610C21416100218161C161FFF706
:102D600005F908B1FDF775FE10BD000000380140FF
:102D7000D803002000BFFEE700BFFEE77047000059
:102D800008B508490968C9084FF47A72B1FBF2F135
:102D90004143009100BF00BF00994A1E00920029E4
:102DA000F9D108BD0C000020F8B504460E461546C2
:102DB0006068B0F5827F0DD1A068B0F5004F03D0F8
:102DC000A068B0F5806F05D12068006820F0400051
:102DD000216808606068B0F5827F11D1A068B0F505
:102DE000806F0DD13346002201212046009500F06E
:102DF00039F898B1606D40F0200060650320F8BD9F
:102E00003346002280212046009500F02BF828B19F
:102E1000606D40F0200060650320F0E70020EEE7E1
:102E2000F8B504460E4615463346012202212046D7
:102E3000009500F017F828B1606D40F02000606543
:102E40000320F8BD3346002280212046009500F083
:102E500009F828B1606D40F0200060650320F0E7BC
:102E60000020EEE72DE9F84F04460D4690461E4639
:102E7000DDF82890FEF75CF8A0EB0900371AFEF7A2
:102E800057F882462C480068C0F3CB307843009056
:102E900045E0701C002842D0FEF74AF8A0EB0A007B
:102EA000B84200D2A7BB2068406820F0E00021684B
:102EB00048606068B0F5827F0DD1A068B0F5004F22
:102EC00003D0A068B0F5806F05D12068006820F0BD
:102ED000400021680860A06AB0F5005F0DD100BF16
:102EE0002068006820F400502168086020680068AD
:102EF00040F400502168086000BF012084F85100B0
:102F000000BF002084F8500000BF0320BDE8F88F08
:102F1000FFE7009800B900270098401E0090206845
:102F200080682840A84201D1012000E000204045EF
:102F3000AFD10020EAE700000C000020704710B578
:102F4000FDF7FCFF10BD00B58FB0282105A8FDF7E7
:102F500036F914216846FDF732F901200590000486
:102F60000690002007900120099002200C90C103D8
:102F70000D914FF4E0110E9105A8FEF7C5F908B1C7
:102F8000FDF767FD0F2000900220019000200290C5
:102F90004FF4806003900020049002216846FEF701
:102FA0008FF808B1FDF755FD0FB000BD704700BFA9
:102FB00000BF02680C3252E8002F22F490710268C0
:102FC0000C3242E80013002BF3D100BF00BF00BF5A
:102FD0000268143252E8002F22F001010268143214
:102FE00042E80013002BF3D100BF016B01290ED181
:102FF00000BF00BF02680C3252E8002F22F010011F
:1030000002680C3242E80013002BF3D100BF2021EC
:1030100080F84210002101637047000070B504463B
:103020002168096921F44051E26811432268116165
:103030002269A1681143626941EA02052168C968F1
:1030400041F20C62914329432268D16021684969A9
:1030500021F44071A2691143226851612D4A21680F
:10306000914202D1FEF708F901E0FEF7F5F800EB16
:10307000C00101EB001162689200B1FBF2F100EBBC
:10308000C00202EB001263689B00B2FBF3F2642300
:10309000B2FBF3F202EBC20303EB0212A1EB8201DB
:1030A000322202EB01116422B1FBF2F101F0F001D6
:1030B00000EBC00202EB001263689B00B2FBF3F26C
:1030C0006423B2FBF3F201EB021200EBC00101EB4F
:1030D000001163689B00B1FBF3F100EBC00303EB4D
:1030E00000136668B600B3FBF6F36426B3FBF6F391
:1030F00003EBC30606EB0313A1EB8301322303EBBF
:1031000001116423B1FBF3F101F00F0111442268B6
:10311000916070BD003801402DE9F84304460D462A
:1031200017469846089E31E0701C70B3FDF700FF0B
:10313000A0EB0800B04200D816B90320BDE8F88320
:103140002068C06800F00400F8B1802D1ED0402D2A
:103150001CD020680068C0F3C000B0B100BF0020E0
:10316000009020680068009020684068009000BFD0
:1031700000BF2046FFF71BFF0820606400BF00204F
:1031800084F8400000BF0120D8E7FFE7206800680E
:103190002840A84201D1012000E00020B842C3D05D
:1031A0000020CBE700BFFEE738B504461A49C868DF
:1031B000804719494869804700BF1748406A10B1E5
:1031C0001548806A70B91448016AC4F307408847FB
:1031D0001148016AC4F307208847E0B20E4A116A19
:1031E00088470DE0200C8DF80000200A8DF80100C2
:1031F000E0B28DF8020008480321826A68469047D1
:103200000549C869804705460349886980470249DE
:1032100008698047284638BDEC020020F8B504460E
:103220000E4617461F49C86880471E4948698047AF
:1032300000BF1C48406A10B11A48806AC0B91948DA
:10324000016AC4F3074088471648016AC4F307209F
:103250008847E0B2134A116A8847002505E0114902
:10326000C86980477055681C85B2BD42F7DB12E023
:10327000200C8DF80000200A8DF80100E0B28DF8D6
:10328000020008480321826A68469047054839468B
:10329000426A304690470349886980470149086976
:1032A0008047F8BDEC02002038B504460D461A49A7
:1032B000C868804718494869804744F004041648A4
:1032C000806A90B91448016AC4F3074088471248DD
:1032D000016AC4F307208847E0B20F4A116A8847A1
:1032E0000D48016A284688470FE0200C8DF8000041
:1032F000200A8DF80100E0B28DF802008DF803502D
:1033000005480421826A68469047034988698047D6
:1033100001490869804738BDEC020020F8B5044631
:103320000E4617461E49C86880471D4948698047B0
:1033300044F004041A48806AC0B91948016AC4F309
:10334000074088471648016AC4F307208847E0B25F
:10335000134A116A8847002505E0705D104A116A1A
:103360008847681C85B2BD42F7DB12E0200C8DF85F
:103370000000200A8DF80100E0B28DF80200084834
:103380000321826A6846904705483946826A30467A
:103390009047034988698047014908698047F8BD1B
:1033A000EC0200200FB4054B10B503A9044A0298A3
:1033B00000F02CF910BC5DF814FB0000514100082E
:1033C00020030020014B024A00F020B951410008BF
:1033D000200300204100080218BF04200A0E18BF75
:1033E00040F001004FF07F4232EA010108BF40F097
:1033F0000200012808BF052070470000024800684D
:10340000C0F30220704700000CED00E010B500286A
:1034100004DB0A07130E054A135406E00A07140ECC
:10342000034A00F00F031B1FD45410BD00E400E05A
:1034300018ED00E000214FF07E50FCF708BFFDF7CB
:10344000BCB800210846FCF702BF61214FF0E04004
:10345000FDF70BB96FF05E010807FDF706B902E052
:1034600008C8121F08C1002AFAD17047704700200F
:1034700001E001C1121F002AFBD170470149086019
:1034800070470000240300202DE9FF5F82B0002177
:10349000DDE90430020DDDF840B0034318D044F6F6
:1034A0001050A2F2FF3242431514119801281FD088
:1034B000A5EB0B00401C5FEA000A4FF000064E4FE0
:1034C000DFF83891B046504615D5CAF1000413E034
:1034D000119801244AA3012801D16FEA0B01029837
:1034E000119AC0E90031C0E9024206B0BDE8F09F80
:1034F000CBF10000DFE704460021404A491842EBC7
:103500000450CDE9001012E0E00707D032463B46F8
:1035100040464946FCF7D9FE8046894632463B463E
:1035200010461946FCF7D1FE06460F466410002CE3
:10353000EAD1DDE90401DDE90023BAF1000F06DA82
:10354000FCF7C3FE42464B46FCF7BFFE05E0FCF726
:103550002EFF42464B46FCF72AFF04460E46002249
:10356000284BFDF7D9F903D84FF0FF30014607E0AB
:103570000022254B20463146FDF7E0F8FDF78EF995
:10358000102409E0002C0ADB0A220023FCF7ADFF1F
:10359000039B30321A55641E50EA0102F2D1641CBA
:1035A000039AC4F111031444119A012A03D0012291
:1035B00008430DD10AE0084304D000204FF0110B5E
:1035C000119072E7A3EB0B056D1E0DE05B4504DD6A
:1035D0004FF0000205F1010504E003DA4FF00002AC
:1035E000A5F10105002AECD002981199C0E9023139
:1035F000C0E9004579E70000000014400000F03FFA
:10360000300000000000F0430000E03F2DE9FF4FD4
:1036100095B09A46884606460025EEE1252877D1E2
:1036200000242746F94A0121039400E0044316F8D8
:10363000013F203B01FA03F01042F7D130782A28ED
:1036400011D06FF02F033078A0F13002092A16D87C
:10365000039A44F0020402EB820203EB420210449C
:10366000761C0390EFE758F8042B0392002A03DA44
:10367000504244F40054039044F00204761C307825
:103680002E2816D116F8010F44F004042A280DD074
:103690006FF02F023078A0F13003092B09D807EB27
:1036A000870302EB4303C718761CF3E758F8047B43
:1036B000761C30786C280FD006DC4C2817D0682890
:1036C0000DD06A2814D104E0742810D07A280FD1C4
:1036D0000DE044F400140AE044F4801401E044F4E2
:1036E00040147278824202D104F58014761C761C54
:1036F000307866280BD013DC582877D009DC0028F6
:1037000075D04528F6D04628F4D047281AD193E141
:1037100018E0632835D0642879D0652812D18BE170
:10372000702873D008DC6728F1D069286FD06E2824
:103730000DD06F2806D1ACE073282CD0752874D03A
:10374000782853D05246179990476D1C54E1C4F322
:103750000250022809D003280DD0D8F80010042800
:103760000DD00D6008F1040846E1D8F80010EA1702
:10377000C1E90052F6E7D8F800100D80F2E70D70AD
:10378000F0E718F8041B8DF8001000208DF80100F8
:10379000EB46012003E058F804BB4FF0FF3061070F
:1037A0004FF0000102D40DE009F101018946B94250
:1037B0000FDA8145F8DB1BF809100029F4D108E085
:1037C00009F1010189468142FADB1BF80910002941
:1037D000F6D103985346A0EB090721463846179ABD
:1037E00000F080FA284400EB090507E044E008E116
:1037F0000DE01BF8010B524617999047B9F10109EA
:10380000F7D2534621463846179AF2E039E00A21AA
:10381000C4F302524FF0000B0091022A06D058F870
:10382000040BC117032A09D00AE023E008F10700BE
:1038300020F00702F2E80201904605E000B2C1174D
:10384000042A01D140B2C117002906DA0A46002134
:10385000404261EB02012D2202E0220504D52B2219
:103860008DF80420012203E0E20701D02022F7E7CF
:10387000914657E00A2100E010214FF0000B009123
:103880000BE010214FF0000B44F0040408270091D6
:1038900003E008204FF0000B0090C4F30252022A0C
:1038A00005D058F8040B0021032A08D008E008F1DD
:1038B000070020F00702F2E80201904603E080B220
:1038C000042A00D1C0B24FF0000922072AD532786D
:1038D000702A07D0DDF800C08CF0100C5CEA0B0CED
:1038E00005D00EE040228DF80420012208E050EAC5
:1038F000010306D030238DF804308DF80520022214
:103900009146009B83F0080353EA0B030AD150EA67
:10391000010201D1620705D530228DF804204FF055
:1039200001097F1E3278582A04D039A20C920CAAC1
:1039300002920BE03BA2F9E75B46009AFCF7D5FD4B
:103940000C9B9B5C029A521E0292137050EA010279
:10395000F2D1029804A9081A00F1200B600702D5E1
:1039600024F4803400E001275F4502DDA7EB0B0063
:1039700000E0002000EB0B01009003984944401A3E
:103980000390E00306D453462146179A039800F0AB
:10399000A9F90544002706E001A85246C05D179921
:1039A00090476D1C7F1C4F45F6DBE0030CD553465A
:1039B0002146179A039800F095F9054404E0302059
:1039C0005246179990476D1C0099481E0090002997
:1039D000F5DC08E00298029952460078491C0291F1
:1039E000179990476D1CBBF10001ABF1010BF1DCA5
:1039F0005BE100F065F90544761C307800287FF41F
:103A00000DAE19B02846BDE8F08F0000092801006E
:103A10003031323334353637383961626364656644
:103A20000000000030313233343536373839414206
:103A30004344454600000000600700D4062708F113
:103A4000070020F00700F0E80223804603F0004C56
:103A50005FEA0C0001D097A009E0200501D596A0EF
:103A600005E0E00701D095A001E0AFF24C00139013
:103A7000307823F0004365280CD006DC452809D0B7
:103A800046281DD047287FD13BE0662818D06728FC
:103A90007AD136E00021112F01DB112000E0781CE3
:103AA000CDE9000104A90CA8FFF7EEFCDDE90D014A
:103AB0000C9A4FF0000B07F10109109200914EE0B3
:103AC0004FF000400097CDE9011004A90CA8FFF7C2
:103AD000DBFCDDE90D020C9B0F994FF0000B9146CA
:103AE0001093009211B9791C00EB0109B7EB0900A2
:103AF00003D4C0F1FF3B07F10109A9EB07000190D6
:103B000042E0012F00DA01270021112F01DD1120F1
:103B100000E03846CDE9000104A90CA8FFF7B4FC89
:103B2000DDE90D010C9A00914FF0000BB94610929F
:103B300021070FD4009A4A4503DA914601E0A9F122
:103B40000109B9F1010F05DD109AA9F10101515CDC
:103B50003029F4D0B84202DA10F1040F03DA01215F
:103B6000CDE9011010E0002803DC8344A9EB00013B
:103B700002E0411C494500DD8946A0EB0B00401CDA
:103B800001904FF000400290200705D4019848456D
:103B900002DB4FF0FF30019000208DF84B000298BF
:103BA0000DF14B07B0F1004F25D002200C902B20D7
:103BB0000D90029800280CDA404202902D200D90C2
:103BC00007E00A210298FCF77AFC3031029007F8EE
:103BD000011D0C99481E0C900029F2DC0298002867
:103BE000EFD1791E0D980870307800F0200040F079
:103BF000450007F8020D11A8C01BC01D02901398C4
:103C0000007800B1012000EB0901019801EBE0719F
:103C1000029801440398401A401E0390E00306D422
:103C200053462146179A039800F05CF80544139810
:103C3000007818B15246179990476D1CE00323D5C0
:103C400053462146179A039800F04CF805441BE0B0
:103C5000BBF1000F07DB0098584504DD1098179959
:103C600010F80B0001E01799302052469047019858
:103C70000BF1010B401E05F10105019004D12E202E
:103C80005246179990476D1CB9F10001A9F101093D
:103C9000DEDC05E017F8010B5246179990476D1CC2
:103CA0000299481E02900029F4DC53462146179AD7
:103CB00003989EE62D0000002B000000200000006D
:103CC0002DE9F041044600251E461746880404D419
:103CD00005E039462020B0476D1C641EF9D5284602
:103CE000BDE8F0812DE9F041044600251E469046CE
:103CF000C80301D5302700E02027880404D505E05B
:103D000041463846B0476D1C641EF9D52846BDE8CB
:103D1000F08138B5044664251AE068466169884731
:103D200008B1012038BD9DF8000008B90020F9E76E
:103D30009DF80000012809D145B10A20616A884731
:103D4000681EC5B205B103E00120EBE70120E9E7F9
:103D5000E3E72DE9FF41044615461E4633462A4651
:103D6000012101A8276AB84718B1012004B0BDE8B5
:103D7000F0810020FAE70000F8B504460E46174629
:103D80001D46B5F5C07F04DB11A0A16A884702205B
:103D9000F8BD4FF4C07104F13600FCF710FA1E2094
:103DA0008DF800008DF801606B1C04F136020221D1
:103DB0006846D4F820C0E04708B10120E8E72A4669
:103DC00004F137013846FCF7E1F90020E0E7000094
:103DD0006C6C636336383A206C656E206973206FB3
:103DE000766572203338332E0A000000F8B5044699
:103DF0000E4617461D46B5F5C07F04DB13A0A16A29
:103E000088470220F8BD4FF4C07104F13600FCF77A
:103E1000D6F91D208DF80000300A8DF80100F0B2AF
:103E20008DF802006B1C04F1360203216846D4F8B9
:103E300020C0E04708B10120E4E72A4604F1370139
:103E40003846FCF7A3F90020DCE700006C6C6363E4
:103E500036383A206C656E206973206F7665722063
:103E60003338332E0A0000002DE9F04104460E4697
:103E700017461D46B5F5C07F05DB10A0A16A88472F
:103E80000220BDE8F0814FF4C07104F13600FCF768
:103E900096F984F836602A46394604F13700FCF773
:103EA00075F900231A46691C04F13600D4F820C0C5
:103EB000E04708B10120E4E70020E2E76C6C6363AF
:103EC00036383A206C656E206973206F76657220F3
:103ED0003338332E0A0000002DE9F04104460E4627
:103EE00017461D46B5F5BF7F05DB13A0A16A8847BD
:103EF0000220BDE8F0814FF4C07104F13600FCF7F8
:103F00005EF90D2084F83600310A3720015538203B
:103F100006552A46394604F13900FCF737F90023E3
:103F20001A46E91C04F13600D4F820C0E04708B175
:103F30000120DEE70020DCE76C6C636336383A2052
:103F40006C656E206973206F766572203338312E70
:103F50000A00000010B5044600BF082C02DD4FF037
:103F6000FF3010BD00BFA100491C4FF4807202EB6E
:103F7000C1001021FFF798F900BFA100491C4FF4C0
:103F8000807202EBC100FFF70FF90028F5D1A10004
:103F9000491C4FF4007202EBC1001F21FFF784F9A6
:103FA0000120A0400F49098881430E48018001206B
:103FB000A0400D49098881430B48018000200B492E
:103FC00021F814000A49085500BFA100491C4FF40C
:103FD000407202EBC100FFF7E7F80028F5D101209D
:103FE000BFE70000E0020020E202002020040020E1
:103FF000E402002070B504460D46164600BF082CAA
:1040000002DD4FF0FF3070BD00BF00BFA100491CB2
:10401000002202EBC100FFF7C7F800F00F000128F3
:1040200002D06FF00400EEE700BF00BFA100491C02
:104030004FF4407202EBC100FFF7B6F8132802D02C
:104040006FF00200DFE700BF2978687861F31F2076
:104050000146A87861F31F200146E87861F31F202C
:104060000146481C00B111B96FF00B00CBE716B93F
:104070006FF00A00C7E7A100491C4FF4406202EB51
:10408000C10004222946FFF749F93112A200521C4F
:104090004FF4805303EBC200FFF706F9F1B2A20020
:1040A000521C4FF4805303EBC20202F58070FFF7FD
:1040B000FBF8A100491C4FF4807202EBC1000421FF
:1040C000FFF7F2F800BFA100491C4FF4807202EB29
:1040D000C100FFF769F80028F5D10120A0401B4975
:1040E0000988084008B100208DE722E0A100491CA2
:1040F0004FF4007202EBC100FFF756F800F0080021
:1041000058B1A100491C4FF4007202EBC100082114
:10411000FFF7CAF86FF00C0075E7A100491C4FF4D7
:10412000407202EBC100FFF73FF810B96FF00300D7
:1041300069E7A100491C4FF4407202EBC100FFF790
:1041400033F81728D2D101205DE70000E0020020FB
:1041500013B50C464FF6FF73012269460248FDF77E
:1041600085FF00981CBD0000D803002070B50446F0
:104170000025002600BFA100491C4FF4005202EBAD
:10418000C100FFF711F80646A100491C4FF4005288
:1041900002EBC10101F58070FFF706F800EB062085
:1041A00086B2AEB1A100491C4FF4005202EBC1002F
:1041B000FEF7FAFF0546A100491C4FF4005202EB3E
:1041C000C10101F58070FEF7EFFF00EB052085B21D
:1041D000B542D0D1284670BD38B504460CB902208E
:1041E00038BD94F83000012801D00320F8E72046BC
:1041F000FFF78FFD054625B10CA0A16A8847042072
:10420000EEE700208DF800008DF8010002236A46D9
:1042100007212046FFF728FE054625B109A0A16A1F
:1042200088470120DCE70020DAE700006C6C63635C
:1042300036383A2063686970206973206275737933
:104240002E0A00006C6C636336383A20636C65613B
:104250007220646576696365206572726F7273207F
:104260006661696C65642E0A00000000F8B50446BA
:104270000E460CB90220F8BD94F83000012801D098
:104280000320F8E72046FFF744FD054625B10DA0C1
:10429000A16A88470420EEE7300A8DF80000F0B2EA
:1042A0008DF8010002236A4619462046FFF7DCFD1F
:1042B000054625B109A0A16A88470120DBE7002057
:1042C000D9E700006C6C636336383A206368697024
:1042D00020697320627573792E0A00006C6C636329
:1042E00036383A20636C656172206972712073748C
:1042F00061747573206661696C65642E0A00000044
:10430000F8B504460CB90220F8BD94F83000012835
:1043100001D00320F8E72046FFF7FBFC054625B156
:104320001CA0A16A88470420EEE740F2FF36300A5D
:104330008DF80000F0B28DF8010002236A4619469C
:104340002046FFF791FD054625B118A0A16A8847D0
:104350000120D9E72046FFF7DCFC054625B10DA07A
:10436000A16A88470420CFE7FF208DF800008DF870
:1043700001008DF8020003236A4682212046FFF7E0
:1043800073FD054625B112A0A16A88470120BBE74D
:104390000020B9E76C6C636336383A206368697053
:1043A00020697320627573792E0A00006C6C636358
:1043B00036383A20636C65617220697271207374BB
:1043C00061747573206661696C65642E0A00000073
:1043D0006C6C636336383A2073657420727820669B
:1043E00061696C65642E0A0038B504460CB9022078
:1043F00038BD94F83000012801D00320F8E72046AA
:10440000FFF787FC054625B118A0A16A884704205C
:10441000EEE70020009001236A4684212046FFF742
:1044200023FD054625B117A0A16A88470520DFE7CF
:1044300020698047054625B119A0A16A8847062052
:10444000D6E760688047054625B11EA0A16A884767
:104450000720CDE7E0698047054625B122A0A16A83
:1044600088470120C4E70020C2E700006C6C63634A
:1044700036383A20636869702069732062757379F1
:104480002E0A00006C6C636336383A20706F7765D3
:104490007220646F776E206661696C65642E0A0015
:1044A0006C6C636336383A20627573792067706983
:1044B0006F206465696E6974206661696C65642E3D
:1044C0000A0000006C6C636336383A2072657365CD
:1044D00074206770696F206465696E697420666115
:1044E000696C65642E0A00006C6C636336383A2090
:1044F000737069206465696E6974206661696C65B2
:10450000642E0A002DE9F84F04460D46164614B9EC
:104510000220BDE8F88F94F83000012801D0032074
:10452000F7E72846FBF7B2FF0E4900900E4801F06E
:10453000ADFB83464FF08441FBF757FE81460B49A4
:10454000C80201F0A3FB82464946FBF780FE804685
:104550000099FBF74AFE0746FBF79DFF30600020FD
:10456000D7E700000000C040000020410000C84123
:1045700070B504460E460CB9022070BD94F83000A8
:10458000012801D00320F8E72046FFF7C2FB0546CB
:1045900025B10AA0A16A88470420EEE7012332462C
:1045A00040F236712046FFF721FC054625B109A0EF
:1045B000A16A88470120E0E70020DEE76C6C6363B6
:1045C00036383A20636869702069732062757379A0
:1045D0002E0A00006C6C636336383A2072656164A1
:1045E000207265676973746572206661696C6564C1
:1045F0002E0A000070B504460E460CB9022070BDAC
:1046000094F83000012801D00320F8E72046FFF796
:1046100080FB054625B10AA0A16A88470420EEE781
:104620000123324640F6D8012046FFF7DFFB05465E
:1046300025B109A0A16A88470120E0E70020DEE754
:104640006C6C636336383A20636869702069732044
:10465000627573792E0A00006C6C636336383A20F9
:104660007265616420726567697374657220666142
:10467000696C65642E0A000070B504460E460CB9DC
:10468000022070BD94F83000012801D00320F8E723
:104690002046FFF73EFB054625B10AA0A16A8847E0
:1046A0000420EEE70123324640F689012046FFF759
:1046B0009DFB054625B109A0A16A88470120E0E7D6
:1046C0000020DEE76C6C636336383A2063686970FB
:1046D00020697320627573792E0A00006C6C636325
:1046E00036383A2072656164207265676973746553
:1046F00072206661696C65642E0A00001CB5044670
:104700000CB902201CBDA06A08B90320FAE7A06911
:1047100020B965A0A16A88470320F3E7E06920B9C2
:1047200068A0A16A88470320ECE7206A20B96DA041
:10473000A16A88470320E5E7206820B972A0A16A32
:1047400088470320DEE7606820B978A0A16A88471F
:104750000320D7E7A06820B97DA0A16A884703207D
:10476000D0E7E06820B983A0A16A88470320C9E7A1
:10477000206920B988A0A16A88470320C2E7606940
:1047800020B98EA0A16A88470320BBE7606A20B9E0
:1047900093A0A16A88470320B4E7E06A20B997A0F4
:1047A000A16A88470320ADE7A069804720B19CA09B
:1047B000A16A88470120A5E72068804730B1A1A001
:1047C000A16A8847E069804704209BE7E06880474A
:1047D00040B1A7A0A16A8847E06980476068804728
:1047E00005208FE70120A168884750B1ABA0A16ADE
:1047F0008847E069804760688047206980470620D5
:1048000080E70520616A88470020A168884750B189
:10481000A2A0A16A8847E069804760688047206954
:10482000804706206EE70A20616A88470120A16858
:10483000884750B199A0A16A8847E06980476068BD
:1048400080472069804706205CE70520616A884729
:10485000012301AAC0212046FFF77BFA50B196A0A0
:10486000A16A8847E069804760688047206980477F
:10487000062047E70020009001236A468021204659
:10488000FFF7F2FA50B193A0A16A8847E069804728
:104890006068804720698047062033E7012084F85C
:1048A000300000202EE700006C6C636336383A203D
:1048B0007370695F696E6974206973206E756C6CC2
:1048C0002E0A00006C6C636336383A207370695F9F
:1048D0006465696E6974206973206E756C6C2E0A4C
:1048E000000000006C6C636336383A207370695FB7
:1048F00077726974655F72656164206973206E7593
:104900006C6C2E0A000000006C6C636336383A2031
:1049100072657365745F6770696F5F696E69742033
:104920006973206E756C6C2E0A0000006C6C6363FA
:1049300036383A2072657365745F6770696F5F64BB
:1049400065696E6974206973206E756C6C2E0A003F
:104950006C6C636336383A2072657365745F677098
:10496000696F5F7772697465206973206E756C6C0E
:104970002E0A00006C6C636336383A2062757379D6
:104980005F6770696F5F696E6974206973206E7507
:104990006C6C2E0A000000006C6C636336383A20A1
:1049A000627573795F6770696F5F6465696E69745A
:1049B000206973206E756C6C2E0A00006C6C63634A
:1049C00036383A20627573795F6770696F5F726518
:1049D0006164206973206E756C6C2E0A0000000003
:1049E0006C6C636336383A2064656C61795F6D7313
:1049F000206973206E756C6C2E0A00006C6C63630A
:104A000036383A20726563656976655F63616C6C00
:104A10006261636B206973206E756C6C2E0A0000F6
:104A20006C6C636336383A2073706920696E697400
:104A300069616C697A6174696F6E206661696C6521
:104A4000642E0A006C6C636336383A2072657365B5
:104A500074206770696F20696E697469616C697A26
:104A60006174696F6E206661696C65642E0A00006E
:104A70006C6C636336383A206275737920677069AD
:104A80006F20696E697469616C697A6174696F6EAF
:104A9000206661696C65642E0A0000006C6C6363BB
:104AA00036383A20726573657420636869702066D1
:104AB00061696C65642E0A006C6C636336383A2059
:104AC00067657420737461747573206661696C65C1
:104AD000642E0A006C6C636336383A207365742068
:104AE0007374616E646279206661696C65642E0A14
:104AF00000000000002070470020704710B50446F9
:104B000004210348FCF706FA2070002010BD0000C5
:104B1000001801400FB408B503A80090009902984E
:104B2000FEF750FC0020009001B05DF814FB10B5BA
:104B300004462046FBF790FF10BD000070B5044608
:104B40000D461646202C2CD00CDC042C1DD004DC89
:104B5000012C12D0022C38D113E0082C19D0102CC3
:104B600033D11AE0402C20D0802C22D0B4F5807FA5
:104B700023D0B4F5007F28D123E017A0FFF7CAFFA8
:104B800027E01BA0FFF7C6FF23E01FA0FFF7C2FF2F
:104B90001FE025A0FFF7BEFF1BE02DA0FFF7BAFF27
:104BA00017E032A0FFF7B6FF13E037A0FFF7B2FF20
:104BB0000FE03BA0FFF7AEFF0BE03FA0FFF7AAFF1F
:104BC00007E044A0FFF7A6FF03E048A0FFF7A2FF1D
:104BD00000BF00BF70BD00006C6C636336383A20C4
:104BE00069727120747820646F6E652E0A0000006F
:104BF0006C6C636336383A20697271207278206475
:104C00006F6E652E0A0000006C6C636336383A20C4
:104C100069727120707265616D626C652064657483
:104C200065637465642E0A006C6C636336383A20E1
:104C30006972712076616C69642073796E63207784
:104C40006F72642064657465637465642E0A000085
:104C50006C6C636336383A206972712076616C69D6
:104C600064206865616465722E0A00006C6C636381
:104C700036383A2069727120686561646572206512
:104C800072726F722E0A00006C6C636336383A20C1
:104C900069727120637263206572726F722E0A00EE
:104CA0006C6C636336383A206972712063616420EA
:104CB000646F6E652E0A00006C6C636336383A20B0
:104CC00069727120636164206465746563746564EE
:104CD0002E0A00006C6C636336383A2069727120CA
:104CE00074696D656F75742E0A0000006C6C6363E7
:104CF00036383A20756E6B6E6F776E20636F646521
:104D00002E0A0000002070470020704710B50446AE
:104D100034B900224FF400510548FCF703F904E0D0
:104D2000012251030248FCF7FDF8002010BD0000ED
:104D30000020014010B50448FCF718FD04460CB1F2
:104D4000012010BD0020FCE7280300200020704750
:104D50002DE9F04106460C4617461D4600224FF449
:104D600080411948FCF7DEF89CB1A2B24FF47A7387
:104D700031461648FCF7DDFE8046B8F1000F07D03B
:104D8000012291031048FCF7CDF80120BDE8F08125
:104D900000BF95B1AAB24FF47A7339460B48FCF7BD
:104DA00007FE8046B8F1000F06D0012291030648A5
:104DB000FCF7B8F80120E9E700BF0122910302489F
:104DC000FCF7B0F80020E1E70020014028030020B4
:104DD0002DE9FE43044614B90220BDE8FE8394F891
:104DE0003000012801D00320F7E7002002900323C0
:104DF00002AA12212046FEF7ACFF064626B17AA091
:104E0000A16A88470120E8E79DF80A009DF809108B
:104E100040EA012502230DF1090219462046FFF759
:104E200023F8064626B178A0A16A88470120D4E776
:104E3000002084F8340005F0040030B1E06A20B1AD
:104E4000002211460420E36A984705F0080030B1BB
:104E5000E06A20B1002211460820E36A984705F075
:104E6000100030B1E06A20B1002211461020E36A40
:104E7000984705F0200030B1E06A20B100221146C9
:104E80002020E36A984705F0400048B1E06A20B16D
:104E9000002211464020E36A9847012084F834003C
:104EA00005F0800048B1E06A20B100221146802060
:104EB000E36A9847012084F8320005F4807050B10D
:104EC000E06A28B1002211464FF48070E36A9847E7
:104ED000012084F8330005F4007000283CD0002045
:104EE0000190012301AA4FF412612046FEF7F4FF5E
:104EF000064626B14DA0A16A884701206DE701232F
:104F00006A4640F644112046FEF770FF064626B179
:104F10004EA0A16A884701205FE79DF8000040F09D
:104F20000200009001236A4640F644112046FEF735
:104F3000D3FF064626B13DA0A16A884701204CE771
:104F4000E06A28B1002211464FF40070E36A9847E6
:104F5000012084F8350000BF05F0010048B1E06A87
:104F600020B1002211460120E36A9847012084F80D
:104F7000310005F00200002834D000200290032305
:104F800002AA13212046FEF7E4FE064626B137A00A
:104F9000A16A8847012020E79DF809709DF80A80E2
:104FA0003B4604F5DB7241462046FEF7E5FE064629
:104FB00026B138A0A16A884701200EE7E06A80B1D7
:104FC00094F8340040B984F8B6723A4604F5DB71BF
:104FD0000220E36A984704E0002211460220E36AB7
:104FE000984700BF0020F8E66C6C636336383A20BF
:104FF00067657420697271207374617475732066BB
:1050000061696C65642E0A006C6C636336383A2003
:10501000636C656172206972712073746174757359
:10502000206661696C65642E0A0000006C6C636325
:1050300036383A20777269746520726567697374CF
:105040006572206661696C65642E0A006C6C63632E
:1050500036383A20726561642072656769737465D9
:1050600072206661696C65642E0A00006C6C636373
:1050700036383A20676574207278206275666665F6
:105080007220737461747573206661696C65642E37
:105090000A0000006C6C636336383A207265616404
:1050A00020627566666572206661696C65642E0AA9
:1050B000000000002DE9FC4104460E4617469846C4
:1050C00014B90220BDE8FC8194F83000012801D019
:1050D0000320F7E72046FEF71CFE054625B114A085
:1050E000A16A88470420EDE7300A8DF80000F0B28D
:1050F0008DF80100380A8DF80200F8B28DF803002F
:105100004FEA18208DF8040008F0FF008DF8050024
:1051100006236A4600212046FEF7A6FE054625B175
:1051200009A0A16A88470120CCE70020CAE7000057
:105130006C6C636336383A20636869702069732049
:10514000627573792E0A00006C6C636336383A20FE
:105150007265736574207374617473206661696C21
:1051600065642E0A00000000F8B504460E46174696
:105170000CB90220F8BD94F83000012801D00320BA
:10518000F8E72046FEF7C5FD054625B10BA0A16A4C
:1051900088470420EEE78DF800608DF80170022347
:1051A0006A468F212046FEF75FFE054625B109A01D
:1051B000A16A88470120DDE70020DBE76C6C6363B0
:1051C00036383A2063686970206973206275737994
:1051D0002E0A00006C6C636336383A2073657420C5
:1051E00062756666657220626173652061646472CF
:1051F000657373206661696C65642E0A00000000A7
:105200002DE9FC4704460E4617469846DDF82890DF
:1052100014B90220BDE8FC8794F83000012801D0C1
:105220000320F7E72046FEF774FD054625B118A0D8
:10523000A16A88470420EDE7300A8DF80000F0B23B
:105240008DF80100380A8DF80200F8B28DF80300DD
:105250004FEA18208DF8040008F0FF008DF80500D3
:105260004FEA19208DF8060009F0FF008DF80700BD
:1052700008236A4619462046FEF7F6FD054625B185
:1052800009A0A16A88470120C4E70020C2E7000006
:105290006C6C636336383A206368697020697320E8
:1052A000627573792E0A00006C6C636336383A209D
:1052B0007365742064696F20697271207061726116
:1052C0006D73206661696C65642E0A0073B50446CF
:1052D0000CB902207CBD94F83000012801D00320D5
:1052E000F8E72046FEF715FD054625B10AA0A16A9C
:1052F00088470420EEE7012301AA40F236712046D8
:10530000FEF7EAFD054625B109A0A16A88470120FC
:10531000E0E70020DEE700006C6C636336383A207B
:105320006368697020697320627573792E0A0000C2
:105330006C6C636336383A207772697465207265E5
:10534000676973746572206661696C65642E0A0012
:105350002DE9F84304460E4617469846DDF820909E
:1053600014B90220BDE8F88394F83000012801D078
:105370000320F7E72046FEF7CCFC054625B10EA03A
:10538000A16A88470420EDE78DF800608DF8017070
:105390008DF802808DF8039004236A468B21204605
:1053A000FEF762FD054625B109A0A16A88470120E4
:1053B000D8E70020D6E700006C6C636336383A20EB
:1053C0006368697020697320627573792E0A000022
:1053D0006C6C636336383A20736574206C6F72614D
:1053E000206D6F64756C6174696F6E20706172619D
:1053F0006D73206661696C65642E0A002DE9FC47B7
:1054000004460E4617469846DDE90A9A14B902206A
:10541000BDE8FC8794F83000012801D00320F7E7AD
:105420002046FEF776FC054625B111A0A16A884703
:105430000420EDE7300A8DF80000F0B28DF801008D
:105440008DF802708DF803808DF804908DF805A01A
:1054500006236A468C212046FEF706FD054625B147
:1054600009A0A16A88470120D2E70020D0E7000008
:105470006C6C636336383A20636869702069732006
:10548000627573792E0A00006C6C636336383A20BB
:10549000736574206C6F7261206D6F64756C6174DC
:1054A000696F6E20706172616D73206661696C65F1
:1054B000642E0A00F8B504460E460CB90220F8BD69
:1054C00094F83000012801D00320F8E72046FEF7C9
:1054D00020FC054625B10AA0A16A88470420EEE712
:1054E000009601236A46A0212046FEF7BDFC054632
:1054F00025B109A0A16A88470120E0E70020DEE786
:105500006C6C636336383A20636869702069732075
:10551000627573792E0A00006C6C636336383A202A
:10552000736574206C6F72612073796D62206E7583
:105530006D2074696D656F7574206661696C656452
:105540002E0A0000F8B504460E460CB90220F8BD3C
:1055500094F83000012801D00320F8E72046FEF738
:10556000D8FB054625B10DA0A16A88470420EEE7C7
:10557000300A8DF80000F0B28DF8010002236A466F
:105580004FF4E8612046FEF7A7FC054625B109A0C7
:10559000A16A88470120DAE70020D8E76C6C6363D2
:1055A00036383A20636869702069732062757379B0
:1055B0002E0A00006C6C636336383A207772697487
:1055C00065207265676973746572206661696C65D0
:1055D000642E0A0073B504460CB902207CBD94F811
:1055E0003000012801D00320F8E72046FEF791FBA8
:1055F000054625B10AA0A16A88470420EEE70123E9
:1056000001AA40F6E7012046FEF766FC054625B1F3
:1056100009A0A16A88470120E0E70020DEE700003A
:105620006C6C636336383A20636869702069732054
:10563000627573792E0A00006C6C636336383A2009
:105640007772697465207265676973746572206624
:1056500061696C65642E0A00F8B504460E4617466B
:105660000CB90220F8BD94F83000012801D00320C5
:10567000F8E72046FEF74DFB054625B10EA0A16ACE
:1056800088470420EEE78DF800608DF80170002057
:105690008DF8020001208DF8030004236A4695214D
:1056A0002046FEF7E1FB054625B109A0A16A88471F
:1056B0000120D7E70020D5E76C6C636336383A20C9
:1056C0006368697020697320627573792E0A00001F
:1056D0006C6C636336383A207365742070612063A4
:1056E0006F6E666967206661696C65642E0A0000EA
:1056F000F8B504460E460CB90220F8BD94F8300007
:10570000012801D00320F8E72046FEF702FB0546FA
:1057100025B10AA0A16A88470420EEE7009601237C
:105720006A468A212046FEF79FFB054625B109A05F
:10573000A16A88470120E0E70020DEE76C6C636324
:1057400036383A206368697020697320627573790E
:105750002E0A00006C6C636336383A20736574203F
:105760007061636B65742074797065206661696C23
:1057700065642E0A00000000F8B504460E460CB918
:105780000220F8BD94F83000012801D00320F8E78A
:105790002046FEF7BEFA054625B10AA0A16A884751
:1057A0000420EEE7009601236A4696212046FEF784
:1057B0005BFB054625B109A0A16A88470120E0E707
:1057C0000020DEE76C6C636336383A2063686970EA
:1057D00020697320627573792E0A00006C6C636314
:1057E00036383A2073657420726567756C61746F22
:1057F00072206D6F6465206661696C65642E0A00B5
:10580000F8B504460D460CB90220F8BD94F83000F6
:10581000012801D00320F8E72046FEF77AFA064671
:1058200026B110A0A16A88470420EEE7280E8DF863
:105830000000280C8DF80100280A8DF80200E8B25B
:105840008DF8030004236A4686212046FEF70CFBF0
:10585000064626B109A0A16A88470120D5E70020A5
:10586000D3E700006C6C636336383A206368697074
:1058700020697320627573792E0A00006C6C636373
:1058800036383A20736574207266206672657175C9
:10589000656E6379206661696C65642E0A0000009C
:1058A00073B504460CB902207CBD94F83000012881
:1058B00001D00320F8E72046FEF72BFA054625B174
:1058C0000AA0A16A88470420EEE7012301AA40F656
:1058D000AC012046FEF700FB054625B109A0A16AF0
:1058E00088470120E0E70020DEE700006C6C63637E
:1058F00036383A206368697020697320627573795D
:105900002E0A00006C6C636336383A207772697433
:1059100065207265676973746572206661696C657C
:10592000642E0A00F8B504460E460CB90220F8BDF4
:1059300094F83000012801D00320F8E72046FEF754
:10594000E8F9054625B10AA0A16A88470420EEE7D8
:10595000009601236A4693212046FEF785FA054604
:1059600025B109A0A16A88470120E0E70020DEE711
:105970006C6C636336383A20636869702069732001
:10598000627573792E0A00006C6C636336383A20B6
:105990007365742072782074782066616C6C626123
:1059A000636B206D6F6465206661696C65642E0AA7
:1059B00000000000F8B504460E460CB90220F8BD00
:1059C00094F83000012801D00320F8E72046FEF7C4
:1059D000A0F9054625B10AA0A16A88470420EEE790
:1059E000009601236A4680212046FEF73DFA0546CF
:1059F00025B109A0A16A88470120E0E70020DEE781
:105A00006C6C636336383A20636869702069732070
:105A1000627573792E0A00006C6C636336383A2025
:105A2000736574207374616E646279206661696C59
:105A300065642E0A00000000F8B504460E460CB955
:105A40000220F8BD94F83000012801D00320F8E7C7
:105A50002046FEF75EF9054625B10AA0A16A8847EF
:105A60000420EEE7009601236A469F212046FEF7B8
:105A7000FBF9054625B109A0A16A88470120E0E7A6
:105A80000020DEE76C6C636336383A206368697027
:105A900020697320627573792E0A00006C6C636351
:105AA00036383A207365742073746F702074696D92
:105AB0006572206F6E20707265616D626C65206624
:105AC00061696C65642E0A0073B504460CB9022046
:105AD0007CBD94F83000012801D00320F8E720466F
