:020000040800F2
:10000000E01E002005010008A555000881400008F9
:10001000A1550008291A0008A95C0008000000008A
:10002000000000000000000000000000215A00084D
:10003000091B000800000000A9550008235A000809
:100040001F0100081F0100081F0100081F01000810
:100050001F0100081F0100081F0100081F01000800
:100060001F0100081F0100081F0100081F010008F0
:100070001F0100081F0100081F0100081F010008E0
:100080001F0100081F0100081F0100081F010008D0
:100090001F0100081F0100081F0100081F010008C0
:1000A0001F0100081F0100081F0100081F010008B0
:1000B0001F0100081F0100081F0100081F010008A0
:1000C0001F0100081F0100081F0100081F01000890
:1000D0001F0100081F0100081F0100081F01000880
:1000E0001F0100081F0100081F010008DFF810D0E1
:1000F00001F09EF800480047458C0008AFF30080EF
:10010000E01E00200648804706480047FEE7FEE75D
:10011000FEE7FEE7FEE7FEE7FEE7FEE7FEE7FEE7B7
:10012000B35A0008ED000008202A04DB203A21FA27
:1001300002F00021704721FA02F3D040C2F1200200
:10014000914008431946704738B5D0E90221491E4D
:1001500001EB410102EBC1014268C1EB011102EB6D
:1001600081010268C1EB011102EB8102D0E9043187
:1001700001EB410103EB81013023A1F5527191FBA9
:10018000F3F4174D6C4302EBC41291FBF3F403FB41
:10019000141100921A2902DB124B1A4400920C220D
:1001A00091FBF2F3104C6343009C04EBC3130093E8
:1001B00091FBF2F302FB13110C4A08E0491E40F2D6
:1001C000A324535C6343009C04EBC31300930029F6
:1001D000F4DC0146684600F039FE009838BD0000A6
:1001E0003F0C0F008051010067C20300809B000894
:1001F00040EA01039B0703D009E008C9121F08C0A9
:10020000042AFAD203E011F8013B00F8013B521E28
:10021000F9D27047D2B201E000F8012B491EFBD29F
:1002200070470022F6E710B513460A460446194601
:10023000FFF7F0FF204610BD30B505462A460B46B5
:1002400012F8010B13F8014B08B1A042F8D01CB111
:10025000002802D06D1CF1E7284630BD421C10F882
:10026000011B0029FBD1801A7047034611F8012BAE
:1002700000F8012B002AF9D1184670470FB400B5D9
:100280008DB010A909900B9000914FF0FF300A90AB
:1002900000200C9005480690054807906A4609A87A
:1002A0000F9900F02DFE0DB05DF814FB1D0F000836
:1002B0003B0F00082DE9FF5F1D464FF0FF3BD5E9DE
:1002C000014691465F464FF00008A9697F1C0198DE
:1002D0008847296A824688470028F6D1BAF1FF3F4D
:1002E0000CD024F4C064002E19DD600614D5BAF1D8
:1002F0002B0F09D0BAF12D0F0ED103E0584604B0F0
:10030000BDE8F09F44F48064A9697F1C0198884788
:10031000761E8246002E02DDBAF1300F03D0B9F10D
:10032000000F26D032E0A969761E44F400747F1CC9
:10033000019888478246002E05DDBAF1780F06D075
:10034000BAF1580F03D0B9F1000F10D01EE0B9F187
:10035000000F02D0B9F1100F18D1A969761E24F44C
:1003600000747F1C019888478246102002E0082014
:1003700000E00A20814609E008FB0908A969761E09
:1003800044F400747F1C019888478246002E05DDE6
:100390004946504600F0A0FD0028EDDAE9690198D1
:1003A0008847A00502D46FF00100A8E7E00725D137
:1003B000600613D5600502D5C8F1000000E0404694
:1003C00029680A1D2A600968220501D5087015E010
:1003D000220701D5088011E008600FE02868011DA0
:1003E00029600068210502D580F8008006E0210719
:1003F00002D5A0F8008001E0C0F8008038467EE712
:100400002DE9FF5FD2E901A74FF0000891699946F5
:100410001446DDF838B0464601988847054659EA43
:100420000B0005D009E0A169761C019888470546B4
:10043000216A284688470028F5D1681C03D05FEA66
:10044000CA7005D015E04FF0FF3004B0BDE8F09F52
:100450002068011D2160D0F800800AE05FEACA70C0
:1004600001D108F8015BA169761C7F1E01988847BD
:100470000546002F1ADD681C18D0B9F1000F0DD009
:10048000E81705EBD060421120F01F0059F8221048
:100490002A1A012090400142E0D107E0BBF1000F91
:1004A000DCD1216A284688470028D7D0E169019825
:1004B0008847BBF1000F07D1002E05DD5FEACA7047
:1004C00002D1002188F80010A068B84203DDBBF11A
:1004D000000F03D017B16FF00100B6E73046B4E764
:1004E0002DE9FF4F087883B09946FF2805D0491CB5
:1004F0002D2804D00024002008E000200BE0012477
:10050000F9E700EB800003EB4000491C0B78FF2B60
:10051000F7D104B1404200230293147819461D46D6
:100520002D2C01D02B2C04D1521C2D2C13D00024A7
:100530000294AA461478FF2C0FD00A25A3FB057855
:1005400001FB05814FF0000C03FB0C11521CE31959
:100550004AEB0101EEE70124EAE7814453EA010096
:1005600002D019F5C87F06DA03980021C0E900110E
:1005700007B0BDE8F08F0025AE4E2F46DFF8B882F9
:10058000184600F0ECFDCDE90001B9F1000002DAF7
:10059000C9F1000400E004460023A74A1AEB030B4C
:1005A00042EB045A12E0E00707D02A4633463846A9
:1005B000414600F05CFA074688462A463346104614
:1005C000194600F054FA05460E466410002CEAD194
:1005D000DDE90001B9F1000F5A46534606DA00F092
:1005E000B8FA3A46434600F0B4FA05E000F03FFAA4
:1005F0003A46434600F03BFA029A0AB181F00041C4
:10060000039AC2E90001B3E72DE9FF4F1F468DB001
:10061000D7E901464FF0FF382E2045464FF000093C
:100620000B90B9696D1C0E988847396A82468847D5
:100630000028F6D1BAF1FF3F0AD024F4D064002E8E
:1006400011DDBAF12B0F08D0BAF12D0F0BD102E05A
:10065000404611B08DE744F48064B9696D1C0E9872
:1006600088478246761E6946600501D52D2000E048
:100670002B208DF8000001F1010B0DF1200809E09D
:10068000B9696D1C0E98884782460F9844F400742F
:10069000761E0560002E02DDBAF1300FF0D00B9906
:1006A0008A453ED144F0800406E00F99681CA9F108
:1006B000010944F400740860B9696D1C761E0E9837
:1006C000884782463028F0D02BE00B998A4505D127
:1006D000200603D444F08004761E18E0504605F04E
:1006E00073FC08B30DF11301761E44F400748B45BE
:1006F00008D2AAF130000BF8010B200607D5A9F1AA
:10070000010003E0200602D409F101008146A005A2
:1007100002D50F99681C0860B9696D1C0E9888474E
:100720008246002ED1DC53E0002E51DDBAF1650F78
:1007300002D0BAF1450F4BD1A00549D5B9696D1C5E
:1007400024F44074761E0E9888478246002E0CDDF5
:100750002B2804D0BAF12D0F07D144F48074B96965
:100760006D1C0E9888478246761EE00501D52D2126
:1007700000E02B2108F8011BCDF82C8021E00DF1C1
:100780002901761E44F4007488450CD2AAF1300089
:1007900010F0FF0088F8000002D10B99884509D9B4
:1007A00008F1010806E0E00501D5244801E042F225
:1007B0000F708146B9696D1C0E98884782460F9864
:1007C0000560002E04DD504605F0FEFB0028D6D162
:1007D000F9690E988847FF208BF8000088F8000020
:1007E0000020069007904B466A4608A906A8FFF726
:1007F00077FEA00502D46FF001002AE714F0240F61
:100800000AD0E00714D1DDE906123868031D3B6009
:100810000068C0E900120BE0DDE9060100F0E9FC28
:100820000146E00704D13868021D3A6000680160A3
:1008300028460EE7000014400000F03FF1D8FFFF0B
:1008400080EA010210B502F00043400022D04A00C5
:100850001FD0010E01EB1261C0F35600C2F3560225
:1008600040F4000042F40002A0FB022000047F39A3
:10087000140400D0401C50EA124001D44000491E2C
:10088000C2B20C0604EBD010401C4008802A02D0F3
:1008900003E0002010BD20F00100002900DA002054
:1008A000184310BD30B480EA010202F0004530F078
:1008B000004221F0004013D090B1C30DD40DC2F31B
:1008C0001601C0F31600E41A41F4000140F40002DE
:1008D0007D34914201D3641C00E04900002C02DA0F
:1008E00030BC002070474FF400000023914201D338
:1008F000891A034340084FEA4101F7D151B19142AF
:1009000002D14FF0004105E002D24FF0010101E0B9
:100910006FF0010103EBC450284430BC00F01EBB53
:100920002DE9FE4F804681EA0300C00F0C4600907F
:1009300021F0004123F00045B8EB0200A94105D2A7
:100940004046214690461C460B46024623F0004096
:10095000104347D0270DC7F30A00C3F30A51029092
:10096000401A019040286BDAC3F3130040F4801B57
:100970000098924620B10023D2EB030A63EB0B0BE5
:1009800001985946C0F14002504600F038FA064638
:100990000D4650465946019A00F040FA10EB080007
:1009A0006141002487EA115284EAE7731A4340D078
:1009B000009A62B3019A012A4FEA075215DC001B24
:1009C00061EB02014FF0004202EA0752CDE900421A
:1009D000001C41F5801132462B4600F069FB03B044
:1009E000BDE8F08F40462146F9E7001B61EB0201AC
:1009F000001C41F5801300185B412018A2F5001778
:100A000047EB030140EAD570B6196D4111E06D085E
:100A10004FEA360645EAC0754FEA0752001B61EB04
:100A20000201001C41F5801149084FEA300000190D
:100A3000514132462B4603B0BDE8F04F00F029BBD0
:100A40000098012240000023D0EB020263EBE07328
:100A5000009821464FEAE074B8EB000061EB040116
:100A6000E9E783F000435BE781F0004158E72DE9B7
:100A7000FE4F81EA030404F0004421F00041009499
:100A80004FF0000B23F0004350EA01045ED052EA1D
:100A900003045BD0C3F30A54C1F30A552C44A4F2F7
:100AA000F3340194A0FB0254C1F3130141F480110B
:100AB000C3F3130343F4801301FB024400FB034E12
:100AC000840A970A44EA815447EA8357A4FB0768DB
:100AD00002958D0A05FB07854FEA932C04FB0C5405
:100AE0002705029D4FEA065847EA1637B5EB080579
:100AF0006EEB070C870E920E47EA811742EA8312CB
:100B0000A7FB0201B6EB0B0164EB00042B0D43EADB
:100B10000C335E1844EB1C50DA465146E7FB0201E9
:100B2000C5F313044FEA0B3343EA14534FEA04327C
:100B3000019C43EA0603A4F10C040294009CCDE955
:100B400000B400F0B5FA03B0BDE8F08F0020014614
:100B5000F9E72DE9F04D81EA030404F0004B21F0A0
:100B6000004514464FF0000A23F0004150EA050208
:100B700020D054EA01021DD0C5F30A570246C5F33E
:100B80001303C1F31300C1F30A5640F4801543F474
:100B90008013A7EB0608101BD64608F2FD3873EB4E
:100BA000050002D308F1010801E092185B41B8F199
:100BB000000F03DA00200146BDE8F08D00204FF45D
:100BC0008011064684460EE0171B73EB050705D31C
:100BD000121B63EB050306434CEA010C49084FEA7C
:100BE000300092185B4150EA0107EDD152EA030050
:100BF00012D082EA040083EA0501084305D0101BE5
:100C0000AB4106D20122002306E000224FF0004350
:100C100002E06FF0010253101AEB06004CEB085192
:100C200010EB0A0041EB0B01BDE8F04D00F031BACA
:100C300096230022114600F09AB90EB5C10F80EA42
:100C4000E0700844CA07002140F233438DE80E00EB
:100C50000A460B4600F02CFA03B000BD0EB540F278
:100C6000334102910021CDE900110A460B4600F004
:100C70001FFA03B000BD20F00040C10DC0F3160004
:100C800040F400007F2901DA00207047962903DC38
:100C9000C1F19601C840704796398840704770B5D9
:100CA000C1F30A5201F000450024C1F3130140F2E0
:100CB000FF3341F480119A4201DA002070BD40F206
:100CC00033439A42A2F2334203DC5242FFF72CFA3A
:100CD00000E090402C43F1D0404270BDC1F30A5275
:100CE00010B5C1F3130140F2FF3341F480119A4271
:100CF00001DA002010BD40F233439A42A2F233429F
:100D000003DC5242FFF710FA10BD904010BD000006
:100D100030B5041E71F1000404DB4FF00044404282
:100D200064EB0101141E73F1000405DB1C464FF057
:100D30000043524263EB04038B4208BF824230BD42
:100D400030B5041E71F1000404DB4FF00044404252
:100D500064EB0101141E73F1000405DB1C464FF027
:100D60000043524263EB0403994208BF904230BDF6
:100D700030B50B46014600202022012409E021FA6B
:100D800002F59D4205D303FA02F5491B04FA02F568
:100D90002844151EA2F10102F1DC30BD2DE9F05FFF
:100DA0000546002092469B468846064681464024DA
:100DB0001BE02846414647462246FFF7B5F9534611
:100DC0005A46C01A914110D311461846224600F0E7
:100DD00016F82D1A67EB01084F4622460120002124
:100DE00000F00DF817EB00094E41201EA4F101049C
:100DF000DFDC484631462A464346BDE8F09F202ABC
:100E000004DB203A00FA02F1002070479140C2F161
:100E1000200320FA03F3194390407047202A06DB91
:100E2000CB17203A41FA02F043EAE07306E041FAB8
:100E300002F3D040C2F120029140084319467047A6
:100E4000014900F003B80000B00E002010B50068A2
:100E50003C22B0FBF2F302FB1303B0FBF2F00B6099
:100E6000B0FBF2F302FB1303B0FBF2F018224B606D
:100E7000B0FBF2F302FB1303B0FBF2F0021D8B6038
:100E80000723B2FBF3F403FB1422800040F2B553B6
:100E900000F66C308A61B0FBF3F2B0FBF3F403FBB5
:100EA0001400443280084A61C8613B2802D392078B
:100EB00000D0401C0022074C13460A61E25C8242CB
:100EC00003D8801A5B1C0B61F8E7401CC860084619
:100ED00010BD00008C9B00083A2800D2303820F06A
:100EE0002002412A01D3A2F13700884201D34FF0FA
:100EF000FF3070470268114413780160184670474C
:100F0000D160044951610449116200211161114607
:100F100000F0A6B9F50E000855120008426842B16B
:100F2000016811F8013B23B1521EC0E900121846B6
:100F300070470121C160881E704742685AB1C3687A
:100F4000016843B983688B4205D0491E521CC0E931
:100F50000012002070474FF0FF3070470029A8BFF3
:100F60007047401C490008BF20F00100704710B4D2
:100F7000B0FA80FC00FA0CF050EA010404BF10BC87
:100F8000704749B1CCF1200421FA04F411FA0CF1B4
:100F900018BF012121430843A3EB0C01CB1D4FEAED
:100FA00000614FEA102042BF002010BC704700EBE8
:100FB000C35010440029A4BF10BC7047401C490016
:100FC00008BF20F0010010BC7047F0B480EA0102B5
:100FD000D40F4200B2EB410F02D20246084611463E
:100FE0004A0042D0C30DDDB2C1F3C752AD1A202D65
:100FF00035DAC1F3160141F4000204B15242C5F1E1
:10100000200602FA06F12A411044B3EBD05F23D048
:10101000C4B1012DA0EBC35009DCF0BC4FF000427D
:1010200002EAC352DBB200F50000FFF7A0BF4000A8
:1010300000F1807000EBC350A0F1807040EAD170E5
:10104000490009E0490841EAC071A0EBC35000F52E
:101050000000400800EBC350F0BCFFF77FBF6142C7
:10106000012202EB4101001BF6E7F0BC704781F062
:101070000041AAE780F00040A7E7420005D0C0F396
:10108000C7525242914201DC0020704700EBC15030
:10109000704710B5141E73F1000408DA401C41F1CA
:1010A000000192185B411A4301D120F0010010BDEC
:1010B0002DE9F04D92469B4611B1B1FA81F202E062
:1010C000B0FA80F220329046FFF799FE04460F46B0
:1010D00040EA0A0041EA0B0153465A46084313D03E
:1010E000114653EA010019D0C8F140025046FFF7FB
:1010F0001BF805460E46504659464246FFF77FFE0E
:10110000084305D0012004E020463946BDE8F08DB3
:101110000020054346EAE0762C4337430A986305EE
:10112000E40AA0EB08000022FD0A44EA47540A3012
:1011300002D500200146E9E7010510196941DDE902
:10114000084500196941BDE8F04DA2E7C10F80EAEA
:10115000E0700844CA0796230021FFF708BF0EB5C8
:1011600040F2334202920022CDE900221346FFF7FB
:101170009FFF03B000BDC1F30A52C1F3130140F257
:10118000FF3341F480119A4202DA00200146704791
:1011900040F233439A42A2F2334202DC5242FEF75B
:1011A000C3BFFFF72CBE10B500F0004420F0004094
:1011B000C20DC0F3160040F400007F2A07DA7D2A32
:1011C00000DA7D22763A00FA02F1002008E0962A41
:1011D00009DCA2F1760100FA01F1C2F19602D040D9
:1011E000FFF7BCFE01E0963A9040002C00D0404250
:1011F00010BD01F0004330B421F0004150EA01027B
:1012000006D00A0DA2F56072C1F31301002A02DCB8
:1012100030BC00207047440F44EAC104C100E0180C
:1012200030BC00EBC250FFF799BE002070470000B1
:10123000064C074D06E0E06840F0010394E8070023
:1012400098471034AC42F6D3FEF754FFD89B000801
:10125000F89B0008C0B24FF4F05100F099B90000BB
:101260002DE9F34F8BB04FF0000801F10C000C4654
:101270004FF0010B46460DF1080A01906269012109
:1012800001989047051E2DD0252D2CD0216A884726
:10129000C0B16269012101989047216A88470028FE
:1012A000F7D1411E62690198904700E0761CA16960
:1012B0000B988847216A88470028F7D1E1690B9885
:1012C0008847DBE7A1690B9888470746A84201D108
:1012D000761CD3E7E1690B9888477F1C02D1B8F1EF
:1012E000000F6FD047E1002762693D4639460198FB
:1012F00090472A2804D1626901210198904701256D
:10130000DFF888926269012101989047A0F13001CD
:101310000A290AD24F45E5DC07EB870100EB4107BC
:10132000303FDFD445F01005ECE7E90601D46FF05B
:1013300000476C280AD04C2814D0682815D06A2899
:101340000DD074281CD07A281AD01DE062690121C2
:10135000019890476C2802D045F0040514E045F050
:1013600002050DE045F020050AE0626901210198BF
:101370009047682802D045F0080505E045F400656F
:101380006269012101989047C4E9015765283DD061
:1013900019DC58287AD00CDC452837D004DC252805
:1013A00026D0412831D131E046282FD047282CD1F2
:1013B0002CE05B2877D0612828D063287CD0642873
:1013C00023D15AE0D1E06F2848D008DC66281DD030
:1013D00067281BD0692821D06E2816D127E07028F5
:1013E00045D0732868D0752847D078280DD14DE0B6
:1013F000A1690B988847054625283FF469AFE16944
:101400000B9888476D1C3FF46AAFB4E023466A46E8
:101410006FF001000B99FFF7F7F89FE045F04000EF
:101420006060A80723464FF0000236D43EE0E8078C
:101430007FF447AF2068011D21600068290501D5B0
:1014400006701BE7290701D5068017E7A90703D512
:10145000F117C0E9006111E706600FE745F04000B1
:101460006060A80723464FF0080216D41EE040F63D
:101470000E0125EA0100606016E045F04000606062
:10148000A80723464FF00A0207D40FE045F04000BA
:101490006060A80708D5234610226FF001000B9961
:1014A000AFF300805AE007E0234610226FF00100FE
:1014B0000B99FEF7FFFE51E04FF000094F464B46F7
:1014C000632802D05B2807D041E02079C00601D410
:1014D0000120A06001273AE062690121019890474C
:1014E0005E2805D14FF0010962694946019890478D
:1014F000216939B900210A46534643F82120491C85
:101500000829FADBB0B3216969B9C11700EBD162D0
:1015100053110AEB830122F01F02821A01200B688B
:10152000904003430B6062690121019890475D2858
:10153000E8D1B9F1000F09D00020514651F8202020
:10154000D24341F82020401C0828F7DB02AB22469A
:1015500000976FF001000B99FEF752FF00280CDA9C
:10156000401C08D1BBF1000F05D04FF0FF300DB08B
:10157000BDE8F08FFFE74046F9E7E90701D108F140
:10158000010806444FF0000B78E60000CCCCCC0CF0
:101590007F2801D9002208E0064A02EB5002C0076A
:1015A000127800D1120902F00F0201209040084089
:1015B00070470000989B000870B58C1810F8015B0C
:1015C00015F0070301D110F8013B2A1106D110F8DC
:1015D000012B03E010F8016B01F8016B5B1EF9D1E0
:1015E0002B0705D40023521E0DD401F8013BFAE766
:1015F00010F8013BCB1A921C03E013F8015B01F8D1
:10160000015B521EF9D5A142D8D3002070BD000065
:101610000EB502F0FFFF03F0D5FC002202A913482B
:1016200001F0B0FD9DF808008DF800009DF809005C
:101630008DF801009DF80A001430C0B28DF8020048
:1016400000226946094801F09FFE0948006840F001
:101650000400074908600846006840F00800086078
:10166000642000F055FA01F00DF90EBD480300208A
:101670000070004010B502F0D7FF03F0B1FC10BDC0
:101680002DE9F84300F096FC044600F099FC05466D
:1016900000F09CFC80462B4642462AA12D4800942F
:1016A00004F004FB05F03EFA07462A4A2AA1384610
:1016B00005F0ECF92748D0E90E43224628A1384628
:1016C00005F0C6F92348D0E90A43224625A1384649
:1016D00005F0BEF91F4A403223A1384605F0D6F97D
:1016E0001C4A303222A1384605F0D0F9194A42325C
:1016F00021A1384605F0CAF91649886DFFF7AEFA00
:10170000044622460B461FA1384605F0A1F938468B
:1017100005F06CFA06463046FEF7A0FD00B20D4912
:10172000A1F85C020846B0F95C2231465C30FEF755
:101730005FFD384605F01CFA304605F061FABDE859
:10174000F88300002530385825303858253038586F
:1017500000000000500C0020757569640000000056
:101760006C6174006C6F6E006C617444697200008F
:101770006C6F6E44697200006461746554696D65D4
:101780000000000073746570436F756E7400000094
:101790002DE9F04F95B002F053FF0020149017E0B0
:1017A00002F062FF60480088002811DD00200990E7
:1017B0005EA16048FEF740FD149009AA5EA114984E
:1017C000FEF75CFD9DF82400412800D101E000BF38
:1017D000E6E700BF10A80AA90CAA0BABCDE90032BE
:1017E000CDE902100EAB12AA56A11498FEF746FDE1
:1017F0009DF84D109DF84C009DF84B209DF84A3007
:10180000CDE90632CDE908019DF849109DF8480060
:101810009DF841209DF84030CDE90232CDE9040128
:101820009DF843009DF84210CDE900109DF8453029
:101830009DF844204EA1564804F038FA5449084611
:1018400000F008F90022534BDDE90E01FFF781F9A2
:101850000646FFF743FAC0B2642148430790FFF7FA
:10186000ECF90446DDE90E23FFF7FEF8804600227E
:10187000494BFFF76EF982468B460022454BDDE966
:101880000E01FFF766F90446FFF728FAC6B23046A4
:10189000FFF7E4F952465B46CDE90801FFF740F84F
:1018A0003B4A423AC2E90E0100223A4BDDE90C0103
:1018B000FFF74FF98046FFF711FAC0B2642100FB31
:1018C00001FA5046FFF7B9F90646DDE90C23FFF7A8
:1018D000CBF804460022304BFFF73BF900222D4B9A
:1018E000CDE90801DDE90C01FFF733F90546FFF703
:1018F000F5F9C4B22046FFF7B1F9CDE90601DDE9FB
:101900000823FFF70DF8224A423AC2E90A019DF87E
:101910002C00114681F840009DF8280081F8300025
:1019200015B0BDE8F08F00002600002024474E527D
:101930004D4300008C060020252A5B5E41565D2544
:101940006300000024474E524D432C253663252A60
:1019500036632C256C662C25632C256C662C256340
:101960002C252A662C252A662C25366300000000CB
:101970003230256325632D256325632D256325637B
:1019800020256325633A256325633A256325630093
:10199000920C00200000594000004E4008B502F0B3
:1019A000F5FE00200090684602F0D2FE0149009842
:1019B000886508BD500C002070B503F031FB194854
:1019C000B0F85C0281B217485C3003F06BFB05464F
:1019D000012535B302F0A8FF002411E0C4EB042276
:1019E00010495C315018FF2103F052FA601CC4B258
:1019F0000C48B0F85C02FF3800B20A49A1F85C025A
:101A00000848B0F95C02FF28E8DC064AB2F85C221C
:101A100091B2C4EB0423034A5C32981803F038FAFD
:101A200000BF70BD500C002000BFFEE710B504469B
:101A3000204600F06DF810BD10B5044603E04FF4E9
:101A40007A7000F065F8201EA4F101018CB2F6D185
:101A500010BD000070B596B006460D4605A806A953
:101A600007AA08ABCDE90032CDE9021009AB0AAAFA
:101A700018A13046FEF702FC0A98A0F26C70109094
:101A80000998401E0F9008980E9007980D900698A0
:101A90000C9005980B900BA8FEF756FB0490049849
:101AA00000F5E140049004A8FFF7CAF9044694E861
:101AB0000B00E268CDE90023CDE902102069431C48
:101AC000606900F26C7208A1284604F0EFF816B0C5
:101AD00070BD000025642D25642D25642025643A01
:101AE00025643A2564000000253034642D25303209
:101AF000642D2530326420253032643A253032643A
:101B00003A25303264000000704772B600BFFEE72D
:101B100070B5044600F048FA06462546681C10B128
:101B200004480078054400BF00F03EFA801BA8423C
:101B3000FAD370BD080000202DE9F04102460B46A3
:101B4000002080E00127874007EA0301002979D0BF
:101B5000404F4FEA900C57F82C4087074FEA177C0C
:101B60000F2707FA0CF73C403B4FBA4201D1002740
:101B70000FE03A4FBA4201D101270AE0384FBA428A
:101B800001D1022705E0374FBA4201D1032700E017
:101B900004274FEA807C4FEA1C7C07FA0CF7A74227
:101BA00031D1314F3F688F43DFF8BCC0CCF80070B3
:101BB0000CF104073F688F430CF1040CCCF8007063
:101BC000294F0C373F688F43DFF89CC00CF10C0C99
:101BD000CCF80070ACF104073F688F43ACF1040C03
:101BE000CCF8007087074FEA177C0F2707FA0CF430
:101BF000184F4FEA900C57F82CC02CEA040C4FEA0F
:101C0000900847F828C0FF2901D8174600E0171DA3
:101C10003D46FF2901D8870002E0A0F10807BF0078
:101C20003E462F684FF00F0C0CFA06FC27EA0C0713
:101C30004FF0040C0CFA06FC47EA0C072F60D7683B
:101C40008F43D760401C23FA00F7002F7FF47AAF50
:101C5000BDE8F0810800014000080140000C01408F
:101C60000010014000140140000401402DE9F84734
:101C70000346002294466EE14FF0010808FA02F490
:101C8000D1F8008008EA0400A0427DD1DFF8DCA290
:101C9000D1F80480A8EB0A09D0453AD014DCB8F199
:101CA000030F50D009DCB8F1000F31D0B8F1010FAB
:101CB0001CD0B8F1020F49D120E0B8F1110F18D0B3
:101CC000B8F1120F42D11EE0B9F5881F25D006DC0D
:101CD000B9F5803F20D0B9F5801F37D11AE0B9F5AA
:101CE000001F18D0B9F5041F30D117E0D1F80CC08F
:101CF0002DE0D1F80C8008F1040C28E0D1F80C801C
:101D000008F1080C23E0D1F80C8008F10C0C1EE05F
:101D100000BF00BF00BF00BF00BF00BFD1F80880F8
:101D2000B8F1000F02D14FF0040C0BE0D1F808809D
:101D3000B8F1010F03D14FF0080C1C6102E04FF025
:101D4000080C5C6103E04FF0000C00E000BF00BF36
:101D5000FF2801D8984601E003F104084646FF2811
:101D600002D84FEA820803E0A2F108084FEA880887
:101D70004746D6F800804FF00F0909FA07F928EA1C
:101D800009080CFA07F900E088E048EA0908C6F8F3
:101D90000080D1F8048008F08058B8F1805F7DD1D0
:101DA00000BFDFF8CC81D8F8188048F00108DFF8D0
:101DB000C091C9F81880C846D8F8188008F0010802
:101DC000CDF8008000BF00BF4FEAB9384FEA920952
:101DD00058F829504FEA82784FEA18794FF00F08E7
:101DE00008FA09F825EA0805DFF88881434502D199
:101DF0004FF0000816E0DFF88081434502D14FF034
:101E000001080FE0DFF87481434502D14FF002086A
:101E100008E0DFF86C81434502D14FF0030801E090
:101E20004FF004084FEA82794FEA197908FA09F865
:101E300048EA0505DFF84C814FEA920948F8295035
:101E4000D1F8048008F48018B8F5801F0AD1DFF8B3
:101E50003881D8F8008048EA0008DFF82C91C9F8EA
:101E6000008009E0DFF82081D8F8008028EA000827
:101E7000DFF81491C9F80080D1F8048008F4001844
:101E8000B8F5001F10D1DFF8008108F10408D8F878
:101E9000008048EA0008DFF8F09000E05AE009F11D
:101EA0000409C9F800800DE0DFF8DC8008F10408BF
:101EB000D8F8008028EA0008DFF8CC9009F104097E
:101EC000C9F80080D1F8048008F40038B8F5003F64
:101ED0000ED1DFF8B480A8F10408D8F8008048EAF1
:101EE0000008DFF8A490A9F10409C9F800800DE00A
:101EF000DFF89480A8F10408D8F8008028EA0008E8
:101F0000DFF88490A9F10409C9F80080D1F80480B1
:101F100008F48038B8F5803F0ED1DFF86C80A8F166
:101F20000808D8F8008048EA0008DFF85C90A9F1BA
:101F30000809C9F800800DE0DFF84C80A8F1080816
:101F4000D8F8008028EA0008DFF83C90A9F10809D9
:101F5000C9F80080521CD1F8008028FA02F8B8F1C4
:101F6000000F7FF489AEBDE8F88700000000111073
:101F70000010024000080140000C01400010014028
:101F80000014014008000140080401400246936823
:101F90000B400BB1012000E0002070470AB1016145
:101FA00001E00B04036170470148006870470000BE
:101FB000000000200148006870470000E8F7FF1F9C
:101FC0000148006870470000ECF7FF1F01480068F7
:101FD00070470000F0F7FF1F70B504460CB90120F0
:101FE00070BD94F83D0028B9002084F83C002046DC
:101FF00000F046FB242084F83D002068006820F0B3
:102000000100216808602068006840F400402168F1
:1020100008602068006820F400402168086000F033
:1020200027FE05465C496068884206D85B488542C1
:1020300001D2012007E0002005E05948854201D285
:10204000012000E00020012800D1C9E75548B5FB78
:10205000F0F62068406820F03F0030432168486077
:102060004D496068884201D8701C07E04FF49670B3
:1020700070434FF47A71B0FBF1F0401C2168096A9B
:1020800021F03F01084321680862434960688842A3
:1020900014D8681E61684900B0FBF1F0401CC0F321
:1020A0000B00042801D204203DE0681E616849004D
:1020B000B0FBF1F0401CC0F30B0034E0A06838B96D
:1020C000681E616801EB4101B0FBF1F0401C0AE0C1
:1020D000681E616801EBC10202EB0111B0FBF1F077
:1020E000401C40F48040C0F30B0008B901201AE006
:1020F000A06848B9681E616801EB4101B0FBF1F0CE
:10210000401CC0F30B000CE0681E616801EBC102CB
:1021100002EB0111B0FBF1F0401CC0F30B0040F4E6
:10212000804040F400402168C9694CF6FF72914339
:1021300008432168C861D4E9070108432168096898
:1021400021F0C001084321680860D4E90310084366
:102150002168896848F2FF3291430843216888600A
:10216000D4E9050108432168C96821F0FF0108434B
:102170002168C8602068006840F00100216808609C
:1021800000202064202084F83D000020206384F893
:102190003E0000BF24E70000A086010080841E00EE
:1021A00000093D0040420F002DE9FE4F04460F4656
:1021B00090469946DDE90CAB0E9E00200290FFF799
:1021C000F3FE054694F83D00202872D11923012220
:1021D000CE492046009502F0C8F810B10220BDE8B3
:1021E000FE8F00BF94F83C00012801D10220F6E7E1
:1021F000012084F83C0000BF2068006800F0010066
:1022000028B92068006840F0010021680860206853
:10221000006820F4006021680860222084F83D00F6
:10222000402084F83E0000202064C4F824A0A4F8D4
:102230002AB0608D2085B648E0624B46424639465A
:102240002046CDE9006501F03DFF08B10120C6E759
:10225000208D88B900BF002001902068406901905E
:1022600020688069019000BF00BF2068006840F4CA
:102270000070216808604BE0208D01281AD1206889
:10228000006820F480602168086072B600BF0020FA
:10229000019020684069019020688069019000BF2A
:1022A00000BF2068006840F400702168086062B6D2
:1022B0002EE029E1208D022819D12068006840F421
:1022C00000602168086072B600BF0020019020689D
:1022D0004069019020688069019000BF00BF2068BC
:1022E000006820F480602168086062B610E0206811
:1022F000006840F480602168086000BF0020019001
:1023000020684069019020688069019000BF00BF8B
:10231000EBE0208D03287DD8208D012815D12A4699
:102320003146204602F0FDF808B1012057E7206849
:102330000069616A0870606A401C6062208D401EFE
:102340002085608D401E6085CFE0208D02282CD135
:10235000334600226F492046009502F006F808B186
:1023600001203CE772B62068006840F400702168E4
:10237000086020680069616A0870606A401C6062D9
:10238000208D401E2085608D401E608562B62068CD
:102390000069616A0870606A401C6062208D401E9E
:1023A0002085608D401E60859FE03346002259499C
:1023B0002046009501F0D9FF08B101200FE7206801
:1023C000006820F480602168086072B620680069A7
:1023D000616A0870606A401C6062208D401E208522
:1023E000608D401E60854C4800681921B0FBF1F0FB
:1023F0004FF47A71B0FBF1F0C0EBC00000EB80004D
:10240000029000BF0298401E02900298A8B90020D6
:10241000206300E039E0202084F83D00002084F8AB
:102420003E00206C40F02000206462B600BF002017
:1024300084F83C0000BF0120D1E620684069C0F369
:1024400080000028DED02068006840F40070216819
:10245000086020680069616A0870606A401C6062F8
:10246000208D401E2085608D401E608562B62068EC
:102470000069616A0870606A401C6062208D401EBD
:102480002085608D401E60852FE02A46314620461B
:1024900002F047F808B10120A1E620680069616AEE
:1024A0000870606A401C6062208D401E2085608D2F
:1024B000401E608520684069C0F38000A8B1208D6F
:1024C000032805D12068006820F480602168086036
:1024D00020680069616A0870606A401C6062208D33
:1024E000401E2085608D401E6085208D00287FF471
:1024F00010AF202084F83D00002084F83E0000BF8B
:1025000084F83C0000BF6AE6022068E60200100082
:102510000000FFFF040001000C0000202DE9FC5F1B
:1025200004460F4690469946DDE90CAB0E9EFFF738
:102530003BFD054694F83D0020287DD1192301225A
:102540004D492046009501F010FF10B10220BDE872
:10255000FC9F00BF94F83C00012801D10220F6E75F
:10256000012084F83C0000BF2068006800F00100F2
:1025700028B92068006840F00100216808602068E0
:10258000006820F4006021680860212084F83D0084
:10259000402084F83E0000202064C4F824A0A4F861
:1025A0002AB0608D20853548E0624B464246394668
:1025B0002046CDE9006501F035FE08B10120C6E7EF
:1025C00031E02A463146204601F0F0FF50B1206C40
:1025D000042805D12068006840F400702168086074
:1025E0000120B4E7606A007821680861606A401CD5
:1025F0006062208D401E2085608D401E60852068B1
:102600004069C0F3800070B1208D60B1606A0078CD
:1026100021680861606A401C6062208D401E208530
:10262000608D401E6085208D0028CAD12A46314623
:10263000204601F067FE00E01CE050B1206C042849
:1026400005D12068006840F400702168086001200E
:102650007DE72068006840F4007021680860202051
:1026600084F83D00002084F83E0000BF84F83C0060
:1026700000BF6CE702206AE7020010000000FFFFC5
:1026800010B586B004460020029003900490059097
:1026900015492068884225D100BF1448806940F060
:1026A0000800124988610846806900F0080001901E
:1026B00000BF00BFC02002901220039003200590AD
:1026C00002A90B48FFF7D2FA00BF0848C06940F4DE
:1026D00000100649C8610846C06900F40010019066
:1026E00000BF00BF06B010BD005400400010024003
:1026F000000C014003480068034909780844014977
:1027000008607047000000200800002010B508484D
:10271000006840F0100006490860032000F098F8B7
:102720000F2000F007F800F02BF8002010BD00008B
:102730000020024070B504460E4800784FF47A71CC
:10274000B1FBF0F00C490968B1FBF0F5284601F047
:102750003DFA08B1012070BD102C07D2002221469D
:10276000501E00F037F80548046001E00120F2E750
:102770000020F0E7080000200C00002004000020EA
:1027800008B500BF1148806940F001000F49886119
:102790000846806900F00100009000BF00BF00BF44
:1027A0000846C06940F08050C8610846C06900F022
:1027B0008050009000BF00BF00BF0549486820F06E
:1027C000E06040F00070486000BF08BD00100240AB
:1027D000000001402DE9F05F80460D4616460027B7
:1027E00003F094FA074639462A46334601F00700BB
:1027F000C0F1070ABAF1040F02D94FF0040A01E050
:10280000C0F1070AD14600F1040ABAF1070F02D25B
:102810004FF0000A01E0A0F1030AD4464FF0010A8C
:102820000AFA09FAAAF1010A0AEA020A0AFA0CFAF1
:102830004FF0010B0BFA0CFBABF1010B0BEA030B96
:102840004AEA0B042146404603F068FABDE8F09FCF
:1028500000BF00F00702064B19684FF6FF0319404E
:10286000044B0B4343EA0221014B196000BF704740
:102870000CED00E00000FA050120014908627047F4
:1028800000000E420748006840F002000549086059
:102890000548006840F004000349086000BF00BF1D
:1028A00030BF70470070004010ED00E02DE9F047A8
:1028B00006464FF00008002500270024A146012EFF
:1028C00031D0022E56D0102E5FD1324844680068B5
:1028D00000F0807008B33048C4F38341475C04F4CF
:1028E000803078B12B484068C0F340402B4911F844
:1028F000008004F4803040B12948B0FBF8F000FBC0
:1029000007F502E0274807FB00F52248406800F47D
:102910008000B0F5800F01D1A94603E068000321D3
:10292000B0FBF1F932E01B48046A04F44070B0F5E2
:10293000807F05D104F0020010B14FF4004918E087
:1029400004F44070B0F5007F07D11248406A00F0EF
:10295000020010B149F640490BE004F44070B0F5B4
:10296000407F06D10B48006800F4003008B14FF2F8
:1029700024490BE000F08CF906494968C1F3813124
:10298000491C4900B0FBF1F900E000BF00BF484618
:10299000BDE8F08700100240149A0008249A00084D
:1029A00000127A0000093D00F8B504460026002513
:1029B000207800F0010000286BD000274348C06950
:1029C00000F0805070B900BF4048C06940F08050AE
:1029D0003E49C8610846C06900F08050009000BFC1
:1029E00000BF01273A48006800F48070B0B9384849
:1029F000006840F4807036490860FFF7D5FA064653
:102A000006E0FFF7D1FA801B642801D90320F8BD46
:102A10002F48006800F480700028F2D02B48006A2C
:102A200000F440752DB3A08800F44070A84220D077
:102A30002648006A20F440750120264908600020DD
:102A400008602248056205F0010090B1FFF7ACFA7A
:102A5000064608E0FFF7A8FA801B41F28831884259
:102A600001D90320D3E71948006A00F002000028CA
:102A7000F0D01648006A20F440706168084313499A
:102A80000862012F04D10846C06920F08050C86157
:102A900000BF207800F00200022807D10B484068F0
:102AA00020F44040A168084308494860207800F0BD
:102AB0001000102807D10548406820F48000E16824
:102AC0000843024948600020A1E7000000100240CE
:102AD000007000404004424270B504460D460CB9F7
:102AE000012070BD5A48006800F00700A8420ED2CD
:102AF0005748006820F007002843554908600846F9
:102B0000006800F00700A84201D00120E9E7207822
:102B100000F0020002281DD1207800F004000428F3
:102B200005D14C48406840F4E0604A49486020784C
:102B300000F00800082805D14648406840F460507D
:102B4000444948604348406820F0F000A1680843C9
:102B500040494860207800F0010078B3606801289F
:102B600006D13C48006800F4003090B90120B8E775
:102B70006068022806D13748006800F0007040B94C
:102B80000120AEE73348006800F0020008B90120D8
:102B9000A7E73048406820F00300616808432D49EA
:102BA0004860FFF701FA064609E0FFF7FDF9801BD0
:102BB00041F28831884202D9032092E707E0254894
:102BC000406800F00C006168B0EB810FEDD1204847
:102BD000006800F00700A8420ED91D48006820F0E8
:102BE000070028431A4908600846006800F00700FB
:102BF000A84201D0012074E7207800F004000428E6
:102C000007D11448406820F4E060E16808431149A6
:102C10004860207800F00800082808D10D48406876
:102C200020F46050216940EAC1000A49486000F080
:102C30003FF808494968C1F30311074A515CC8408D
:102C40000649086006480068FFF774FD002048E761
:102C50000020024000100240269A00080C000020CC
:102C60000400002001480068704700000C000020AC
:102C700000B5FFF7F7FF04494968C1F30221034A91
:102C8000515CC84000BD000000100240369A0008A8
:102C900000B5FFF7E7FF04494968C1F3C221034AC1
:102CA000515CC84000BD000000100240369A000888
:102CB00070B500210022002400230020134D696814
:102CC00001F00C05F5B1042D02D0082D19D101E059
:102CD0000F4819E00F4DC1F38346AB5D01F4803519
:102CE00055B10A4D6D68C5F340450B4E725D084DF8
:102CF0005D43B5FBF2F402E0084D03FB05F420460A
:102D000002E000BF024800BF00BF70BD00100240DB
:102D100000127A00029A0008129A000800093D0089
:102D2000F8B504460CB90120F8BD207800F0010088
:102D3000002878D0F848406800F00C0004280CD037
:102D4000F548406800F00C00082811D1F2484068AE
:102D500000F48030B0F5803F0AD1EF48006800F4FD
:102D6000003000285FD0606800285CD10120DBE7DC
:102D700000BF6068B0F5803F06D1E748006840F4C6
:102D80008030E549086028E0606858B9E24800688A
:102D900020F48030E04908600846006820F4802074
:102DA00008601AE06068B0F5A02F0BD1DA4800681F
:102DB00040F48020D84908600846006840F480301C
:102DC00008600AE0D448006820F48030D2490860E6
:102DD0000846006820F48020086000BF606888B161
:102DE000FFF7E2F8054606E0FFF7DEF8401B64282F
:102DF00001D9032098E7C848006800F40030002893
:102E0000F2D010E0FFF7D0F8054606E0FFF7CCF867
:102E1000401B642801D9032086E7BF48006800F4FE
:102E200000300028F2D1207800F00200022857D1AB
:102E3000B948406800F00C0050B1B748406800F055
:102E40000C00082818D1B448406800F4803098B9C4
:102E5000B148006800F0020020B12069012801D0CB
:102E6000012061E7AC48006820F0F800616940EAA1
:102E7000C100A949086033E02069E8B10120A749F1
:102E80000860FFF791F8054606E0FFF78DF8401B54
:102E9000022801D9032047E79F48006800F002009C
:102EA0000028F2D09C48006820F0F800616940EAF0
:102EB000C1009949086013E0002098490860FFF7B5
:102EC00073F8054606E0FFF76FF8401B022801D9AA
:102ED000032029E79048006800F002000028F2D1A2
:102EE000207800F0080008282DD1A069B8B1012091
:102EF0008B490860FFF758F8054606E0FFF754F8DD
:102F0000401B022801D903200EE78348406A00F0E5
:102F100002000028F2D0012002F048FB13E000205C
:102F20007F490860FFF740F8054606E0FFF73CF8E8
:102F3000401B022801D90320F6E67748406A00F0DA
:102F400002000028F2D1207800F00400042873D198
:102F500000277148C06900F0805070B900BF6E480A
:102F6000C06940F080506C49C8610846C06900F0F3
:102F70008050009000BF00BF01276A48006800F43D
:102F80008070B0B96748006840F480706549086097
:102F9000FFF70AF8054606E0FFF706F8401B64282D
:102FA00001D90320C0E65F48006800F48070002863
:102FB000F2D000BFE068012806D15748006A40F00F
:102FC00001005549086227E0E06858B95248006A94
:102FD00020F00100504908620846006A20F0040011
:102FE000086219E0E06805280BD14B48006A40F000
:102FF0000400494908620846006A40F0010008627E
:103000000AE04548006A20F001004349086208468A
:10301000006A20F00400086200BFE068A0B1FEF77B
:10302000C3FF054609E0FEF7BFFF401B41F28831B0
:10303000884202D9032077E622E03748006A00F090
:1030400002000028EFD012E0FEF7AEFF054608E0D0
:10305000FEF7AAFF401B41F28831884201D90320C4
:1030600062E62D48006A00F002000028F0D1012F2E
:1030700005D12948C06920F080502749C86100BFA8
:10308000E069C8B32448406800F00C00082860D00C
:10309000E069022848D1002020490866FEF784FF35
:1030A000054606E0FEF780FF401B022801D90320F9
:1030B0003AE61948006800F000700028F2D1206A52
:1030C000B0F5803F07D11448406820F40030A16873
:1030D000084311494860D4E9080108430E4949688A
:1030E00021F4741108430C49486001200B4908661B
:1030F000FEF75AFF054607E03DE0FEF755FF401B8F
:10310000022801D903200FE60348006800F0007090
:103110000028F2D02FE000000010024000004242E0
:103120008004424200700040002014490866FEF707
:103130003BFF054606E0FEF737FF401B022801D99A
:103140000320F1E50E48006800F000700028F2D17D
:1031500011E0E069012800D1E6E50948466806F477
:103160008031206A814204D106F47011606A814284
:1031700001D00120D8E50020D6E500000000424241
:10318000001002402DE9F04780460C46914600258C
:103190000026AA460027B8F1000F00D014B901207C
:1031A000BDE8F087D8F800004068C0F3800008B19F
:1031B0000120F5E7404602F0DFFA05464FF4616072
:1031C000B5FBF0F7B5FBF0F100FB11503C21B0FB73
:1031D000F1F060704FF46160B5FBF0F100FB11504D
:1031E0003C21B0FBF1F201FB1200A070182F39D383
:1031F0001820B7FBF0FAB7FBF0F100FB117020705C
:10320000404602F0ADFA0646701C18B1AE4201D934
:10321000761B01E04FF0FF360AEB4A00C000C0EB1E
:103220004011C1EB0020A5EB00152946404602F0F5
:1032300016FB08B10120B3E7701C38B12E443146AB
:10324000404602F0F5FA40B10120A9E73146404678
:1032500002F0EEFA08B10120A2E75146404602F022
:10326000D1F900E02770B9F1000F0BD0207802F0FF
:10327000BCF92070607802F0B8F96070A07802F0B4
:10328000B4F9A07000208BE770B5044600250CB996
:10329000012070BD607C20B900202074204600F021
:1032A00053F802206074204600F0D8F818B10420CA
:1032B00060740120EDE7204602F0FFF918B1042008
:1032C00060740120E5E72068406820F0070021686D
:1032D0004860A06828B11B48006820F00100194927
:1032E00008601848001F006820F46070A168084357
:1032F0001449091F08606068401C08B1656809E04E
:103300000120FFF7D3FA05461DB90420607401209F
:10331000BFE76D1EC5F3034021688860A8B221682D
:10332000C860204602F0E6F918B10420607401205C
:10333000AFE70021E17301216173A1730120607483
:103340000020A6E7306C004038B504460B492068E1
:10335000884212D1FFF790FA00BF0948C06940F0D7
:1033600000600749C8610846C06900F0006000902D
:1033700000BF00BF01200349086038BD002800409D
:10338000001002403C0442422DE9F84304460D4639
:10339000174600260020009004B115B90120BDE8B1
:1033A000F88300BF207C012801D10220F7E701202B
:1033B000207400BF02206074002269462046FFF797
:1033C000E1FE08B10120EAE79DF800004FF46161D9
:1033D00048439DF80110C1EB011100EB81009DF8FD
:1033E000021000EB01085FB928784FF4616148438F
:1033F0006978C1EB011100EB8100A978461812E051
:10340000287802F0E7F84FF4616100FB01F9687871
:1034100002F0E0F8C0EB001009EB8009A87802F098
:10342000D9F809EB0006464501D20B48064431465F
:10343000204602F0FDF938B10420607400BF00207E
:10344000207400BF0120AAE70120607400BF0020A3
:10345000207400BF00BFA2E78051010070B5044690
:1034600000250CB9012070BD2068406820F00800DC
:1034700021684860FEF798FD054607E0FEF794FDD9
:10348000401BB0F57A7F01D90320ECE72068406843
:1034900000F008000028F1D00020E4E710B5044651
:1034A0000CB9012010BD022084F85100206800688A
:1034B00020F0400021680860204600F069F80020F4
:1034C000606584F8510000BF84F8500000BF00BF61
:1034D000E8E710B504460CB9012010BD606A38B9A0
:1034E0006068B0F5827F00D105E00021E16102E073
:1034F0000021216161610021A16294F8510028B985
:10350000002084F85000204600F05AF8022084F889
:1035100051002068006820F0400021680860A08801
:1035200000F48270218901F404410843A18901F467
:1035300000610843217C01F002010843217D01F074
:1035400001010843218B01F400710843217F01F040
:10355000380108432021095D01F080010843218DD5
:1035600001F400510843216808600421A06901EAC0
:103570001040216848602068C06920F4006021681C
:10358000C86100206065012084F851000020A4E794
:1035900010B5044607492068884209D10648806969
:1035A00020F4805004498861E0210448FEF7C4FA01
:1035B00010BD000000300140001002400008014032
:1035C00010B586B004460020029003900490059048
:1035D0001949206888422DD100BF1848806940F4FD
:1035E0008050164988610846806900F48050019037
:1035F00000BF00BF00BF0846806940F0040088613A
:103600000846806900F00400019000BF00BFA020C0
:103610000290022003900320059002A90848FEF7BB
:1036200025FB4020029000200390049002A904484A
:10363000FEF71CFB06B010BD003001400010024038
:10364000000801402DE9F8430446884616461D4609
:1036500094F85100012802D00220BDE8F883606888
:10366000B0F5827F0CD1A06850B9042084F85100D5
:103670003346424641462046009500F083F9ECE788
:10368000FEF792FC0746B8F1000F00D00EB90120FA
:10369000E3E700BF94F85000012801D10220DCE7E5
:1036A000012084F8500000BF042084F8510000205D
:1036B0006065C4F83880A687E6872063A086E08628
:1036C00020646064A068B0F5004F0BD120680068EA
:1036D00020F04000216808602068006820F48040E5
:1036E000216808602068006800F04000402805D08C
:1036F0002068006840F0400021680860E06830BB46
:1037000021E02068806800F0010050B12068007B53
:10371000A16B0870A06B401CA063E08F401EE08787
:1037200011E0FEF741FCC01BA84201D3681C00B9A0
:103730004DB9012084F8510000BF002084F85000EA
:1037400000BF032089E7E08F0028DAD125E021E0DF
:103750002068806800F0010050B12068C068A16B4B
:103760000880A06B801CA063E08F401EE08711E002
:10377000FEF71AFCC01BA84201D3681C00B94DB962
:10378000012084F8510000BF002084F8500000BFE1
:10379000032062E7E08F0028DAD13A462946204626
:1037A00002F074F808B120206065012084F851000F
:1037B00000BF002084F8500000BF606D08B10120F8
:1037C0004BE7002049E72DE9F84304460F4616462B
:1037D0001D46FEF7E9FB8046B14694F851000128EA
:1037E00002D00220BDE8F88307B10EB90120F9E745
:1037F00000BF94F85000012801D10220F2E7012017
:1038000084F8500000BF032084F851000020606558
:103810002763A686E686A063A087E08760642064AD
:10382000A068B0F5004F0BD12068006820F0400080
:10383000216808602068006840F4804021680860C2
:103840002068006800F04000402805D0206800682B
:1038500040F0400021680860E068B0F5006F37D1A3
:10386000606810B1B9F1010F09D1206B008821689F
:10387000C860206B801C2063E08E401EE08623E041
:103880002068806800F0020002280AD1206B0088BE
:103890002168C860206B801C2063E08E401EE0869B
:1038A00012E0FEF781FBA0EB0800A84201D3681CE0
:1038B00000B94DB9012084F8510000BF002084F800
:1038C000500000BF03208DE7E08E0028D8D136E0FD
:1038D000606810B1B9F1010F09D1206B007821683F
:1038E0000873206B401C2063E08E401EE08623E0BE
:1038F0002068806800F0020002280AD1206B00785E
:1039000021680873206B401C2063E08E401EE08617
:1039100012E0FEF749FBA0EB0800A84201D3681CA7
:1039200000B94DB9012084F8510000BF002084F88F
:10393000500000BF032055E7E08E0028D8D1424652
:103940002946204601F0DEFF08B120206065A0680E
:1039500050B900BF002000902068C0680090206827
:103960008068009000BF00BF012084F8510000BFB4
:10397000002084F8500000BF606D08B1012031E7DD
:1039800000202FE72DE9FE4F04460F4690461D46C6
:103990000C9E01200190FEF707FB814694F851B080
:1039A00060680290AA46BBF1010F0BD00298B0F5F7
:1039B000827F04D1A06810B9BBF1040F02D00220AD
:1039C000BDE8FE8F1FB1B8F1000F00D00DB9012086
:1039D000F6E700BF94F85000012801D10220EFE77C
:1039E000012084F8500000BF94F85100042802D050
:1039F000052084F8510000206065C4F83880E58710
:103A0000A5872763E586A586206460642068006832
:103A100000F04000402805D02068006840F04000D9
:103A200021680860E068B0F5006F52D1606810B19D
:103A3000BAF1010F09D1206B00882168C860206BA2
:103A4000801C2063E08E401EE0863BE0206880689A
:103A500000F00200022810D1E08E70B10198012818
:103A60000BD1206B00882168C860206B801C20630C
:103A7000E08E401EE086002001902068806800F003
:103A8000010068B1E08F58B12068C068A16B088060
:103A9000A06B801CA063E08F401EE0870120019096
:103AA000FEF782FAA0EB0900B0420BD3701C48B1BC
:103AB000012084F8510000BF002084F8500000BFAE
:103AC00003207DE7E08E0028C0D1E08F0028BDD123
:103AD00052E0606810B1BAF1010F09D1206B007893
:103AE00021680873206B401C2063E08E401EE08636
:103AF0003CE02068806800F00200022810D1E08ECF
:103B000070B1019801280BD1206B007821680873EF
:103B1000206B401C2063E08E401EE0860020019058
:103B20002068806800F0010068B1E08F58B120681B
:103B3000C068A16B0870A06B401CA063E08F401EA2
:103B4000E08701200190FEF72FFAA0EB0900B042B8
:103B500001D3701C00B94EB9012084F8510000BF98
:103B6000002084F8500000BF032029E7E08E0028E1
:103B7000BFD1E08F0028BCD14A463146204601F033
:103B8000C1FE40B12020606500BF002084F85000D5
:103B900000BF012014E7A06850B900BF00200090CA
:103BA0002068C068009020688068009000BF00BF57
:103BB000012084F8510000BF002084F8500000BFAD
:103BC000606D08B10120FBE60020F9E670B50446FF
:103BD0002546681EB0F1807F01D301200FE0681EEA
:103BE0004FF0E02148610F214FF0FF3002F096F8CE
:103BF00000204FF0E021886107200861002070BD9F
:103C00002DE9F84F04460F4690461D46DDF828A0E2
:103C100094F84200202878D117B1B8F1000F02D1F2
:103C20000120BDE8F88F00206064222084F8420063
:103C30000120206300206063FEF7B6F98346A4F8F4
:103C40002C80A4F82E80A068B0F5805F04D1206994
:103C500010B90026B94602E03E464FF000090020A8
:103C6000288053E02068006800F01000102813D16D
:103C700000BF002000902068006800902068406825
:103C8000009000BF00BF288830B102206063202070
:103C900084F842000020C4E72068006800F020009B
:103CA000202821D146B920684068C0F30800A9F84F
:103CB000000009F1020911E0A068B0F5805F03D0AF
:103CC000A06828B9206918B920684068307004E0FD
:103CD0002068406800F07F003070761C2888401C07
:103CE0002880E08D401EE0850AF1010070B1FEF7EA
:103CF0005BF9A0EB0B00504502D8BAF1000F05D1DB
:103D0000202084F8420003208BE70BE0E08D0028A0
:103D1000A8D1A08DE18D401A2880202084F842008F
:103D200000207EE702207CE710B504460CB9012094
:103D300010BDA06900B100E000BF94F8410028B9AF
:103D4000002084F84000204600F02AF8242084F85F
:103D500041002068C06820F400502168C8602046F7
:103D600001F0DEFE2068006920F4904021680861BF
:103D70002068406920F02A00216848612068C068F6
:103D800040F400502168C86000206064202084F85E
:103D9000410084F842000020606300BFC8E70000D3
:103DA00010B586B004460020029003900490059060
:103DB0004D49206888422FD100BF4C48806940F4AB
:103DC00080404A4988610846806900F4804001903B
:103DD00000BF00BF00BF0846806940F00400886152
:103DE0000846806900F00400019000BF00BF48153C
:103DF0000290022003900320059002A93C48FDF7A1
:103E000035FF4FF48060029000200390049002A9D7
:103E10003748FDF72BFF65E03649206888422ED1F0
:103E200000BF3248C06940F400303049C8610846DC
:103E3000C06900F40030019000BF00BF00BF084619
:103E4000806940F0040088610846806900F0040041
:103E5000019000BF00BF04200290022003900320C5
:103E6000059002A92248FDF701FF082002900020DA
:103E70000390049002A91E48FDF7F8FE32E01E49A7
:103E8000206888422ED100BF1848C06940F48020C5
:103E90001649C8610846C06900F48020019000BF3F
:103EA00000BF00BF0846806940F0080088610846EE
:103EB000806900F00800019000BF00BF0815029063
:103EC000022003900320059002A90C48FDF7CEFEC6
:103ED0004FF40060029000200390049002A907486C
:103EE000FDF7C4FE06B010BD0038014000100240CE
:103EF000000801400044004000480040000C014020
:103F00002DE9F84F04460E46174699464FF0000A31
:103F100094F84200202852D106B117B90120BDE81B
:103F2000F88F00206064222084F842000020206383
:103F3000FEF73AF88246A785E785A068B0F5805F6E
:103F400004D1206910B90025B04602E035464FF093
:103F500000082CE05346002220212046CDF8009096
:103F600001F05CFE20B1202084F842000320D6E757
:103F700045B920684068C0F30800A8F8000008F1BF
:103F8000020811E0A068B0F5805F03D0A06828B9EE
:103F9000206918B920684068287004E020684068EB
:103FA00000F07F0028706D1CE08D401EE085E08DE4
:103FB0000028CFD1202084F842000020AFE7022063
:103FC000ADE72DE9F84F04460E46174699464FF0E7
:103FD000000A94F84100202850D106B117B90120F9
:103FE000BDE8F88F00206064212084F84100FDF7CF
:103FF000DBFF8246A784E784A068B0F5805F04D128
:10400000206910B90025B04602E035464FF000089F
:104010001EE05346002280212046CDF8009001F09A
:10402000FDFD20B1202084F841000320D8E745B9E8
:10403000B8F80000C0F308002168486008F10208E1
:1040400003E02878216848606D1CE08C401EE08405
:10405000E08C0028DDD15346002240212046CDF8D7
:10406000009001F0DBFD20B1202084F84100032006
:10407000B6E7202084F841000020B1E70220AFE736
:1040800000BFFEE7014608684069C0F38020B0B178
:104090006FF480600A68506100200863202081F876
:1040A0003D00002081F83E00086C40F004000864E8
:1040B00000BF002081F83C0000BF012070470020B5
:1040C000FCE700002DE9F84304460F4615469946E3
:1040D000DDE908862068006840F480602168086097
:1040E0002068006840F48070216808604346002220
:1040F0004FF001112046009600F037F960B12068BA
:10410000006800F48070B0F5807F02D14FF4007039
:1041100020640320BDE8F88307F0FE0021680861F1
:10412000334642463E49204600F07EF908B1012060
:10413000F0E700BF002000902068406900902068F0
:104140008069009000BF00BF32464146204600F023
:104150002DFA50B1206C042805D12068006840F485
:104160000070216808600120D4E7B9F1010F03D184
:10417000E8B22168086117E0C5F3072021680861EB
:1041800032464146204600F011FA50B1206C042816
:1041900005D12068006840F40070216808600120A3
:1041A000B8E7E8B22168086132464146204600F08F
:1041B000FDF950B1206C042805D12068006840F456
:1041C0000070216808600120A4E72068006840F4BE
:1041D000807021680860434600224FF0011120469C
:1041E000009600F0C2F858B12068006800F48070B2
:1041F000B0F5807F02D14FF400702064032089E77E
:10420000F8B240F001002168086133464246044993
:10421000204600F009F908B101207BE7002079E78A
:10422000020001002DE9F8430446884615469946E8
:10423000DDE908672068006840F480702168086044
:10424000334600224FF001112046009700F08DF810
:1042500060B12068006800F48070B0F5807F02D102
:104260004FF4007020640320BDE8F88308F0FE00DE
:10427000216808613B4632462149204600F0D4F8C7
:1042800008B10120F0E700BF0020009020684069DD
:10429000009020688069009000BF00BF3A46314618
:1042A000204600F083F950B1206C042805D1206825
:1042B000006840F40070216808600120D4E7B9F17B
:1042C000010F03D1E8B22168086117E0C5F30720A8
:1042D000216808613A463146204600F067F950B13E
:1042E000206C042805D12068006840F40070216823
:1042F00008600120B8E7E8B2216808610020B3E750
:104300000200010070B504460D46164625E0204621
:10431000FFF7B8FE08B1012070BD681CE8B1FDF7D9
:1043200043FE801BA84200D8BDB920684069C0F395
:10433000800090B900202063202084F83D000020F8
:1043400084F83E00206C40F02000206400BF002074
:1043500084F83C0000BF0120DEE720684069C0F31C
:1043600080000028D3D00020D6E72DE9F041044694
:104370000D4617461E46DDF8188038E0701CA8B3BD
:10438000FDF712FEA0EB0800B04200D876BBC5F3E3
:10439000074001280AD120684069A9B20840A9B2A3
:1043A000884201D101200BE0002009E020688069EB
:1043B000A9B20840A9B2884201D1012000E0002042
:1043C000B84214D100202063202084F83D00002052
:1043D00084F83E00206C40F02000206400BF0020E4
:1043E00084F83C0000BF0120BDE8F081FFE7C5F381
:1043F000074001280AD120684069A9B20840A9B243
:10440000884201D101200BE0002009E0206880698A
:10441000A9B20840A9B2884201D1012000E00020E1
:10442000B842ABD00020DFE72DE9F04104460D464D
:1044300016461F4658E020684069C0F38020E8B166
:104440002068006840F40070216808606FF48060A4
:104450002168486100202063202084F83D0000206E
:1044600084F83E00206C40F00400206400BF00206F
:1044700084F83C0000BF0120BDE8F081701C90B3BF
:10448000FDF792FDC01BB04200D866BBC5F30740E4
:1044900001280AD120684069A9B20840A9B288421F
:1044A00001D101200BE0002009E020688069A9B259
:1044B0000840A9B2884201D1012000E0002090B953
:1044C00000202063202084F83D00002084F83E0076
:1044D000206C40F02000206400BF002084F83C00E5
:1044E00000BF0120C8E7FFE7C5F3074001280AD154
:1044F00020684069A9B20840A9B2884201D10120D0
:104500000BE0002009E020688069A9B20840A9B248
:10451000884201D1012000E0002000288BD000203B
:10452000AAE770B504460D46164637E02068406994
:10453000C0F30010A0B16FF01000216848610020A6
:104540002063202084F83D00002084F83E00206C89
:10455000206400BF002084F83C0000BF012070BD33
:10456000FDF722FD801BA84200D8BDB92068406934
:10457000C0F3801090B900202063202084F83D0013
:10458000002084F83E00206C40F02000206400BF32
:10459000002084F83C0000BF0120E0E7206840696B
:1045A000C0F380100028C1D00020D8E770B50446C1
:1045B0000D46164625E02046FFF764FD08B10120B0
:1045C00070BD681CE8B1FDF7EFFC801BA84200D865
:1045D000BDB920684069C0F3C01090B900202063C5
:1045E000202084F83D00002084F83E00206C40F03C
:1045F0002000206400BF002084F83C0000BF0120A0
:10460000DEE720684069C0F3C0100028D3D0002046
:10461000D6E7000010B5002208210248FDF7BEFCD5
:1046200010BD0000000C014010B501220821034814
:10463000FDF7B4FC0120FDF7FFF910BD000C0140AF
:1046400010B503A000F05CF804A000F059F810BD0C
:104650005043415330322C313030300050434153BD
:1046600030342C330000000008B54FF480611D4841
:10467000FBF7D7FD00201C49088030E01BA119483A
:10468000FBF7DAFD28B11AA11648FBF7D5FD00B1FA
:1046900026E04FF47A70174B4FF4007216490090E1
:1046A0001648FFF7ADFA13480088002817DD0D49BA
:1046B0000D4A128888180F490A880F49FBF798FDA0
:1046C000094800880B4909880844074908804FF4C5
:1046D00000710948FBF7A5FD002006490880CDE7D9
:1046E00000BF08BD8C06002026000020474741007F
:1046F00054585400240000208C040020FC030020A7
:1047000070B504462578012003E0215C4D40411C32
:10471000C8B2215C0029F8D12B46224607A10A48DD
:1047200001F0C4FA0848FBF799FD86B24FF47A739A
:10473000324605490548FFF744FC70BD2425732A1D
:10474000253032580D0A00008C080020FC030020A0
:104750003EB50446002002900190009002A9C420BA
:1047600000F026F801A9C52000F022F86946C6200D
:1047700000F01EF89DF8000000049DF8041040EAC7
:1047800001209DF80810084320603EBD38B5FF2089
:1047900000906946012000F00BF8182424F0100462
:1047A00044F002042146C32000F026F838BD000082
:1047B0003EB504460D46002220210D48FDF7EEFBD4
:1047C0000520FDF733F94FF47A7001210B4622469C
:1047D000CDE9005102904F210648FDF7E5FC01228A
:1047E00020210348FDF7DAFB0C20FDF71FF93EBD41
:1047F000000C0140F402002013B584B004460022EE
:1048000020210E48FDF7CAFB0520FDF70FF94FF4F4
:104810007A70012105AA0B46CDE9002102902246BB
:104820004E210748FDF77AFE012220210348FDF7BB
:10483000B5FB0C20FDF7FAF806B010BD000C0140E6
:10484000F40200200EB5012211032248FDF7A6FB59
:10485000002204211F48FDF7A1FB0020034640F27F
:10486000C232114600901C4803F0BCFC08B1012084
:104870000EBD40F2FF31184802F002FB08B10120E2
:10488000F6E700200121FF230246CDE900100C21AC
:10489000114803F0A5FD08B10120E9E702A90E487F
:1048A00002F070FC08B10120E2E79DF8080040F03A
:1048B000040002909DF80810074803F0F9FC08B1C5
:1048C0000120D5E7044802F025FB08B10120CFE71D
:1048D0000020CDE7000C01402C00002008B500228C
:1048E0004FF480510E48FDF759FB012204210C487A
:1048F000FDF754FB0020034640F281321146009040
:10490000084803F06FFC08B1012008BD40F2FF31F8
:10491000044802F0B5FA08B10120F6E70020F4E7F8
:10492000000C01402C0000201FB58E4802F0F0FC66
:10493000044614B18CA002F0F7FE0121894804F06E
:104940002BF804462CB18EA002F0EEFE854802F052
:1049500055FB0021834804F061F804462CB190A077
:1049600002F0E2FE7F4802F049FB01217D4803F09E
:10497000F5FE04462CB194A002F0D6FE794802F070
:104980003DFB03220221774803F058FE04462CB178
:1049900096A002F0C9FE734802F030FB3021714846
:1049A00003F0B2FF04462CB198A002F0BDFE6D48A2
:1049B00002F024FB01216B4803F08CFE04462CB16D
:1049C0009DA002F0B1FE674802F018FB0022112101
:1049D000644804F0EFF804462CB1A0A002F0A4FE55
:1049E000604802F00BFB0020012304220921009003
:1049F0005C4803F09FFC04462CB1A0A002F094FE9A
:104A0000584802F0FBFA03AAA749564802F084FB73
:104A100004462CB1A5A002F087FE524802F0EEFA3F
:104A20005048039903F0DEFE04462CB1A9A002F021
:104A30007BFE4C4802F0E2FA00221146494803F09E
:104A400085FB04462CB1ACA002F06EFE454802F096
:104A5000D5FA0021434803F01FFD04462CB1B1A054
:104A600002F062FE3F4802F0C9FA00231A461946D6
:104A70003C4803F011FB04462CB1B5A002F054FEF3
:104A8000384802F0BBFA374802F0B0F904462CB1BE
:104A9000B7A002F049FE334802F0B0FA43F24441B5
:104AA000304803F041FD04462CB1BBA002F03CFEAF
:104AB0002C4802F0A3FA02A92A4802F0E7FB0446B8
:104AC0002CB1BEA002F030FE264802F097FA9DF805
:104AD000080040F0040002909DF80810214804F0FE
:104AE00027F804462CB1BEA002F01EFE1D4802F0BD
:104AF00085FA94211B4803F0C5FE04462CB1C1A0E1
:104B000002F012FE174802F079FA3821154803F036
:104B100053FD04462CB1C3A002F006FE114802F07A
:104B20006DFA01A90F4802F06FFB04462CB1C4A036
:104B300002F0FAFD0B4802F061FA9DF8040040F023
:104B40001E0001909DF80410064803F0AFFF0446D4
:104B50002CB1C5A002F0E8FD024802F04FFAFFF7C1
:104B600071FE1FBD2C0000206C6C636336383A2048
:104B7000696E6974206661696C65642E0A000000C4
:104B80006C6C636336383A20736574207374616E9D
:104B9000646279206661696C65642E0A0000000019
:104BA0006C6C636336383A2073746F702074696D6F
:104BB0006572206F6E20707265616D626C65206633
:104BC00061696C65642E0A006C6C636336383A2048
:104BD00073657420726567756C61746F72206D6F98
:104BE0006465206661696C65642E0A006C6C6363A1
:104BF00036383A2073657420706120636F6E666981
:104C000067206661696C65642E0A00006C6C6363E2
:104C100036383A2073657420727820747820666183
:104C20006C6C6261636B206D6F6465206661696C9A
:104C300065642E0A000000006C6C636336383A200D
:104C4000736574207061636B65742074797065207E
:104C50006661696C65642E0A000000006C6C636319
:104C600036383A2073657420747820706172616DF3
:104C700073206661696C65642E0A00006C6C636366
:104C800036383A20736574206C6F7261206D6F64E2
:104C9000756C6174696F6E20706172616D732066EE
:104CA00061696C65642E0A0000389C1C6C6C63633F
:104CB00036383A20636F6E7665727420746F207296
:104CC00065676973746572206661696C65642E0A34
:104CD000000000006C6C636336383A207365742002
:104CE0007266206672657175656E637920666169AA
:104CF0006C65642E0A0000006C6C636336383A20E1
:104D000073657420627566666572206261736520E2
:104D100061646472657373206661696C65642E0AF0
:104D2000000000006C6C636336383A2073657420B1
:104D30006C6F72612073796D62206E756D2074697D
:104D40006D656F7574206661696C65642E0A00007C
:104D50006C6C636336383A207265736574207374C3
:104D6000617473206661696C65642E0A000000003E
:104D70006C6C636336383A20636C656172206465DD
:104D800076696365206572726F7273206661696C03
:104D900065642E0A000000006C6C636336383A20AC
:104DA000736574206C6F72612073796E6320776F06
:104DB0007264206661696C65642E0A006C6C6363C2
:104DC00036383A20676574207478206D6F64756C8E
:104DD0006174696F6E206661696C65642E0A0000FB
:104DE0006C6C636336383A20736574207478206D78
:104DF0006F64756C6174696F6E206661696C65645F
:104E00002E0A00006C6C636336383A207365742098
:104E10007278206761696E206661696C65642E0A2C
:104E2000000000006C6C636336383A2073657420B0
:104E30006F6370206661696C65642E0A0000000073
:104E40006C6C636336383A2067657420747820632D
:104E50006C616D7020636F6E666967206661696C56
:104E600065642E0A000000006C6C636336383A20DB
:104E700073657420747820636C616D7020636F6E4D
:104E8000666967206661696C65642E0A000000002F
:104E900030B585B004460D46FFF720FD002001A97E
:104EA00031C10490012000230C22014600900648E5
:104EB00002F008FF20B1FFF7C5FC012005B030BDAE
:104EC000FFF7C0FC0020F9E72C00002010B588B0E7
:104ED000044620216846FBF7A4F9224608A168464B
:104EE00000F0E4FE684600F055F909A10948FBF717
:104EF000A3F910B9012008B010BD0020FBE70000A5
:104F000041542B4E534F434C3D25640D0A00000085
:104F10004F4B00004C09002070B592B004460D467E
:104F20001646402102A8FBF77CF92B46224609A130
:104F300002A8009600F0BAFE02A800F02BF90AA120
:104F40000A48FBF779F910B9012012B070BD0020B2
:104F5000FBE7000041542B4E534F434F3D25642C3B
:104F600025732C25640D0A004F4B00004C090020CE
:104F700070B5044609A000F00DF90EA10E48FBF72C
:104F80005BF908B9012070BD0CA10B48FBF754F97F
:104F90000546E879303820700020F4E741542B4E64
:104FA000534F43523D53545245414D2C362C302CD7
:104FB000300D0A004F4B00004C0900202B4E534F80
:104FC00043523A0010B502A4204600F0E3F810BDA9
:104FD00041542B464153544F46463D300D0A000084
:104FE00010B500F0A7F910BD10B506A000F0D2F87A
:104FF00007A10A48FBF720F908B9012010BD0020DD
:10500000FCE7000041542B43474154543F0D0A0034
:105010002B43474154543A31000000004C09002012
:1050200010B500F011F803A000F0B4F803A000F0F0
:10503000B1F810BD415445310D0A000041542B43D5
:10504000474D520D0A00000070B511A42046FBF731
:1050500005F985B24FF47A732A4621460E48FEF7C9
:10506000B0FF41F2883380220C490B48FEF748FF1D
:105070000A48FBF7F3F80A49088008460088002828
:1050800005DD0020088080210448FBF7CAF870BDC8
:1050900041542B52420D0A0044040020CC08002049
:1050A00028000020F8B506460F460125052407E034
:1050B000FFF79AFF0546601E44B26420FCF7B6FC79
:1050C000012D01D1002CF3DC0CB90120F8BD052421
:1050D0000125FF20009008E06846FFF749FF0546DC
:1050E000601E44B26420FCF7A1FC012D01D1002C0C
:1050F000F2DC0CB90120E9E70524012509E04AF2B8
:10510000495220A19DF80000FFF706FF0546601EEA
:1051100044B2012D01D1002CF1DC2CB99DF8000026
:10512000FFF7D4FE0120D1E70524012508E03A4627
:1051300031469DF8000000F083F80546601E44B239
:10514000012D01D1002CF2DC2CB99DF80000FFF7F5
:10515000BDFE0120BAE70524012506E09DF8000008
:10516000FFF7B4FE0546601E44B2012D01D1002CAC
:10517000F4DC0CB90120A9E70120FCF75DFC00205C
:10518000A4E700003131322E3132352E38392E3835
:105190000000000038B504462046FBF75FF885B2F2
:1051A0004FF47A732A4621461D48FEF70AFF4FF452
:1051B00080711C48FBF735F800201B49088000BFB0
:1051C00040F6B830194B8022194900901448FEF778
:1051D00017FD16480088002816DD1249124A128869
:1051E000881812490A881249FBF702F80E4800880D
:1051F0000E49098808440C49088080210C48FBF7B7
:1052000010F80020094908800AA10648FBF714F8A5
:1052100028B909A10348FBF70FF80028D0D038BD02
:10522000440400204C0900202A000020280000200F
:10523000CC0800204F4B00004552524F5200000056
:105240002DE9FC5F804689461446012000EB4400AE
:105250001FFA80FAD346584600F0A2FD0546514693
:105260002846FAF7DEFF002608E019F8062005EBCD
:1052700046001EA100F01AFD701C86B2A642F4DBA7
:105280000120234642461BA1CDE90050214800F0F1
:105290000DFD2048FFF77EFF4FF400711D48FAF71F
:1052A000C0FF012342461CA11A4800F0FFFCFF2763
:1052B0000AE00520FCF7BAFB1648FFF76BFF1B4816
:1052C000008809381A490F5C302F01D0312FF0D1F6
:1052D000302F05D1284600F035FD0120BDE8FC9FA8
:1052E000284600F02FFD0020F8E700002530325856
:1052F0000000000041542B4E534F53443D25642C75
:1053000025642C25732C30783230302C25640D0A1E
:10531000000000004C0A002041542B5345515545D4
:105320004E43453D25642C25640D0A002A000020CB
:105330004C09002010B5012251030848FCF72EFE4D
:105340000520FCF773FB00224FF400510348FCF7E3
:1053500025FE0520FCF76AFB10BD0000000C014093
:1053600000B585B00020019002900390049000BF2A
:105370003348806940F010003149886108468069EF
:1053800000F01000009000BF00BF00BF0846806919
:1053900040F0200088610846806900F020000090FD
:1053A00000BF00BF00BF0846806940F0040088616C
:1053B0000846806900F00400009000BF00BF00BFF5
:1053C0000846806940F0080088610846806900F05E
:1053D0000800009000BF00BF012210211948FCF70F
:1053E000DDFD002243F205011748FCF7D7FD01223D
:1053F00028211548FCF7D2FD1020019001200290D1
:10540000002003900220049001A90E48FCF72EFC16
:1054100043F22D0001900120029000200390022011
:10542000049001A90848FCF721FC0220019000200B
:105430000290039001A90448FCF718FC05B000BDD8
:105440000010024000080140000C014010B50B485C
:105450000B4908600B484860002109488160C16021
:105460004FF480410161002141618161C1610162AC
:10547000FCF7B2FD08B1FCF748FB10BD005400403A
:10548000F4020020A086010010B508480849086011
:105490004FF0FF3048604FF4807105488160FDF7A0
:1054A000F3FE08B1FCF731FB10BD000000280040FE
:1054B0004803002010B50E480E4908604FF4827072
:1054C000486000210B488160C160016141614FF477
:1054D000007181611021C16100210162416281621C
:1054E0000A21C162FDF7F5FF08B1FCF70EFB10BD04
:1054F000003001405C03002010B50B480B490860E8
:105500004FF4E1304860002108488160C1600161CA
:105510000C21416100218161C161FEF705FC08B1E8
:10552000FCF7F3FA10BD000000380140B40300207E
:1055300010B50B480B4908604FF416504860002125
:1055400008488160C16001610C21416100218161D5
:10555000C161FEF7E9FB08B1FCF7D7FA10BD000006
:1055600000440040FC03002010B50B480B490860C4
:105570004FF416504860002108488160C160016105
:105580000C21416100218161C161FEF7CDFB08B1B1
:10559000FCF7BBFA10BD00000048004044040020A6
:1055A00000BFFEE700BFFEE77047000008B50849EE
:1055B0000968C9084FF47A72B1FBF2F141430091D6
:1055C00000BF00BF00994A1E00920029F9D108BD12
:1055D0000C000020014600BF080900EB80004200DB
:1055E00001F00F001044C0B270470146002203E0F2
:1055F000521CA1F10A00C1B20A29F9D2100741EAEE
:10560000106070472DE9F0470646884600270024C1
:105610000025A146F77B747BB57B00BF40E0012CE1
:105620000BD0032C09D0052C07D0072C05D0082C53
:1056300003D00A2C01D00C2C0CD11F2D01D26D1CD3
:105640002CE00C2C02D0641C012527E0012401254C
:105650007F1C23E0042C05D0062C03D0092C01D09C
:105660000B2C06D11E2D01D26D1C17E0641C0125E8
:1056700014E0022C12D11C2D01D26D1C0EE01C2D49
:1056800008D1B8B200F053F808B16D1C06E0641CF4
:10569000012503E01D2D01D1641C012509F101093B
:1056A000C145BCD3F7737473B573EAB2E1B238463F
:1056B00000F07CF83073BDE8F08770B50446002533
:1056C000FCF772FC054607E0FCF76EFC401BB0F5EA
:1056D0007A7F01D9032070BD2068406800F0200067
:1056E0000028F1D02068406840F010002168486030
:1056F0000020F0E770B5044600252068406820F0DF
:10570000100021684860FCF74FFC054607E0FCF7F5
:105710004BFC401BB0F57A7F01D9032070BD206897
:10572000406800F020000028F1D00020F6E7014694
:1057300001F0030008B1002070476420B1FBF0F2D3
:1057400000FB121008B10120F6E74FF4C870B1FB5E
:10575000F0F200FB121008B90120EDE70020EBE7A2
:105760000146002200230868006A82B20868406A85
:1057700083B243EA0240704730B50146002200235D
:10578000002400200D68AD69AAB20D68ED69ACB2C5
:105790000D68AD69ABB29A4205D00D68ED6963F34F
:1057A0001F45284601E044EA024030BDF0B50446FA
:1057B0000B460021002504F5FA61032B1BD2C3EB35
:1057C000C30000EB03100926B0FBF6F01044001DE7
:1057D0004618481E06EB90066427B0FBF7F0361A11
:1057E000481EBF00B0FBF7F030440726B0FBF6F7C9
:1057F00006FB17051AE0C3EBC30000EB03100926F4
:10580000B0FBF6F01044001D084400EB9100642644
:10581000B1FBF6F6801B4FF4C876B1FBF6F63044C8
:10582000801E0726B0FBF6F706FB1705E8B2F0BDB1
:1058300070B504460D4600262046FFF73EFF08B12E
:1058400001260AE0280C21680862A8B22168486293
:105850002046FFF74FFF00B10126304670BD70B5FE
:1058600004460D4600262046FFF727FF08B1012613
:105870000AE0280C21688861A8B22168C861204626
:10588000FFF738FF00B10126304670BDF8B5044679
:105890000E4615466068B0F5827F0DD1A068B0F560
:1058A000004F03D0A068B0F5806F05D12068006874
:1058B00020F04000216808606068B0F5827F11D157
:1058C000A068B0F5806F0DD133460022012120463B
:1058D000009500F039F898B1606D40F020006065E7
:1058E0000320F8BD3346002280212046009500F0B9
:1058F0002BF828B1606D40F0200060650320F0E7D0
:105900000020EEE7F8B504460E4615463346012260
:1059100002212046009500F017F828B1606D40F094
:10592000200060650320F8BD334600228021204618
:10593000009500F009F828B1606D40F02000606526
:105940000320F0E70020EEE72DE9F84F04460D466E
:1059500090461E46DDF82890FCF726FBA0EB0900D8
:10596000371AFCF721FB82462C480068C0F3CB3085
:105970007843009045E0701C002842D0FCF714FBEF
:10598000A0EB0A00B84200D2A7BB2068406820F014
:10599000E000216848606068B0F5827F0DD1A068A2
:1059A000B0F5004F03D0A068B0F5806F05D1206836
:1059B000006820F0400021680860A06AB0F5005F30
:1059C0000DD100BF2068006820F4005021680860F5
:1059D0002068006840F400502168086000BF012082
:1059E00084F8510000BF002084F8500000BF03205D
:1059F000BDE8F88FFFE7009800B900270098401E27
:105A00000090206880682840A84201D1012000E071
:105A100000204045AFD10020EAE700000C00002044
:105A2000704710B5FCF766FE10BD00B593B0282195
:105A300009A8FAF7F6FB142104A8FAF7F2FB0020F4
:105A40000090019002900390092009904FF480305B
:105A50000A9000200B9001200D900F9002201090D2
:105A6000C10311914FF4E011129109A8FDF758F903
:105A700008B1FCF74AF80F2004900220059000209E
:105A800006904FF48060079000200890022104A83F
:105A9000FDF722F808B1FCF738F801200090400229
:105AA00001906846FCF780FF08B1FCF72EF813B0B0
:105AB00000BD704700BF00BF02680C3252E8002FE3
:105AC00022F4907102680C3242E80013002BF3D1EB
:105AD00000BF00BF00BF0268143252E8002F22F05E
