:020000040800F2
:10000000E023002005010008296400084748000893
:10001000256400080D1D0008A96C00080000000000
:10002000000000000000000000000000D165000892
:10003000611D0008000000002D640008D365000861
:100040001F0100081F0100081F0100081F01000810
:100050001F0100081F0100081F0100081F01000800
:100060001F0100081F0100081F0100081F010008F0
:100070001F0100081F0100081F0100081F010008E0
:100080001F0100081F0100081F0100081F010008D0
:100090001F0100081F0100081F0100081F010008C0
:1000A0001F0100081F0100081F0100081F010008B0
:1000B0001F0100081F0100081F0100081F010008A0
:1000C0001F0100081F0100081F0100081F01000890
:1000D0001F0100081F010008996C00081F0100089B
:1000E0001F0100081F0100081F010008DFF810D0E1
:1000F00001F0ECF900480047719C0008AFF3008064
:10010000E02300200648804706480047FEE7FEE758
:10011000FEE7FEE7FEE7FEE7FEE7FEE7FEE7FEE7B7
:1001200041660008ED000008202A04DB203A21FA8D
:1001300002F00021704721FA02F3D040C2F1200200
:10014000914008431946704710B540EA0104034640
:10015000A40703D009E010C9121F10C3042AFAD261
:1001600003E011F8014B03F8014B521EF9D210BD08
:10017000D2B201E000F8012B491EFBD270470022E9
:10018000F6E710B513460A4604461946FFF7F0FF96
:10019000204610BD30B505462A460B4612F8010B25
:1001A00013F8014B08B1A042F8D01CB1002802D0CE
:1001B0006D1CF1E7284630BD10B5044604E00B780D
:1001C00000F8013B03B1491C521EF8D2204610BD75
:1001D000CAB2401E10F8011F8A4202D00029F9D18C
:1001E00000207047421C10F8011B0029FBD1801A27
:1001F0007047034611F8012B00F8012B002AF9D1B2
:10020000184670470FB400B58DB010A909900B9037
:1002100000914FF0FF300A9000200C9005480690A6
:10022000054807906A4609A80F9900F0ADFF0DB088
:100230005DF814FBA5110008C31100080FB400B548
:100240008DB010A909900B9000914FF0FF300A90EB
:1002500000200C9005480690054807906A4609A8BA
:100260000F9900F091FF0DB05DF814FBA511000887
:10027000C31100082DE9FF5F1D464FF0FF3BD5E994
:10028000014691465F464FF00008A9697F1C01981E
:100290008847296A824688470028F6D1BAF1FF3F8D
:1002A0000CD024F4C064002E19DD600614D5BAF118
:1002B0002B0F09D0BAF12D0F0ED103E0584604B030
:1002C000BDE8F09F44F48064A9697F1C01988847C9
:1002D000761E8246002E02DDBAF1300F03D0B9F14E
:1002E000000F26D032E0A969761E44F400747F1C0A
:1002F000019888478246002E05DDBAF1780F06D0B6
:10030000BAF1580F03D0B9F1000F10D01EE0B9F1C7
:10031000000F02D0B9F1100F18D1A969761E24F48C
:1003200000747F1C019888478246102002E0082054
:1003300000E00A20814609E008FB0908A969761E49
:1003400044F400747F1C019888478246002E05DD26
:100350004946504600F059FE0028EDDAE969019857
:100360008847A00502D46FF00100A8E7E00725D177
:10037000600613D5600502D5C8F1000000E04046D4
:1003800029680A1D2A600968220501D5087015E050
:10039000220701D5088011E008600FE02868011DE0
:1003A00029600068210502D580F8008006E0210759
:1003B00002D5A0F8008001E0C0F8008038467EE752
:1003C0002DE9FF5FD2E901A74FF000089169994636
:1003D0001446DDF838B0464601988847054659EA84
:1003E0000B0005D009E0A169761C019888470546F5
:1003F000216A284688470028F5D1681C03D05FEAA7
:10040000CA7005D015E04FF0FF3004B0BDE8F09F92
:100410002068011D2160D0F800800AE05FEACA7000
:1004200001D108F8015BA169761C7F1E01988847FD
:100430000546002F1ADD681C18D0B9F1000F0DD049
:10044000E81705EBD060421120F01F0059F8221088
:100450002A1A012090400142E0D107E0BBF1000FD1
:10046000DCD1216A284688470028D7D0E169019865
:100470008847BBF1000F07D1002E05DD5FEACA7087
:1004800002D1002188F80010A068B84203DDBBF15A
:10049000000F03D017B16FF00100B6E73046B4E7A4
:1004A0002DE9FF4F087883B09946FF2805D0491CF5
:1004B0002D2804D00024002008E000200BE00124B7
:1004C000F9E700EB800003EB4000491C0B78FF2BA1
:1004D000F7D104B1404200230293147819461D4617
:1004E0002D2C01D02B2C04D1521C2D2C13D00024E8
:1004F0000294AA461478FF2C0FD00A25A3FB057896
:1005000001FB05814FF0000C03FB0C11521CE31999
:100510004AEB0101EEE70124EAE7814453EA0100D6
:1005200002D019F5C87F06DA03980021C0E900114E
:1005300007B0BDE8F08F0025AE4E2F46DFF8B88239
:10054000184600F076FFCDE90001B9F1000002DAAB
:10055000C9F1000400E004460023A74A1AEB030B8C
:1005600042EB045A12E0E00707D02A4633463846E9
:10057000414600F0FAFA074688462A4633461046B6
:10058000194600F0F2FA05460E466410002CEAD136
:10059000DDE90001B9F1000F5A46534606DA00F0D2
:1005A00056FB3A46434600F052FB05E000F0DDFA08
:1005B0003A46434600F0D9FA029A0AB181F0004166
:1005C000039AC2E90001B3E72DE9FF4F1F468DB042
:1005D000D7E901464FF0FF382E2045464FF000097D
:1005E0000B90B9696D1C0E988847396A8246884716
:1005F0000028F6D1BAF1FF3F0AD024F4D064002ECF
:1006000011DDBAF12B0F08D0BAF12D0F0BD102E09A
:10061000404611B08DE744F48064B9696D1C0E98B2
:1006200088478246761E6946600501D52D2000E088
:100630002B208DF8000001F1010B0DF1200809E0DD
:10064000B9696D1C0E98884782460F9844F400746F
:10065000761E0560002E02DDBAF1300FF0D00B9946
:100660008A453ED144F0800406E00F99681CA9F148
:10067000010944F400740860B9696D1C761E0E9877
:10068000884782463028F0D02BE00B998A4505D167
:10069000200603D444F08004761E18E0504606F08D
:1006A000A7FC08B30DF11301761E44F400748B45CA
:1006B00008D2AAF130000BF8010B200607D5A9F1EA
:1006C000010003E0200602D409F101008146A005E3
:1006D00002D50F99681C0860B9696D1C0E9888478F
:1006E0008246002ED1DC53E0002E51DDBAF1650FB9
:1006F00002D0BAF1450F4BD1A00549D5B9696D1C9F
:1007000024F44074761E0E9888478246002E0CDD35
:100710002B2804D0BAF12D0F07D144F48074B969A5
:100720006D1C0E9888478246761EE00501D52D2166
:1007300000E02B2108F8011BCDF82C8021E00DF101
:100740002901761E44F4007488450CD2AAF13000C9
:1007500010F0FF0088F8000002D10B99884509D9F4
:1007600008F1010806E0E00501D5244801E042F265
:100770000F708146B9696D1C0E98884782460F98A4
:100780000560002E04DD504606F032FC0028D6D16C
:10079000F9690E988847FF208BF8000088F8000060
:1007A0000020069007904B466A4608A906A8FFF766
:1007B00077FEA00502D46FF001002AE714F0240FA1
:1007C0000AD0E00714D1DDE906123868031D3B604A
:1007D0000068C0E900120BE0DDE9060100F07AFBD9
:1007E0000146E00704D13868021D3A6000680160E4
:1007F00028460EE7000014400000F03FF1D8FFFF4C
:100800002DE9F05F93460F4680460446002606F029
:10081000A9FAD0F80090824614F8015B2DB100F0DF
:10082000E7FB0068405DC007F6D12B2D02D02D2DCF
:100830001AD0641E0021CAF800105A4639462046D4
:1008400000F0D0FC014627B13868A04201D1C7F8BA
:100850000080DAF80000022809D0CAF8009070057C
:1008600005D54842BDE8F09F46F48066E2E70846B9
:10087000F8E770B5064606F075FA046805460A22E0
:100880000021304600F0FDFC2C6070BDF0B480EA21
:100890000102D40F4200B2EB410F02D202460846D9
:1008A00011464A0042D0C30DDDB2C1F3C752AD1AA2
:1008B000202D35DAC1F3160141F4000204B1524291
:1008C000C5F1200602FA06F12A411044B3EBD05FCD
:1008D00023D0C4B1012DA0EBC35009DCF0BC4FF014
:1008E000004202EAC352DBB200F5000000F00ABD8C
:1008F000400000F1807000EBC350A0F1807040EA2E
:10090000D170490009E0490841EAC071A0EBC35029
:1009100000F50000400800EBC350F0BC00F0E9BC5B
:100920006142012202EB4101001BF6E7F0BC704777
:1009300081F00041AAE780F00040A7E780EA0102C9
:1009400010B502F00043400022D04A001FD0010E33
:1009500001EB1261C0F35600C2F3560240F40000EE
:1009600042F40002A0FB022000047F39140400D0EE
:10097000401C50EA124001D44000491EC2B20C068D
:1009800004EBD010401C4008802A02D003E0002075
:1009900010BD20F00100002900DA0020184310BD2E
:1009A00030B480EA010202F0004530F0004221F04C
:1009B000004013D090B1C30DD40DC2F31601C0F3A3
:1009C0001600E41A41F4000140F400027D34914223
:1009D00001D3641C00E04900002C02DA30BC002086
:1009E00070474FF400000023914201D3891A03435A
:1009F00040084FEA4101F7D151B1914202D14FF085
:100A0000004105E002D24FF0010101E06FF0010169
:100A100003EBC450284430BC00F06BBC2DE9FE4F02
:100A2000804681EA0300C00F0C46009021F000418F
:100A300023F00045B8EB0200A94105D2404621460B
:100A400090461C460B46024623F00040104347D018
:100A5000270DC7F30A00C3F30A510290401A019010
:100A600040286BDAC3F3130040F4801B00989246D1
:100A700020B10023D2EB030A63EB0B0B019859461C
:100A8000C0F14002504600F092FA06460D4650462C
:100A90005946019A00F09AFA10EB080061410024CF
:100AA00087EA115284EAE7731A4340D0009A62B38E
:100AB000019A012A4FEA075215DC001B61EB020183
:100AC0004FF0004202EA0752CDE90042001C41F516
:100AD000801132462B4600F05EFC03B0BDE8F08F7B
:100AE00040462146F9E7001B61EB0201001C41F57D
:100AF000801300185B412018A2F5001747EB030193
:100B000040EAD570B6196D4111E06D084FEA36061E
:100B100045EAC0754FEA0752001B61EB0201001C59
:100B200041F5801149084FEA300000195141324621
:100B30002B4603B0BDE8F04F00F01EBC0098012228
:100B400040000023D0EB020263EBE07300982146E3
:100B50004FEAE074B8EB000061EB0401E9E783F0D1
:100B600000435BE781F0004158E72DE9FE4F81EA41
:100B7000030404F0004421F0004100944FF0000B06
:100B800023F0004350EA01045ED052EA03045BD034
:100B9000C3F30A54C1F30A552C44A4F2F33401946C
:100BA000A0FB0254C1F3130141F48011C3F31303FA
:100BB00043F4801301FB024400FB034E840A970AAE
:100BC00044EA815447EA8357A4FB076802958D0ADB
:100BD00005FB07854FEA932C04FB0C542705029D67
:100BE0004FEA065847EA1637B5EB08056EEB070CD7
:100BF000870E920E47EA811742EA8312A7FB020191
:100C0000B6EB0B0164EB00042B0D43EA0C335E18CA
:100C100044EB1C50DA465146E7FB0201C5F31304CE
:100C20004FEA0B3343EA14534FEA0432019C43EA80
:100C30000603A4F10C040294009CCDE900B400F07A
:100C4000AAFB03B0BDE8F08F00200146F9E72DE9CB
:100C5000F04D81EA030404F0004B21F000451446F6
:100C60004FF0000A23F0004150EA050220D054EA78
:100C700001021DD0C5F30A570246C5F31303C1F3A1
:100C80001300C1F30A5640F4801543F48013A7EB18
:100C90000608101BD64608F2FD3873EB050002D398
:100CA00008F1010801E092185B41B8F1000F03DA86
:100CB00000200146BDE8F08D00204FF4801106466B
:100CC00084460EE0171B73EB050705D3121B63EB7D
:100CD000050306434CEA010C49084FEA300092181C
:100CE0005B4150EA0107EDD152EA030012D082EADB
:100CF000040083EA0501084305D0101BAB4106D26E
:100D00000122002306E000224FF0004302E06FF0D2
:100D1000010253101AEB06004CEB085110EB0A00CD
:100D200041EB0B01BDE8F04D00F026BBC10F80EA9E
:100D3000E0700844CA079623002100F0E3BA962326
:100D40000022114600F0DEBA0EB5C10F80EAE07055
:100D50000844CA07002140F233438DE80E000A46DA
:100D60000B4600F018FB03B000BD0EB540F2334156
:100D700002910021CDE900110A460B4600F00BFB61
:100D800003B000BD00F0004220F00040C10DC0F3F0
:100D9000160040F400007F2901DA002070479629F0
:100DA00003DCC1F19601C84001E096398840002A71
:100DB000F4D04042704720F00040C10DC0F316004F
:100DC00040F400007F2901DA00207047962903DCF7
:100DD000C1F19601C840704796398840704770B598
:100DE000C1F30A5201F000450024C1F3130140F29F
:100DF000FF3341F480119A4201DA002070BD40F2C5
:100E000033439A42A2F2334203DC5242FFF78CF999
:100E100000E090402C43F1D0404270BDC1F30A5233
:100E200010B5C1F3130140F2FF3341F480119A422F
:100E300001DA002010BD40F233439A42A2F233425D
:100E400003DC5242FFF770F910BD904010BD00F076
:100E5000004230F000400AD0C10D01F56071C0F3CE
:100E6000160042EA0151C2084007114370470020B2
:100E70000146704730B5041E71F1000404DB4FF0E9
:100E80000044404264EB0101141E73F1000405DBD1
:100E90001C464FF00043524263EB04038B4208BFF1
:100EA000824230BD30B5041E71F1000404DB4FF006
:100EB0000044404264EB0101141E73F1000405DBA1
:100EC0001C464FF00043524263EB0403994208BFB3
:100ED000904230BD01F0004330B421F0004150EAAF
:100EE000010206D00A0DA2F56072C1F31301002AB7
:100EF00002DC30BC00207047440F44EAC104C1004A
:100F0000E01830BC00EBC25000F0F3B9002801DB60
:100F1000C0F10040002901DBC1F10041814270476E
:100F200030B50B46014600202022012409E021FAB9
:100F300002F59D4205D303FA02F5491B04FA02F5B6
:100F40002844151EA2F10102F1DC30BD2DE9F05F4D
:100F50000546002092469B46884606468146402428
:100F60001BE02846414647462246FFF7DDF8534638
:100F70005A46C01A914110D311461846224600F035
:100F800016F82D1A67EB01084F4622460120002172
:100F900000F00DF817EB00094E41201EA4F10104EA
:100FA000DFDC484631462A464346BDE8F09F202A0A
:100FB00004DB203A00FA02F1002070479140C2F1B0
:100FC000200320FA03F3194390407047202A06DBE0
:100FD000CB17203A41FA02F043EAE07306E041FA07
:100FE00002F3D040C2F120029140084319467047F5
:100FF00000487047BCAC000810B50446FFF7F8FF86
:101000000068005D00F0010010BD3A2800D23038C1
:1010100020F02002412A01D3A2F13700884201D3F7
:101020004FF0FF3070472DE9FF4F1C4681B0002183
:10103000D4E9016791464FF0FF358A468846A16999
:101040006D1C02988847216A834688470028F6D19C
:10105000BBF1FF3F0CD026F4C066002F1ADD7006EE
:1010600015D5BBF12B0F0AD0BBF12D0F0FD104E02A
:101070004FF0FF3005B0BDE8F08F46F48066A169FF
:101080006D1C029888477F1E8346002F02DDBBF14E
:10109000300F03D0B9F1000F2AD025E0A1696D1CF3
:1010A00046F400767F1E029888478346002F05DDB0
:1010B000BBF1780F06D0BBF1580F03D0B9F1000F88
:1010C00010D011E0B9F1000F02D0B9F1100F0BD11F
:1010D000A1696D1C26F400767F1E0298884783461E
:1010E000102000E0082081464FEAE970009017E0E8
:1010F0000A20F8E74346AAFB092803FB0980DDF82C
:1011000000C07F1E0AFB0C0112EB0B0A41EBEB78CF
:10111000A16946F4007605F10105029888478346E7
:10112000002F06DD49465846FFF76FFF5FEA000BC8
:10113000E0D5E16902988847B00502D46FF001005C
:1011400098E7F00718D1700610D57005514605D5FF
:101150000023D1EB030163EB080200E04246206864
:10116000031D23600068C0E9001205E02068011D2E
:1011700021600068C0E900A828467BE702681144A6
:101180001378016018467047D160044951610449E1
:10119000116200211161114600F0AAB97D11000809
:1011A000F90F0008426842B1016811F8013B23B110
:1011B000521EC0E90012184670470121C160881E06
:1011C000704742685AB1C368016843B983688B426B
:1011D00005D0491E521CC0E90012002070474FF094
:1011E000FF3070472DE9F05F8246007800271546F2
:1011F0008B460AF10104B946302801D09DB113E0B5
:1012000014F8010B0127782803D0582801D045B1E4
:101210000AE00DB1102D07D10027102514F8010B9D
:1012200002E0082500E00A250026B0460EE005FB96
:10123000080005FB06F1012701EB10461FFA80F8B4
:10124000B6F5803F00D3B94614F8010B2946FFF7E5
:10125000DCFE0028EBDABBF1000F05D00FB1641EF5
:1012600000E05446CBF80040B9F1000F06D005F07D
:1012700079FD02210160C81EBDE8F09F48EA0640E2
:10128000FAE72DE9F04791460F46804604460026CE
:1012900014F8015B2DB1FFF7ABFE0068405DC0079D
:1012A000F6D12B2D02D02D2D18D0641E4A4639467A
:1012B0002046FFF797FF27B13968A14201D1C7F84F
:1012C000008071054FF002040BD54042002803DD79
:1012D00005F048FD0460A007BDE8F08746F480668D
:1012E000E4E70028F8DA05F03DFD04606FF0004007
:1012F000F2E70029A8BF7047401C490008BF20F052
:101300000100704710B4B0FA80FC00FA0CF050EA0B
:10131000010404BF10BC704749B1CCF1200421FA8C
:1013200004F411FA0CF118BF012121430843A3EB87
:101330000C01CB1D4FEA00614FEA102042BF002094
:1013400010BC704700EBC35010440029A4BF10BC70
:101350007047401C490008BF20F0010010BC7047D6
:10136000420005D0C0F3C7525242914201DC002036
:10137000704700EBC150704710B5141E73F10004A4
:1013800008DA401C41F1000192185B411A4301D177
:1013900020F0010010BD2DE9F04D92469B4611B1A1
:1013A000B1FA81F202E0B0FA80F220329046FFF703
:1013B000FEFD04460F4640EA0A0041EA0B0153468F
:1013C0005A46084313D0114653EA010019D0C8F118
:1013D00040025046FEF7A8FE05460E4650465946C6
:1013E0004246FFF7E4FD084305D0012004E0204613
:1013F0003946BDE8F08D0020054346EAE0762C43EF
:1014000037430A986305E40AA0EB08000022FD0AAE
:1014100044EA47540A3002D500200146E9E70105B5
:1014200010196941DDE9084500196941BDE8F04D31
:10143000A2E70EB540F2334202920022CDE900222B
:101440001346FFF7A8FF03B000BDC1F30A52C1F372
:10145000130140F2FF3341F480119A4202DA002076
:101460000146704740F233439A42A2F2334202DC13
:101470005242FEF759BEFFF79ABD10B500F0004486
:1014800020F00040C20DC0F3160040F400007F2A97
:1014900007DA7D2A00DA7D22763A00FA02F100208E
:1014A00008E0962A09DCA2F1760100FA01F1C2F106
:1014B0009602D040FFF71DFF01E0963A9040002CC5
:1014C00000D0404210BD002070470000064C074D80
:1014D00006E0E06840F0010394E807009847103404
:1014E000AC42F6D3FEF706FE78AD000898AD0008D2
:1014F0002DE9F34F8BB04FF0000801F10C000C46C2
:101500004FF0010B46460DF1080A01906269012176
:1015100001989047051E2DD0252D2CD0216A884793
:10152000C0B16269012101989047216A884700286B
:10153000F7D1411E62690198904700E0761CA169CD
:101540000B988847216A88470028F7D1E1690B98F2
:101550008847DBE7A1690B9888470746A84201D175
:10156000761CD3E7E1690B9888477F1C02D1B8F15C
:10157000000F6FD047E1002762693D463946019868
:1015800090472A2804D162690121019890470125DA
:10159000DFF888926269012101989047A0F130013B
:1015A0000A290AD24F45E5DC07EB870100EB41072A
:1015B000303FDFD445F01005ECE7E90601D46FF0C9
:1015C00000476C280AD04C2814D0682815D06A2807
:1015D0000DD074281CD07A281AD01DE06269012130
:1015E000019890476C2802D045F0040514E045F0BE
:1015F00002050DE045F020050AE06269012101982D
:101600009047682802D045F0080505E045F40065DC
:101610006269012101989047C4E9015765283DD0CE
:1016200019DC58287AD00CDC452837D004DC252872
:1016300026D0412831D131E046282FD047282CD15F
:101640002CE05B2877D0612828D063287CD06428E0
:1016500023D15AE0D1E06F2848D008DC66281DD09D
:1016600067281BD0692821D06E2816D127E0702862
:1016700045D0732868D0752847D078280DD14DE023
:10168000A1690B988847054625283FF469AFE169B1
:101690000B9888476D1C3FF46AAFB4E023466A4656
:1016A0006FF001000B99FEF78FFF9FE045F04000BF
:1016B0006060A80723464FF0000236D43EE0E807FA
:1016C0007FF447AF2068011D21600068290501D51E
:1016D00006701BE7290701D5068017E7A90703D580
:1016E000F117C0E9006111E706600FE745F040001F
:1016F0006060A80723464FF0080216D41EE040F6AB
:101700000E0125EA0100606016E045F040006060CF
:10171000A80723464FF00A0207D40FE045F0400027
:101720006060A80708D5234610226FF001000B99CE
:10173000FFF779FC5AE007E0234610226FF0010022
:101740000B99FEF797FD51E04FF000094F464B46CD
:10175000632802D05B2807D041E02079C00601D47D
:101760000120A06001273AE06269012101989047B9
:101770005E2805D14FF001096269494601989047FA
:10178000216939B900210A46534643F82120491CF2
:101790000829FADBB0B3216969B9C11700EBD1623E
:1017A00053110AEB830122F01F02821A01200B68F9
:1017B000904003430B6062690121019890475D28C6
:1017C000E8D1B9F1000F09D00020514651F820208E
:1017D000D24341F82020401C0828F7DB02AB224608
:1017E00000976FF001000B99FEF7EAFD00280CDA74
:1017F000401C08D1BBF1000F05D04FF0FF300DB0F9
:10180000BDE8F08FFFE74046F9E7E90701D108F1AD
:10181000010806444FF0000B78E60000CCCCCC0C5D
:1018200010B503F0D9FA03F017FC04F0A1FA04F0A4
:1018300063FC044804F03AFA044614B90120024952
:10184000087010BD31000020300000202DE9F84361
:10185000614804F065F8614804F0B4F80A2000F02B
:1018600099FC04F019FC5E4908605E480078002885
:101870007ED1594988684FF08D41FFF759F80746E6
:1018800006F098FA05465449486806F093FA074668
:101890005149086806F08EFA80463946FEF7F6FF91
:1018A00006462946FEF7F2FF0446FFF784FA4E4942
:1018B0004E4A127841F822004849886806F07AFAC0
:1018C00006464649486806F075FA074643490868DF
:1018D00006F070FA80463946FEF7D8FF05463146D5
:1018E000FEF7D4FF0446FFF766FA41493F4A1278F3
:1018F00041F8220008463D49097850F8210000903F
:1019000039483A49097850F82130372239A140A0A6
:1019100005F0CCF935480078401C34490870084679
:101920000078052801DB0020087001202D4908708F
:1019300000241AE02C4951F82400FFF716FA054656
:101940000022374BFFF796FA0AD3294951F82400B1
:10195000FFF70BFA05460022324BFFF78BFA02D253
:10196000002020490870601CC4B2052CE2DB00E0B6
:1019700011E01C48007801282CD1194800682A4938
:10198000086000F0B9FD294908604D2219A128A07E
:1019900005F08CF91EE000F0AFFD24490968401AFB
:1019A000B0F5FA6F16D90E4800681F490968401A49
:1019B000012807D859220FA122A005F077F90120AC
:1019C000BDE8F8835E220BA123A005F06FF900208B
:1019D000044908700020F3E79C0F0020A80F0020A6
:1019E0003400002041000020B40F002040000020FF
:1019F000C80F00206170706C69636174696F6E5C00
:101A00004170705F7761726E696E672E63000000CF
:101A10005B25733A25645D25642C25640D0A00005E
:101A20000000E44000F09140380000203C0000201D
:101A30005B25733A25645DD2C9CBC6B5F8B5B90D3F
:101A40000A0000005B25733A25645DC0CFC8CBB5A2
:101A5000F8B5B9C1CB0D0A005B25733A25645DC0AA
:101A6000CFC8CBD4DAC5DCB2BD0D0A0010B500205A
:101A700003F0DCFA04F018F810BD10B564214FF43F
:101A80007F4003F04BFA03F041FA10BD2DE9F0431B
:101A90008FB0044600F042FD060400F039FD46EA2E
:101AA000002600F02FFD46EA000506F04FF88046BC
:101AB0002046FFF75AF9064632460B465CA14046DF
:101AC00005F0DAFF5C480068FFF74FF9064632463A
:101AD0000B465AA1404605F0CFFF2846FFF745F9CF
:101AE000064632460B4657A1404605F0C5FF00208A
:101AF0000B900C900D900E9054490868FFF7A7F9D1
:101B0000064632460B4652A10BA805F0DFF80BAA99
:101B100051A1404605F0CEFF0020079008900990A3
:101B20000A904A498868FFF792F9064632460B4602
:101B300047A107A805F0CAF807AA48A1404605F042
:101B4000B9FF00200690414800798DF81800002068
:101B50008DF8190006AA42A1404605F0ABFF00200F
:101B600005903A48007B8DF8140000208DF8150090
:101B700005AA3DA1404605F09DFF344A1F323CA115
:101B8000404605F097FF314A18323BA1404605F028
:101B900091FF2E490869FFF75AF9064632460B466F
:101BA00037A1404605F068FF0020019002900390A5
:101BB000049026494869FFF74AF9064632460B4623
:101BC00031A101A805F082F801AA31A1404605F033
:101BD00071FF1E4991F82700FFF7C7F80646324605
:101BE0000B462DA1404605F047FF1849886AFFF7CC
:101BF000BCF8064632460B462AA1404605F03CFF9B
:101C0000404606F007F881464846FEF7EBFA86B2F2
:101C10003146484600F04CF8322000F0BBFA40460E
:101C200005F0BAFF484605F0FFFF0FB0BDE8F083AE
:101C300073746174757300003400002073746570F0
:101C4000000000007575696400000000200200209B
:101C5000252E3466000000006C6174006C6F6E000D
:101C60006C61745F646972006C6F6E5F64697200AE
:101C7000646174650000000074696D650000000017
:101C80007370656564000000252E32660000000058
:101C900068646F70000000006669785F7361747536
:101CA0007300000074696D657374616D70000000ED
:101CB00070B505460E46002412480078D0B101E008
:101CC000601CC4B2324629460F48007804F0FEF882
:101CD000012801D1022CF3DB022C12DB0A48007828
:101CE00003F05AFF0020074908703146284603F0E8
:101CF000CBFC06E0044803F0D9FF10B901200149EC
:101D0000087070BD300000203100002000BFFEE7E9
:101D10002DE9FC5F83460C462046FFF715F8074681
:101D20004FF033320C4BFEF720FF81468A4658466F
:101D3000FFF70AF807464FF03332084BFEF715FF5E
:101D40004A465346CDE90001FEF768FE0546FFF717
:101D500046F800B2BDE8FC9F3333EB3F3333C33F5B
:101D6000704772B600BFFEE7F8B504462A21204648
:101D7000FEF72EFA054615B12078242801D0002060
:101D8000F8BD0026012002E0215C4E40401C291BCA
:101D90008142F9DC002000900222691C6846FEF7AF
:101DA0000BFA102200216846FEF72AFDC7B2BE4298
:101DB00001D10120E4E70020E2E7000070B504460D
:101DC000062513A12046FEF7E5F900B1002511A173
:101DD0002046FEF7DFF900B101250FA12046FEF7EE
:101DE000D9F900B102250DA12046FEF7D3F900B1C3
:101DF00003250BA12046FEF7CDF900B1042509A16A
:101E00002046FEF7C7F900B10525284670BD000041
:101E1000524D430056544700474741004753410045
:101E200047535600545854001FB5044601A802AB4E
:101E300003AA08A100902046FEF700FA9DF80C00C6
:101E400030B19DF808000E4981F8260001984861DC
:101E50001FBD000024474E4747412C252A662C25EC
:101E60002A662C252A632C252A662C252A632C20F9
:101E700020256868752C256868752C25660000008B
:101E8000200200202DE9F14F94B00FA807A908AA5D
:101E90000BABCDE90132CDE903100CA80EAB11AAB2
:101EA0005CA100901498FEF7C9F99DF8380041280C
:101EB0007DD10120634981F827009DF84000C87753
:101EC0009DF841105F4880F820109DF83E1080F882
:101ED00021109DF83F1080F822109DF83C1080F8EA
:101EE00023109DF83D1080F824109DF844005549BA
:101EF00008769DF84510534841769DF84610817646
:101F00009DF84710C1769DF8481001779DF849105B
:101F100041779DF82C004B4908719DF81C0008730F
:101F20000022494BDDE90C01FEF791FECDE90001ED
:101F3000FEF774FFC0B2642148430390FEF704FF2C
:101F40000646DDE90C23FEF70DFE044600223F4B5A
:101F5000FEF77DFE00223C4BCDE90401DDE90C01DA
:101F6000FEF775FE0446FEF759FFC6B23046FEF78F
:101F7000FCFE8046DDE90423FEF750FD8246FEF7B5
:101F8000A9FF3049086000222F4BDDE90801FEF768
:101F90005EFE0646FEF742FFC0B2642100FB01FA76
:101FA0005046FEF7D1FE8046DDE9082300E026E03A
:101FB000FEF7D8FD04460022244BFEF748FE00221F
:101FC000214BCDE90201DDE90801FEF740FE05469F
:101FD000FEF724FFC4B22046FEF7C7FECDE900019C
:101FE000DDE90223FEF71AFDCDE90401FEF772FFD9
:101FF0001449886000F080FA1249886207E09DF871
:102000003800562803D100200E4981F8270015B06A
:10201000BDE8F08F24474E524D432C253663252AC8
:1020200034632C25632C256C662C25632C256C666B
:102030002C25632C2020252A662C252A662C253663
:1020400063000000200200200000594000004E40C4
:10205000F8B504462646002507E009A13046FEF7FC
:1020600099F80646761C681CC5B2072DF5DB6A4652
:1020700004A13046FEF7E2F8034900980861F8BD74
:102080002C000000256600002002002001460022EE
:1020900091F82100022808D00420886300BF0020A6
:1020A00081F8200000BF012070470868006820F018
:1020B0000E000B6818600868006820F001000B68CB
:1020C000186091F8403001209840CB6B5860012097
:1020D00081F8210000BF002081F8200000BF1046D9
:1020E000E2E7000070B50446002594F821000228BC
:1020F00003D00420A063012548E02068006820F098
:102100000E00216808602068006820F00100216846
:1021100008601F492068884201D1012026E01C493F
:1021200014312068884201D110201FE0184928315D
:102130002068884201D1801518E015493C3120689B
:10214000884201D1801411E0114950312068884241
:1021500002D14FF4803009E00D4964312068884293
:1021600002D14FF4801001E04FF080700849083927
:102170004860012084F8210000BF002084F820007E
:1021800000BF606B10B12046616B8847284670BD68
:102190000800024070B5044600F0AEF90646254638
:1021A000681C10B104480078054400BF00F0A4F991
:1021B000801BA842FAD370BD080000202DE9F84723
:1021C0000346002294466EE14FF0010808FA02F43B
:1021D000D1F8008008EA0400A0427DD1DFF8DCA23B
:1021E000D1F80480A8EB0A09D0453AD014DCB8F144
:1021F000030F50D009DCB8F1000F31D0B8F1010F56
:102200001CD0B8F1020F49D120E0B8F1110F18D05D
:10221000B8F1120F42D11EE0B9F5881F25D006DCB7
:10222000B9F5803F20D0B9F5801F37D11AE0B9F554
:10223000001F18D0B9F5041F30D117E0D1F80CC039
:102240002DE0D1F80C8008F1040C28E0D1F80C80C6
:1022500008F1080C23E0D1F80C8008F10C0C1EE00A
:1022600000BF00BF00BF00BF00BF00BFD1F80880A3
:10227000B8F1000F02D14FF0040C0BE0D1F8088048
:10228000B8F1010F03D14FF0080C1C6102E04FF0D0
:10229000080C5C6103E04FF0000C00E000BF00BFE1
:1022A000FF2801D8984601E003F104084646FF28BC
:1022B00002D84FEA820803E0A2F108084FEA880832
:1022C0004746D6F800804FF00F0909FA07F928EAC7
:1022D00009080CFA07F900E088E048EA0908C6F89E
:1022E0000080D1F8048008F08058B8F1805F7DD17B
:1022F00000BFDFF8CC81D8F8188048F00108DFF87B
:10230000C091C9F81880C846D8F8188008F00108AC
:10231000CDF8008000BF00BF4FEAB9384FEA9209FC
:1023200058F829504FEA82784FEA18794FF00F0891
:1023300008FA09F825EA0805DFF88881434502D143
:102340004FF0000816E0DFF88081434502D14FF0DE
:1023500001080FE0DFF87481434502D14FF0020815
:1023600008E0DFF86C81434502D14FF0030801E03B
:102370004FF004084FEA82794FEA197908FA09F810
:1023800048EA0505DFF84C814FEA920948F82950E0
:10239000D1F8048008F48018B8F5801F0AD1DFF85E
:1023A0003881D8F8008048EA0008DFF82C91C9F895
:1023B000008009E0DFF82081D8F8008028EA0008D2
:1023C000DFF81491C9F80080D1F8048008F40018EF
:1023D000B8F5001F10D1DFF8008108F10408D8F823
:1023E000008048EA0008DFF8F09000E05AE009F1C8
:1023F0000409C9F800800DE0DFF8DC8008F104086A
:10240000D8F8008028EA0008DFF8CC9009F1040928
:10241000C9F80080D1F8048008F40038B8F5003F0E
:102420000ED1DFF8B480A8F10408D8F8008048EA9B
:102430000008DFF8A490A9F10409C9F800800DE0B4
:10244000DFF89480A8F10408D8F8008028EA000892
:10245000DFF88490A9F10409C9F80080D1F804805C
:1024600008F48038B8F5803F0ED1DFF86C80A8F111
:102470000808D8F8008048EA0008DFF85C90A9F165
:102480000809C9F800800DE0DFF84C80A8F10808C1
:10249000D8F8008028EA0008DFF83C90A9F1080984
:1024A000C9F80080521CD1F8008028FA02F8B8F16F
:1024B000000F7FF489AEBDE8F8870000000011101E
:1024C0000010024000080140000C014000100140D3
:1024D00000140140080001400804014002469368CE
:1024E0000B400BB1012000E0002070470AB10161F0
:1024F00001E00B0403617047014800687047000069
:10250000000000200148006870470000E8F7FF1F46
:102510000148006870470000ECF7FF1F01480068A1
:1025200070470000F0F7FF1F70B504460CB901209A
:1025300070BD94F83D0028B9002084F83C00204686
:1025400000F03EFB242084F83D002068006820F065
:102550000100216808602068006840F4004021689C
:1025600008602068006820F400402168086000F0DE
:10257000FFFC05465C496068884206D85B48854296
:1025800001D2012007E0002005E05948854201D230
:10259000012000E00020012800D1C9E75548B5FB23
:1025A000F0F62068406820F03F0030432168486022
:1025B0004D496068884201D8701C07E04FF496705E
:1025C00070434FF47A71B0FBF1F0401C2168096A46
:1025D00021F03F010843216808624349606888424E
:1025E00014D8681E61684900B0FBF1F0401CC0F3CC
:1025F0000B00042801D204203DE0681E61684900F8
:10260000B0FBF1F0401CC0F30B0034E0A06838B917
:10261000681E616801EB4101B0FBF1F0401C0AE06B
:10262000681E616801EBC10202EB0111B0FBF1F021
:10263000401C40F48040C0F30B0008B901201AE0B0
:10264000A06848B9681E616801EB4101B0FBF1F078
:10265000401CC0F30B000CE0681E616801EBC10276
:1026600002EB0111B0FBF1F0401CC0F30B0040F491
:10267000804040F400402168C9694CF6FF729143E4
:1026800008432168C861D4E9070108432168096843
:1026900021F0C001084321680860D4E90310084311
:1026A0002168896848F2FF329143084321688860B5
:1026B000D4E9050108432168C96821F0FF010843F6
:1026C0002168C8602068006840F001002168086047
:1026D00000202064202084F83D000020206384F83E
:1026E0003E0000BF24E70000A086010080841E0099
:1026F00000093D0040420F002DE9FE4F04460F4601
:1027000090469946DDE90CAB0E9E00200290FFF743
:10271000F3FE054694F83D00202872D119230122CA
:10272000CA492046009502F002FA10B10220BDE825
:10273000FE8F00BF94F83C00012801D10220F6E78B
:10274000012084F83C0000BF2068006800F0010010
:1027500028B92068006840F00100216808602068FE
:10276000006820F4006021680860222084F83D00A1
:10277000402084F83E0000202064C4F824A0A4F87F
:102780002AB0608D2085B248E0624B464246394609
:102790002046CDE9006502F077F808B10120C6E7D0
:1027A000208D88B900BF0020019020684069019009
:1027B00020688069019000BF00BF2068006840F475
:1027C0000070216808604BE0208D01281AD1206834
:1027D000006820F480602168086072B600BF0020A5
:1027E000019020684069019020688069019000BFD5
:1027F00000BF2068006840F400702168086062B67D
:102800002EE020E1208D022819D12068006840F4D4
:1028100000602168086072B600BF00200190206847
:102820004069019020688069019000BF00BF206866
:10283000006820F480602168086062B610E02068BB
:10284000006840F480602168086000BF00200190AB
:1028500020684069019020688069019000BF00BF36
:10286000E2E0208D03287DD8208D012815D12A464D
:102870003146204602F037FA08B1012057E72068B8
:102880000069616A0870606A401C6062208D401EA9
:102890002085608D401E6085C6E0208D02282CD1E9
:1028A000334600226B492046009502F040F908B1FA
:1028B00001203CE772B62068006840F4007021688F
:1028C000086020680069616A0870606A401C606284
:1028D000208D401E2085608D401E608562B6206878
:1028E0000069616A0870606A401C6062208D401E49
:1028F0002085608D401E608596E033460022554954
:102900002046009502F013F908B101200FE7206876
:10291000006820F480602168086072B62068006951
:10292000616A0870606A401C6062208D401E2085CC
:10293000608D401E6085484800681921B0FBF1F0A9
:102940004FF47A71B0FBF1F0C0EBC00000EB8000F7
:10295000029000BF0298401E02900298A8B9002081
:10296000206300E039E0202084F83D00002084F856
:102970003E00206C40F02000206462B600BF0020C2
:1029800084F83C0000BF0120D1E620684069C0F314
:1029900080000028DED02068006840F400702168C4
:1029A000086020680069616A0870606A401C6062A3
:1029B000208D401E2085608D401E608562B6206897
:1029C0000069616A0870606A401C6062208D401E68
:1029D0002085608D401E608526E02A4631462046CF
:1029E00002F081F908B10120A1E620680069616A5E
:1029F0000870606A401C6062208D401E2085608DDA
:102A0000401E608520684069C0F3800060B1206886
:102A10000069616A0870606A401C6062208D401E17
:102A20002085608D401E6085208D00287FF419AFC1
:102A3000202084F83D00002084F83E0000BF84F888
:102A40003C0000BF73E6022071E6000002001000A7
:102A50000000FFFF040001000C0000202DE9FC5FD6
:102A600004460F4690469946DDE90CAB0E9EFFF7F3
:102A700043FD054694F83D0020287DD1192301220D
:102A80004D492046009502F052F810B10220BDE8F1
:102A9000FC9F00BF94F83C00012801D10220F6E71A
:102AA000012084F83C0000BF2068006800F00100AD
:102AB00028B92068006840F001002168086020689B
:102AC000006820F4006021680860212084F83D003F
:102AD000402084F83E0000202064C4F824A0A4F81C
:102AE0002AB0608D20853548E0624B464246394623
:102AF0002046CDE9006501F077FF08B10120C6E767
:102B000031E02A463146204602F032F950B1206CBD
:102B1000042805D12068006840F40070216808602E
:102B20000120B4E7606A007821680861606A401C8F
:102B30006062208D401E2085608D401E608520686B
:102B40004069C0F3800070B1208D60B1606A007888
:102B500021680861606A401C6062208D401E2085EB
:102B6000608D401E6085208D0028CAD12A463146DE
:102B7000204601F0A9FF00E01CE050B1206C0428C1
:102B800005D12068006840F40070216808600120C9
:102B90007DE72068006840F400702168086020200C
:102BA00084F83D00002084F83E0000BF84F83C001B
:102BB00000BF6CE702206AE7020010000000FFFF80
:102BC00010B586B004460020029003900490059052
:102BD00015492068884225D100BF1448806940F01B
:102BE0000800124988610846806900F008000190D9
:102BF00000BF00BFC0200290122003900320059068
:102C000002A90B48FFF7DAFA00BF0848C06940F490
:102C100000100649C8610846C06900F40010019020
:102C200000BF00BF06B010BD0054004000100240BD
:102C3000000C014003480068034909780844014931
:102C400008607047000000200800002010B5084808
:102C5000006840F0100006490860032000F0A8F862
:102C60000F2000F007F800F02BF8002010BD000046
:102C70000020024070B504460E4800784FF47A7187
:102C8000B1FBF0F00C490968B1FBF0F5284600F003
:102C900058FF08B1012070BD102C07D20022214638
:102CA000501E00F047F80548046001E00120F2E7FB
:102CB0000020F0E7080000200C00002004000020A5
:102CC00008B500BF1148806940F001000F498861D4
:102CD0000846806900F00100009000BF00BF00BFFF
:102CE0000846C06940F08050C8610846C06900F0DD
:102CF0008050009000BF00BF00BF0549486820F029
:102D0000E06040F00070486000BF08BD0010024065
:102D10000000014001460846002809DB00F01F03BF
:102D200001229A4043099B0003F1E023C3F80021EC
:102D300000BF70472DE9F05F80460D46164600271C
:102D400003F0F4FF074639462A46334601F00700F0
:102D5000C0F1070ABAF1040F02D94FF0040A01E0EA
:102D6000C0F1070AD14600F1040ABAF1070F02D2F6
:102D70004FF0000A01E0A0F1030AD4464FF0010A27
:102D80000AFA09FAAAF1010A0AEA020A0AFA0CFA8C
:102D90004FF0010B0BFA0CFBABF1010B0BEA030B31
:102DA0004AEA0B042146404603F0C8FFBDE8F09F05
:102DB00000BF00F00702064B19684FF6FF031940E9
:102DC000044B0B4343EA0221014B196000BF7047DB
:102DD0000CED00E00000FA0570B504460D460CB994
:102DE000012070BD5A48006800F00700A8420ED2CA
:102DF0005748006820F007002843554908600846F6
:102E0000006800F00700A84201D00120E9E720781F
:102E100000F0020002281DD1207800F004000428F0
:102E200005D14C48406840F4E0604A494860207849
:102E300000F00800082805D14648406840F460507A
:102E4000444948604348406820F0F000A1680843C6
:102E500040494860207800F0010078B3606801289C
:102E600006D13C48006800F4003090B90120B8E772
:102E70006068022806D13748006800F0007040B949
:102E80000120AEE73348006800F0020008B90120D5
:102E9000A7E73048406820F00300616808432D49E7
:102EA0004860FFF729FB064609E0FFF725FB801B7A
:102EB00041F28831884202D9032092E707E0254891
:102EC000406800F00C006168B0EB810FEDD1204844
:102ED000006800F00700A8420ED91D48006820F0E5
:102EE000070028431A4908600846006800F00700F8
:102EF000A84201D0012074E7207800F004000428E3
:102F000007D11448406820F4E060E16808431149A3
:102F10004860207800F00800082808D10D48406873
:102F200020F46050216940EAC1000A49486000F07D
:102F30003FF808494968C1F30311074A515CC8408A
:102F40000649086006480068FFF794FE002048E73D
:102F50000020024000100240E0AA00080C000020FF
:102F60000400002001480068704700000C000020A9
:102F700000B5FFF7F7FF04494968C1F30221034A8E
:102F8000515CC84000BD000000100240F0AA0008DB
:102F900000B5FFF7E7FF04494968C1F3C221034ABE
:102FA000515CC84000BD000000100240F0AA0008BB
:102FB00070B500210022002400230020134D696811
:102FC00001F00C05F5B1042D02D0082D19D101E056
:102FD0000F4819E00F4DC1F38346AB5D01F4803516
:102FE00055B10A4D6D68C5F340450B4E725D084DF5
:102FF0005D43B5FBF2F402E0084D03FB05F4204607
:1030000002E000BF024800BF00BF70BD00100240D8
:1030100000127A00CEAA0008DEAA000800093D00CE
:10302000F8B504460CB90120F8BD207800F0010085
:10303000002878D0F848406800F00C0004280CD034
:10304000F548406800F00C00082811D1F2484068AB
:1030500000F48030B0F5803F0AD1EF48006800F4FA
:10306000003000285FD0606800285CD10120DBE7D9
:1030700000BF6068B0F5803F06D1E748006840F4C3
:103080008030E549086028E0606858B9E248006887
:1030900020F48030E04908600846006820F4802071
:1030A00008601AE06068B0F5A02F0BD1DA4800681C
:1030B00040F48020D84908600846006840F4803019
:1030C00008600AE0D448006820F48030D2490860E3
:1030D0000846006820F48020086000BF606888B15E
:1030E000FFF70AFA054606E0FFF706FA401B6428D8
:1030F00001D9032098E7C848006800F40030002890
:10310000F2D010E0FFF7F8F9054606E0FFF7F4F912
:10311000401B642801D9032086E7BF48006800F4FB
:1031200000300028F2D1207800F00200022857D1A8
:10313000B948406800F00C0050B1B748406800F052
:103140000C00082818D1B448406800F4803098B9C1
:10315000B148006800F0020020B12069012801D0C8
:10316000012061E7AC48006820F0F800616940EA9E
:10317000C100A949086033E02069E8B10120A749EE
:103180000860FFF7B9F9054606E0FFF7B5F9401BFF
:10319000022801D9032047E79F48006800F0020099
:1031A0000028F2D09C48006820F0F800616940EAED
:1031B000C1009949086013E0002098490860FFF7B2
:1031C0009BF9054606E0FFF797F9401B022801D955
:1031D000032029E79048006800F002000028F2D19F
:1031E000207800F0080008282DD1A069B8B101208E
:1031F0008B490860FFF780F9054606E0FFF77CF988
:10320000401B022801D903200EE78348406A00F0E2
:1032100002000028F2D0012003F00AF913E0002098
:103220007F490860FFF768F9054606E0FFF764F993
:10323000401B022801D90320F6E67748406A00F0D7
:1032400002000028F2D1207800F00400042873D195
:1032500000277148C06900F0805070B900BF6E4807
:10326000C06940F080506C49C8610846C06900F0F0
:103270008050009000BF00BF01276A48006800F43A
:103280008070B0B96748006840F480706549086094
:10329000FFF732F9054606E0FFF72EF9401B6428D8
:1032A00001D90320C0E65F48006800F48070002860
:1032B000F2D000BFE068012806D15748006A40F00C
:1032C00001005549086227E0E06858B95248006A91
:1032D00020F00100504908620846006A20F004000E
:1032E000086219E0E06805280BD14B48006A40F0FD
:1032F0000400494908620846006A40F0010008627B
:103300000AE04548006A20F0010043490862084687
:10331000006A20F00400086200BFE068A0B1FFF777
:10332000EBF8054609E0FFF7E7F8401B41F288316A
:10333000884202D9032077E622E03748006A00F08D
:1033400002000028EFD012E0FFF7D6F8054608E0AB
:10335000FFF7D2F8401B41F28831884201D903209F
:1033600062E62D48006A00F002000028F0D1012F2B
:1033700005D12948C06920F080502749C86100BFA5
:10338000E069C8B32448406800F00C00082860D009
:10339000E069022848D1002020490866FFF7ACF810
:1033A000054606E0FFF7A8F8401B022801D90320D4
:1033B0003AE61948006800F000700028F2D1206A4F
:1033C000B0F5803F07D11448406820F40030A16870
:1033D000084311494860D4E9080108430E49496887
:1033E00021F4741108430C49486001200B49086618
:1033F000FFF782F8054607E03DE0FFF77DF8401B48
:10340000022801D903200FE60348006800F000708D
:103410000028F2D02FE000000010024000004242DD
:103420008004424200700040002014490866FFF703
:1034300063F8054606E0FFF75FF8401B022801D954
:103440000320F1E50E48006800F000700028F2D17A
:1034500011E0E069012800D1E6E50948466806F474
:103460008031206A814204D106F47011606A814281
:1034700001D00120D8E50020D6E50000000042423E
:103480000010024010B504460CB9012010BD606A5E
:1034900038B96068B0F5827F00D105E00021E161B4
:1034A00002E00021216161610021A16294F85100D4
:1034B00028B9002084F85000204600F043F802208C
:1034C00084F851002068006820F0400021680860FE
:1034D000A08800F48270218901F404410843A18985
:1034E00001F400610843217C01F002010843217DC1
:1034F00001F001010843218B01F400710843217F91
:1035000001F0380108432021095D01F080010843E2
:10351000218D01F400510843216808600421A0694D
:1035200001EA1040216848602068C06920F400600A
:103530002168C86100206065012084F851000020E6
:10354000A4E7000010B586B0044600200290039066
:10355000049005901949206888422DD100BF184871
:10356000806940F48050164988610846806900F4FB
:103570008050019000BF00BF00BF0846806940F046
:10358000040088610846806900F00400019000BFD3
:1035900000BFA0200290022003900320059002A902
:1035A0000848FEF70BFE4020029000200390049094
:1035B00002A90448FEF702FE06B010BD003001402B
:1035C00000100240000801402DE9F84304468846F7
:1035D00016461D464FF0000994F85100012802D00C
:1035E0004FF00209A8E06068B0F5827F0DD1A068B5
:1035F00058B9042084F851003346424641462046DB
:10360000009500F07EF9BDE8F88300BF94F8500003
:10361000012801D10220F6E7012084F8500000BF04
:10362000FEF76AFF0746B8F1000F00D016B94FF059
:10363000010981E0042084F8510000206065C4F88D
:103640003880A687E6872063A086E08620646064D1
:10365000A068B0F5004F0BD12068006820F0400052
:10366000216808602068006820F4804021680860B4
:103670002068006800F04000402805D020680068FD
:1036800040F0400021680860E06810BB1DE0206841
:10369000806800F0010050B12068007BA16B0870C9
:1036A000A06B401CA063E08F401EE0870DE0FEF79A
:1036B00023FFC01BA84201D3681C00B92DB94FF0ED
:1036C0000309012084F8510036E0E08F0028DED1A4
:1036D00021E01DE02068806800F0010050B1206802
:1036E000C068A16B0880A06B801CA063E08F401EA7
:1036F000E0870DE0FEF700FFC01BA84201D3681C65
:1037000000B92DB94FF00309012084F8510013E0EE
:10371000E08F0028DED13A462946204602F09CFE82
:1037200008B120206065606D10B14FF0010902E022
:10373000012084F8510000BF00BF002084F8500031
:1037400000BF48465FE72DE9F84F04468846164615
:103750001D464FF0000A00BF94F85000012802D126
:103760000220BDE8F88F012084F8500000BFFEF76A
:10377000C3FE0746B14694F85100012802D04FF02D
:10378000020AB7E0B8F1000F00D016B94FF0010AF5
:10379000B0E0032084F8510000206065C4F8308058
:1037A000A686E686A063A087E08760642064A068A0
:1037B000B0F5004F0BD12068006820F04000216870
:1037C00008602068006840F4804021680860206834
:1037D000006800F04000402805D02068006840F0F4
:1037E000400021680860E068B0F5006F32D1606881
:1037F00010B1B9F1010F09D1206B00882168C860B0
:10380000206B801C2063E08E401EE0861EE0206856
:10381000806800F0020002280AD1206B008821682D
:10382000C860206B801C2063E08E401EE0860DE0A7
:10383000FEF762FEC01BA84201D3681C00B92DB977
:103840004FF0030A012084F8510053E0E08E002875
:10385000DDD131E0606810B1B9F1010F09D1206B01
:10386000007821680873206B401C2063E08E401EA6
:10387000E0861EE02068806800F0020002280AD17D
:10388000206B007821680873206B401C2063E08E59
:10389000401EE0860DE0FEF72FFEC01BA84201D3BC
:1038A000681C00B92DB94FF0030A012084F85100BB
:1038B00020E0E08E0028DDD13A462946204602F07D
:1038C00007FE08B120206065A06850B900BF002045
:1038D00000902068C068009020688068009000BF59
:1038E00000BF606D10B14FF0010A02E0012084F8C2
:1038F000510000BF00BF002084F8500000BF5046B8
:103900002FE72DE9FF5F0446884691461D460E9E2F
:10391000012002900020019000BF94F8500001287F
:1039200003D1022004B0BDE8F09F012084F85000CC
:1039300000BFFEF7E1FD074694F851B060680390C0
:10394000AA46BBF1010F0BD00398B0F5827F04D1DA
:10395000A06810B9BBF1040F02D002200190E9E089
:10396000B8F1000F03D0B9F1000F00D015B9012054
:103970000190DFE094F85100042802D0052084F87B
:10398000510000206065C4F83890E587A587C4F829
:103990003080E586A586206460642068006800F0B9
:1039A0004000402805D02068006840F040002168B1
:1039B0000860E068B0F5006F4DD1606810B1BAF1F1
:1039C000010F09D1206B00882168C860206B801C22
:1039D0002063E08E401EE08636E02068806800F0BC
:1039E0000200022810D1E08E70B1029801280BD19C
:1039F000206B00882168C860206B801C2063E08EEB
:103A0000401EE086002002902068806800F00100DF
:103A100068B1E08F58B12068C068A16B0880A06BC6
:103A2000801CA063E08F401EE08701200290FEF71B
:103A300063FDC01BB04207D3701C28B10320019066
:103A4000012084F8510075E0E08E0028C5D1E08F98
:103A50000028C2D14DE0606810B1BAF1010F09D160
:103A6000206B007821680873206B401C2063E08E77
:103A7000401EE08637E02068806800F002000228DF
:103A800010D1E08E70B1029801280BD1206B007824
:103A900021680873206B401C2063E08E401EE08686
:103AA000002002902068806800F0010068B1E08F7B
:103AB00058B12068C068A16B0870A06B401CA0635F
:103AC000E08F401EE08701200290FEF715FDC01B2D
:103AD000B04201D3701C00B92EB90320019001201F
:103AE00084F8510026E0E08E0028C4D1E08F002841
:103AF000C1D13A463146204602F0EAFC20B101200D
:103B000001902020606515E0A06850B900BF00203A
:103B100000902068C068009020688068009000BF16
:103B200000BF606D10B10120019002E0012084F817
:103B3000510000BF00BF002084F8500000BF019872
:103B4000F0E670B504462546681EB0F1807F01D3CB
:103B500001200FE0681E4FF0E02148610F214FF077
:103B6000FF3003F0EBF800204FF0E02188610720E0
:103B70000861002070BD000030B502460B4600BF52
:103B800092F83C00012801D1022030BD012082F8CA
:103B90003C0000BF022082F83D00106844681068B5
:103BA000816824F070041868044310684460104D64
:103BB0001068A8420BD01068B0F1804F07D00D4DAF
:103BC0001068A84203D00C4D1068A84205D121F01E
:103BD00080015868014310688160012082F83D002F
:103BE00000BF002082F83C0000BF00BFCDE700000E
:103BF000002C0140000400400008004010B50446BD
:103C00000CB9012010BD94F83D0028B9002084F8BB
:103C10003C00204600F026F8022084F83D00211DDB
:103C2000206802F00FFD012084F8460000BF84F8F0
:103C30003E0001213F200155402001554120015502
:103C400000BF00BF012084F84200432001554420FA
:103C500001554520015500BF012084F83D0000209A
:103C6000D0E7000008B5094A016891420DD100BFB4
:103C70000749C96941F00201054AD1611146C96984
:103C800001F00201009100BF00BF08BD0004004028
:103C9000001002402DE9F04104460D46002700BF08
:103CA00094F83C00012802D10220BDE8F0810120F7
:103CB00084F83C0000BF022084F83D00206886683C
:103CC00026F0770626F47F4620688660286850280C
:103CD00033D00CDC202850D004DC00284BD0102836
:103CE00051D149E0302849D040284CD139E06028F2
:103CF0002DD0702807D0B0F5805F03D0B0F5005FFD
:103D000041D10DE041E0D5E902136A68206802F074
:103D1000E4FC2068866846F077062068866034E018
:103D2000D5E902136A68206802F0D7FC2068806831
:103D300040F480402168886027E0EA68696820686C
:103D400002F09CFD5021206802F0D2FC1DE0EA68E0
:103D50006968206802F0A5FD6021206802F0C8FCB7
:103D600013E0EA686968206802F088FD4021206855
:103D700002F0BEFC09E000BF00BF00BF2968206858
:103D800002F0B6FC01E0012700BF00BF012084F86B
:103D90003D0000BF002084F83C0000BF384684E7A7
:103DA00010B586B004460020029003900490059060
:103DB00013492068884221D100BF1248806940F031
:103DC0000800104988610846806900F008000190E9
:103DD00000BF00BF1020029002200390059002A9AE
:103DE0000948FEF7EBF900BF0849486820F4406035
:103DF00040F0E06040F40060486000BF06B010BDD5
:103E00000004004000100240000C0140000001408E
:103E10002DE9F04104460D461646002700BF94F8F0
:103E20003C00012802D10220BDE8F081012084F885
:103E30003C0000BF36B1042E1BD0082E31D00C2E12
:103E40005ED145E02946206802F05CFC206880696C
:103E500040F00800216888612068806920F0040033
:103E60002168886120688069296908432168886120
:103E700048E02946206802F075FC2068806940F41B
:103E80000060216888612068806920F48060216872
:103E9000886120688069296940EA01202168886179
:103EA00030E02946206802F091FC2068C06940F0AB
:103EB00008002168C8612068C06920F004002168FA
:103EC000C8612068C069296908432168C86119E090
:103ED0002946206802F0AEFC2068C06940F400600A
:103EE0002168C8612068C06920F480602168C861C9
:103EF0002068C069296940EA01202168C86101E0A1
:103F0000012700BF00BF00BF002084F83C0000BFB5
:103F1000384689E710B504460CB9012010BD94F865
:103F20003D0028B9002084F83C00204600F025F828
:103F3000022084F83D00211D206802F083FB01204F
:103F400084F8460000BF84F83E0001213F2001555F
:103F5000402001554120015500BF00BF012084F8D9
:103F6000420043200155442001554520015500BF22
:103F7000012084F83D000020D0E7704770B504466A
:103F80000D4615B994F83E000BE0042D02D13F20F8
:103F9000005D06E0082D02D14020005D01E04120D7
:103FA000005D012801D0012070BD1DB9022084F8F8
:103FB0003E000EE0042D03D102213F20015508E010
:103FC000082D03D102214020015502E002214120A9
:103FD000015501222946206802F06EFB194920682C
:103FE000884201D1012000E0002028B12068406C07
:103FF00040F40040216848641249206888420BD090
:104000002068B0F1804F07D00F492068884203D064
:104010000E49206888420CD12068806800F00706AD
:10402000062E0CD02068006840F00100216808606E
:1040300005E02068006840F0010021680860002069
:10404000B2E70000002C01400004004000080040DE
:104050002DE9F84F04460F4690461D46DDF828A08E
:1040600094F84200202878D117B1B8F1000F02D19E
:104070000120BDE8F88F00206064222084F842000F
:104080000120206300206063FEF736FA8346A4F81F
:104090002C80A4F82E80A068B0F5805F04D1206940
:1040A00010B90026B94602E03E464FF00009002054
:1040B000288053E02068006800F01000102813D119
:1040C00000BF0020009020680068009020684068D1
:1040D000009000BF00BF288830B10220606320201C
:1040E00084F842000020C4E72068006800F0200047
:1040F000202821D146B920684068C0F30800A9F8FB
:10410000000009F1020911E0A068B0F5805F03D05A
:10411000A06828B9206918B920684068307004E0A8
:104120002068406800F07F003070761C2888401CB2
:104130002880E08D401EE0850AF1010070B1FEF795
:10414000DBF9A0EB0B00504502D8BAF1000F05D106
:10415000202084F8420003208BE70BE0E08D00284C
:10416000A8D1A08DE18D401A2880202084F842003B
:1041700000207EE702207CE7F8B504460E4617468D
:1041800094F8420020282ED106B10FB90120F8BDC5
:1041900001202063002060633A463146204602F049
:1041A000E1FC0546EDB9206B012819D100BF0020C4
:1041B000009020680068009020684068009000BF70
:1041C00000BF00BF00BF21680C3151E8001F41F063
:1041D000100021680C3141E80002002AF3D100E010
:1041E00001252846D3E70220D1E70000034B0268EF
:1041F0009A4201D1024A11807047000000440040F9
:1042000028000020704700002DE9F84F0446206880
:1042100005682068C668206847694FF00009CA46EB
:1042200005F00F09B9F1000F0AD105F0200038B1EF
:1042300006F0200020B1204602F097FBBDE8F88F81
:10424000B9F1000F7BD007F0010018B906F49070A7
:10425000002874D005F0010030B106F4807018B168
:10426000606C40F00100606405F0040030B107F0BC
:10427000010018B1606C40F00200606405F00200BB
:1042800030B107F0010018B1606C40F004006064C8
:1042900005F0080048B106F0200010B907F0010051
:1042A00018B1606C40F008006064606C002845D074
:1042B00005F0200028B106F0200010B1204602F0E1
:1042C00054FB20684069C0F3801A606C00F008005D
:1042D00010B9BAF1000F2CD0204602F000FB206884
:1042E000406900F0400000B300BF00BF21681431F6
:1042F00051E8001F21F040002168143141E800021C
:10430000002AF3D100BFE06B50B17748E16B4863FE
:10431000E06BFDF7E7FE88B1E06B416B88470DE08D
:104320002046FFF76FFF09E009E02046FFF76AFF2C
:1043300004E02046FFF766FF002060647EE7206B04
:10434000012877D105F01000002873D006F0100086
:104350000028FAD000BF002000902068006800907C
:1043600020684068009000BF00BF2068406900F0EE
:10437000400000285FD0E06B006840681FFA80F8BA
:10438000B8F1000F55D0A08D404552DDA4F82E8025
:10439000E06B8069202843D000BF00BF21680C314A
:1043A00051E8001F21F4807021680C3141E80002BF
:1043B000002AF3D100BF00BF00BF2168143151E8CB
:1043C000001F21F001002168143141E80002002A99
:1043D000F3D100BF00BF00BF2168143151E8001FB6
:1043E00021F040002168143141E80002002AF3D195
:1043F00000BF202084F842000020206300BF00BFDF
:1044000021680C3151E8001F21F0100021680C31A7
:1044100041E80002002AF3D100BFE06BFDF736FE51
:1044200002206063A08DE28D801A81B22046FFF7E2
:10443000DDFE03E742E0A08DE18D401A1FFA80F80F
:10444000E08DD0B3B8F1000F37D000BF00BF2168B6
:104450000C3151E8001F21F4907021680C3141E8C3
:104460000002002AF3D100BF00BF00BF2168143151
:1044700051E8001F21F001002168143141E80002D9
:10448000002AF3D100BF202084F8420000202063DE
:1044900000BF00BF21680C3151E8001F21F010005F
:1044A00021680C3141E80002002AF3D100BF02204C
:1044B000606341462046FFF799FEBFE605F08000A5
:1044C00030B106F0800018B1204602F06BFBB5E673
:1044D00005F0400030B106F0400018B1204602F06F
:1044E00034FAABE600BFA9E6CB68000810B5044675
:1044F0000CB9012010BDA06900B100E000BF94F824
:10450000410028B9002084F84000204600F02AF835
:10451000242084F841002068C06820F400502168FD
:10452000C860204602F0A0FA2068006920F490409C
:10453000216808612068406920F02A0021684861EC
:104540002068C06840F400502168C86000206064A2
:10455000202084F8410084F842000020606300BFFE
:10456000C8E7000010B586B0044600200290039012
:10457000049005905149206888422FD100BF5048CF
:10458000806940F480404E4988610846806900F4A3
:104590008040019000BF00BF00BF0846806940F026
:1045A000040088610846806900F00400019000BFA3
:1045B00000BF48150290022003900320059002A935
:1045C0004048FDF7FBFD4FF480600290002003900F
:1045D000049002A93B48FDF7F1FD6DE03A492068DF
:1045E000884236D100BF3648C06940F400303449B3
:1045F000C8610846C06900F40030019000BF00BFE8
:1046000000BF0846806940F0040088610846806960
:1046100000F00400019000BF00BF042002900220BF
:1046200003900320059002A92648FDF7C7FD082046
:10463000029000200390049002A92248FDF7BEFDDD
:10464000002201212620FEF775FB2620FEF762FBE3
:1046500032E01E49206888422ED100BF1848C06948
:1046600040F480201649C8610846C06900F48020E3
:10467000019000BF00BF00BF0846806940F00800FD
:1046800088610846806900F00800019000BF00BF03
:1046900008150290022003900320059002A90C48FF
:1046A000FDF78CFD4FF40060029000200390049011
:1046B00002A90748FDF782FD06B010BD0038014091
:1046C0000010024000080140004400400048004043
:1046D000000C01402DE9F84F04460E461746994656
:1046E0004FF0000A94F8420020284FD106B117B9C4
:1046F0000120BDE8F88F00206064222084F8420089
:1047000000202063FDF7F8FE8246A785E785A068B4
:10471000B0F5805F04D1206910B90025B04602E0F1
:1047200035464FF0000829E053460022202120465C
:10473000CDF8009002F066FA08B10320D9E745B938
:1047400020684068C0F30800A8F8000008F10208DB
:1047500011E0A068B0F5805F03D0A06828B9206997
:1047600018B920684068287004E02068406800F0AC
:104770007F0028706D1CE08D401EE085E08D0028D4
:10478000D2D1202084F842000020B2E70220B0E716
:1047900070472DE9F84F04460E46174699464FF0EC
:1047A000000A94F8410020284AD106B117B9012027
:1047B000BDE8F88F00206064212084F84100FDF7F7
:1047C0009BFE8246A784E784A068B0F5805F04D191
:1047D000206910B90025B04602E035464FF00008C8
:1047E0001BE05346002280212046CDF8009002F0C5
:1047F00009FA08B10320DBE745B9B8F80000C0F3B7
:1048000008002168486008F1020803E02878216860
:1048100048606D1CE08C401EE084E08C0028E0D1F4
:104820005346002240212046CDF8009002F0EAF9DC
:1048300008B10320BCE7202084F841000020B7E73E
:104840000220B5E7704700BFFEE7014608684069EF
:10485000C0F38020B0B16FF480600A68506100201E
:104860000863202081F83D00002081F83E00086C9C
:1048700040F00400086400BF002081F83C0000BF45
:10488000012070470020FCE72DE9F84304460F465D
:1048900015469946DDE908862068006840F4806086
:1048A000216808602068006840F480702168086012
:1048B000434600224FF001112046009600F037F9E0
:1048C00060B12068006800F48070B0F5807F02D18C
:1048D0004FF4007020640320BDE8F88307F0FE0069
:1048E00021680861334642463E49204600F07EF981
:1048F00008B10120F0E700BF002000902068406967
:10490000009020688069009000BF00BF3246414699
:10491000204600F02DFA50B1206C042805D1206803
:10492000006840F40070216808600120D4E7B9F104
:10493000010F03D1E8B22168086117E0C5F3072031
:104940002168086132464146204600F011FA50B114
:10495000206C042805D12068006840F400702168AC
:1049600008600120B8E7E8B2216808613246414694
:10497000204600F0FDF950B1206C042805D12068D4
:10498000006840F40070216808600120A4E72068F6
:10499000006840F4807021680860434600224FF0B0
:1049A00001112046009600F0C2F858B12068006856
:1049B00000F48070B0F5807F02D14FF40070206465
:1049C000032089E7F8B240F001002168086133460E
:1049D00042460449204600F009F908B101207BE76E
:1049E000002079E7020001002DE9F84304468846DB
:1049F00015469946DDE908672068006840F4807034
:104A000021680860334600224FF0011120460097CC
:104A100000F08DF860B12068006800F48070B0F597
:104A2000807F02D14FF4007020640320BDE8F8833A
:104A300008F0FE00216808613B46324621492046C5
:104A400000F0D4F808B10120F0E700BF002000908A
:104A500020684069009020688069009000BF00BF16
:104A60003A463146204600F083F950B1206C0428C4
:104A700005D12068006840F40070216808600120BA
:104A8000D4E7B9F1010F03D1E8B22168086117E05A
:104A9000C5F30720216808613A463146204600F0F8
:104AA00067F950B1206C042805D12068006840F4F3
:104AB0000070216808600120B8E7E8B22168086149
:104AC0000020B3E70200010070B504460D4616460B
:104AD00025E02046FFF7B9FE08B1012070BD681C33
:104AE000E8B1FDF709FD801BA84200D8BDB92068D8
:104AF0004069C0F3800090B900202063202084F832
:104B00003D00002084F83E00206C40F0200020642E
:104B100000BF002084F83C0000BF0120DEE72068D1
:104B20004069C0F380000028D3D00020D6E72DE9EB
:104B3000F04104460D4617461E46DDF8188038E061
:104B4000701CA8B3FDF7D8FCA0EB0800B04200D859
:104B500076BBC5F3074001280AD120684069A9B295
:104B60000840A9B2884201D101200BE0002009E0F1
:104B700020688069A9B20840A9B2884201D1012009
:104B800000E00020B84214D100202063202084F8E7
:104B90003D00002084F83E00206C40F0200020649E
:104BA00000BF002084F83C0000BF0120BDE8F08178
:104BB000FFE7C5F3074001280AD120684069A9B280
:104BC0000840A9B2884201D101200BE0002009E091
:104BD00020688069A9B20840A9B2884201D10120A9
:104BE00000E00020B842ABD00020DFE72DE9F04123
:104BF00004460D4616461F4658E020684069C0F33B
:104C00008020E8B12068006840F4007021680860E6
:104C10006FF480602168486100202063202084F8C0
:104C20003D00002084F83E00206C40F00400206429
:104C300000BF002084F83C0000BF0120BDE8F081E7
:104C4000701C90B3FDF758FCC01BB04200D866BB87
:104C5000C5F3074001280AD120684069A9B208407D
:104C6000A9B2884201D101200BE0002009E02068B0
:104C70008069A9B20840A9B2884201D1012000E0B0
:104C8000002090B900202063202084F83D000020FF
:104C900084F83E00206C40F02000206400BF00201B
:104CA00084F83C0000BF0120C8E7FFE7C5F30740D8
:104CB00001280AD120684069A9B20840A9B28842F7
:104CC00001D101200BE0002009E020688069A9B231
:104CD0000840A9B2884201D1012000E0002000284C
:104CE0008BD00020AAE770B504460D46164637E083
:104CF00020684069C0F30010A0B16FF01000216877
:104D0000486100202063202084F83D00002084F8C2
:104D10003E00206C206400BF002084F83C0000BFEF
:104D2000012070BDFDF7E8FB801BA84200D8BDB98B
:104D300020684069C0F3801090B9002020632020D3
:104D400084F83D00002084F83E00206C40F02000F4
:104D5000206400BF002084F83C0000BF0120E0E791
:104D600020684069C0F380100028C1D00020D8E737
:104D700070B504460D46164625E02046FFF765FD52
:104D800008B1012070BD681CE8B1FDF7B5FB801BC0
:104D9000A84200D8BDB920684069C0F3C01090B9DE
:104DA00000202063202084F83D00002084F83E008D
:104DB000206C40F02000206400BF002084F83C00FC
:104DC00000BF0120DEE720684069C0F3C010002862
:104DD000D3D00020D6E7000010B54FF40071094889
:104DE000FBF7CDF90020084908804FF4007205490F
:104DF0000648FFF7C1F94FF4007202490348FFF774
:104E0000BBF910BD4C0200202800002090010020BA
:104E10002DE9F0412A48008800284EDD294F49E05D
:104E200029A13846FBF7B6F9044628A13846FBF716
:104E3000B1F9054604B105B93DE0281B401C2449E1
:104E4000088008460088802801DD802008808021B5
:104E50002048FBF794F91E48028821461D48FBF7BD
:104E6000ABF91C48FCF780FFE0B11A48FCF7A6FF3D
:104E70000646062E13D2DFE806F003070B0F1011CB
:104E80001448FCF7FFFF0BE01248FDF7E1F807E0DC
:104E90001048FCF7C9FF03E002E001E000E000BFBA
:104EA00000BF05E040F215120BA111A001F0FEFEBB
:104EB0006F1C00BFB4E700BF00BFBDE8F081000079
:104EC00028000020C0AC0008240000000A000000F8
:104ED0002A0000204C040020696E746572666163CC
:104EE000655C496E745F415436353538522E630027
:104EF0005B25733A25645D475053CAFDBEDDD0A3E0
:104F0000D1E9CAA7B0DC0D0A0000000010B50021ED
:104F10000148FFF733F810BD0001002070B50546C9
:104F20000C46284600F082F82046FDF733F90020B1
:104F300000F07CF82046FDF72DF970BD002839D12E
:104F40003949096841F40041374A116000BF00BF88
:104F500000BF00BF00BF00BF00BF00BF00BF00BF59
:104F600000BF00BF00BF00BF00BF2F49096821F488
:104F700000412D4A116000BF00BF00BF00BF00BF4D
:104F800000BF00BF00BF00BF00BF00BF00BF00BF29
:104F900000BF00BF00BF00BF00BF00BF00BF00BF19
:104FA00000BF00BF00BF00BF00BF00BF00BF00BF09
:104FB00000BF38E01C49096841F400411A4A1160F9
:104FC00000BF00BF00BF00BF00BF00BF00BF00BFE9
:104FD00000BF00BF00BF00BF00BF00BF00BF00BFD9
:104FE00000BF00BF00BF00BF00BF00BF00BF00BFC9
:104FF00000BF00BF00BF00BF00BF00BF0A49096873
:1050000021F40041084A116000BF00BF00BF00BF8B
:1050100000BF00BF00BF00BF00BF00BF00BF00BF98
:1050200000BF00BF00BF70470C08014070B50546C7
:1050300000240EE0C4F1170101208840284018B177
:105040000120FFF77BFF02E00020FFF777FF601CE5
:10505000C4B2182CEEDB70BD1FB54FF42E71B348EF
:10506000FBF78DF8B248B1498861B248C861B248CF
:105070000862B2480860B2484860B2488860B248E6
:10508000C860B2480861B2484861B2484862B24854
:105090008862B248C862084603F05AF904462CB147
:1050A000AFA003F061FB012004B010BD01219F48B7
:1050B00004F088FC04463CB1AFA003F055FB9B48CC
:1050C00002F0BCFF0120EFE70021984804F0BCFC8F
:1050D00004463CB1B0A003F047FB944802F0AEFF99
:1050E0000120E1E70121914804F04EFB04463CB168
:1050F000B3A003F039FB8D4802F0A0FF0120D3E7F5
:1051000003220221894804F0AFFA04463CB1B5A05D
:1051100003F02AFB854802F091FF0120C4E730210B
:10512000824804F007FC04463CB1B6A003F01CFB27
:105130007E4802F083FF0120B6E701217B4804F09E
:10514000DFFA04463CB1BAA003F00EFB774802F048
:1051500075FF0120A8E700221121744804F040FDEA
:1051600004463CB1BBA003F0FFFA704802F066FFB2
:10517000012099E7002001230422092100906B48B7
:1051800004F0EEF804463CB1BAA003F0EDFA67482B
:1051900002F054FF012087E703AAC149634802F0E7
:1051A000DBFF04463CB1BFA003F0DEFA5F4802F02B
:1051B00045FF012078E75D48039904F029FB044688
:1051C0003CB1C2A003F0D0FA584802F037FF0120EA
:1051D0006AE700221146554803F0CEFF04463CB171
:1051E000C3A003F0C1FA514802F028FF01205BE799
:1051F00000214E4804F066F904463CB1C7A003F014
:10520000B3FA4A4802F01AFF01204DE700231A467C
:105210001946464803F056FF04463CB1CAA003F0C5
:10522000A3FA424802F00AFF01203DE73F4802F09E
:10523000FDFD04463CB1CCA003F096FA3B4802F0D9
:10524000FDFE012030E743F24851384804F082F96E
:1052500004463CB1CEA003F087FA344802F0EEFEDB
:10526000012021E702A9314803F030F804463CB19F
:10527000D0A003F079FA2D4802F0E0FE012013E7F8
:105280009DF8080040F0040002909DF8081027489F
:1052900004F064FC04463CB1CFA003F065FA234857
:1052A00002F0CCFE0120FFE69421204804F000FB30
:1052B00004463CB1D1A003F057FA1C4802F0BEFEF0
:1052C0000120F1E63821194804F08CF904463CB17C
:1052D000D2A003F049FA154802F0B0FE0120E3E63F
:1052E00001A9124802F0B0FF04463CB1D2A003F07D
:1052F0003BFA0E4802F0A2FE0120D5E69DF804001C
:1053000040F01E0001909DF80410084804F0E4FBF2
:1053100004463CB1D2A003F027FA044802F08EFE06
:105320000120C1E600F0CCF90020BDE6E40C00202D
:1053300089890008858900088D8900085D89000831
:1053400059890008618900084D87000849870008CD
:105350005187000883870008698700089187000843
:105360006C6C636336383A20696E697420666169D3
:105370006C65642E0A0000006C6C636336383A205A
:10538000736574207374616E646279206661696C00
:1053900065642E0A000000006C6C636336383A20A6
:1053A00073746F702074696D6572206F6E207072F7
:1053B00065616D626C65206661696C65642E0A00CA
:1053C0006C6C636336383A20736574207265677558
:1053D0006C61746F72206D6F6465206661696C65C5
:1053E000642E0A006C6C636336383A20736574204F
:1053F000706120636F6E666967206661696C6564C1
:105400002E0A00006C6C636336383A207365742092
:1054100072782074782066616C6C6261636B206DB9
:105420006F6465206661696C65642E0A0000000087
:105430006C6C636336383A20736574207061636BFB
:1054400065742074797065206661696C65642E0AE4
:10545000000000006C6C636336383A20736574207A
:10546000747820706172616D73206661696C656427
:105470002E0A00006C6C636336383A207365742022
:105480006C6F7261206D6F64756C6174696F6E20F2
:10549000706172616D73206661696C65642E0A00CB
:1054A00000389C1C6C6C636336383A20636F6E76F0
:1054B00065727420746F20726567697374657220F9
:1054C0006661696C65642E0A000000006C6C6363A1
:1054D00036383A207365742072662066726571757D
:1054E000656E6379206661696C65642E0A00000050
:1054F0006C6C636336383A20736574206275666637
:1055000065722062617365206164647265737320E3
:105510006661696C65642E0A000000006C6C636350
:1055200036383A20736574206C6F72612073796D20
:1055300062206E756D2074696D656F75742066618B
:10554000696C65642E0A00006C6C636336383A201F
:105550007265736574207374617473206661696C1D
:1055600065642E0A000000006C6C636336383A20D4
:10557000636C65617220646576696365206572722B
:105580006F7273206661696C65642E0A000000000A
:105590006C6C636336383A20736574206C6F72618B
:1055A0002073796E6320776F7264206661696C6521
:1055B000642E0A006C6C636336383A206765742089
:1055C0007478206D6F64756C6174696F6E206661AC
:1055D000696C65642E0A00006C6C636336383A208F
:1055E000736574207478206D6F64756C6174696F75
:1055F0006E206661696C65642E0A00006C6C6363E2
:1056000036383A20736574207278206761696E209D
:105610006661696C65642E0A000000006C6C63634F
:1056200036383A20736574206F6370206661696C48
:1056300065642E0A000000006C6C636336383A2003
:1056400067657420747820636C616D7020636F6E81
:10565000666967206661696C65642E0A0000000057
:105660006C6C636336383A207365742074782063F9
:105670006C616D7020636F6E666967206661696C2E
:1056800065642E0A0000000030B585B004460D4662
:1056900000F062F8002001A931C10490012000232C
:1056A0000C2201460090054803F022FB10B10120B6
:1056B00005B030BD00F004F80020F9E7E40C00204C
:1056C0000EB5012211032248FCF710FF002204212D
:1056D0001F48FCF70BFF0020034640F2C232114680
:1056E00000901C4803F094FD08B101200EBD40F26B
:1056F000FF31184802F0E4FB08B10120F6E7002072
:105700000121FF230246CDE900100C21114803F0CE
:105710007DFE08B10120E9E702A90E4802F052FD22
:1057200008B10120E2E79DF8080040F00400029073
:105730009DF80810074803F0D1FD08B10120D5E716
:10574000044802F007FC08B10120CFE70020CDE7B4
:10575000000C0140E40C002008B5012204210F4890
:10576000FCF7C4FE00224FF480510C48FCF7BEFE4B
:105770000020034640F2813211460090084803F0B1
:1057800047FD08B1012008BD40F2FF31044802F096
:1057900097FB08B10120F6E70020F4E7000C014078
:1057A000E40C00202DE9F04F89B04FF0000A1CE016
:1057B00006A800F0DEF857490698FBF7A7FB11D2C0
:1057C00054490798FBF7A2FB0CD252490898FBF703
:1057D0009DFB07D20AF1010000F0FF0ABAF1320F77
:1057E00000DB03E00A20FCF7D5FCE1E700BF002462
:1057F000002500260027A046A146A34654E006A89F
:1058000000F0B7F82046FBF791FA01900699FBF7F4
:105810003DF80290FBF7B6FA04462846FBF786FAF5
:1058200001900799FBF732F80290FBF7ABFA0546B7
:105830003046FBF77BFA01900899FBF727F80290B6
:10584000FBF7A0FA064603A800F06AF83846FBF713
:105850006DFA01900399FBF719F80290FBF792FAA1
:1058600007464046FBF762FA01900499FBF70EF8F1
:105870000290FBF787FA80464FF08D410598FBF7C1
:1058800057F801904846FBF751FA00900199FAF752
:10589000FDFF0290FBF776FA81460A20FCF77AFCBE
:1058A0000BF1010000F0FF0BBBF1320FA7DB322040
:1058B00094FBF0FB5846FBF739FA17490860322091
:1058C00095FBF0FB5846FBF731FA1349486032204C
:1058D00096FBF0FB5846FBF729FA0F498860322007
:1058E00097FBF0FB5846FBF721FA0C490860322081
:1058F00098FBF0FB5846FBF719FA0849486032203C
:1059000099FBF0FB5846FBF711FA0449886009B08F
:10591000BDE8F08F00009643CC040020D80400209E
:105920001CB50446002000900190062269463B20E9
:1059300000F00CF99DF801109DF8002041EA0221C9
:1059400008B2FBF7F3F920609DF803109DF80220E0
:1059500041EA022108B2FBF7E9F960609DF8051001
:105960009DF8042041EA022108B2FBF7DFF9A060AC
:105970001CBD1CB50446002000900190062269461B
:10598000432000F0E3F89DF801109DF8002041EA63
:10599000022108B2FBF7CAF920609DF803109DF8B8
:1059A000022041EA022108B2FBF7C0F960609DF8CD
:1059B00005109DF8042041EA022108B2FBF7B6F970
:1059C000A0601CBD2DE9FC4704460020009001901A
:1059D00006226946432000F0B9F80025002600277A
:1059E0009DF801109DF8002041EA022108B2FBF762
:1059F0009DF981462B4801684846FAF799FF804691
:105A0000FBF7C0F905B29DF803109DF8022041EAAA
:105A1000022108B2FBF78AF98146224841684846CC
:105A2000FAF786FF8046FBF7ADF906B29DF8051040
:105A30009DF8042041EA022108B2FBF777F981467C
:105A4000184881684846FAF773FF8046FBF79AF9D1
:105A500007B22068FBF796F90FFA80F94946284605
:105A6000FCF756F98046FBF761F920606068FBF7A8
:105A700089F90FFA80F949463046FCF749F9804622
:105A8000FBF754F96060A068FBF77CF90FFA80F926
:105A900049463846FCF73CF98046FBF747F9A060D9
:105AA000BDE8FC87CC04002010B580216B2000F0FD
:105AB0005FF86420FCF76EFB6B2000F02FF80446C3
:105AC00003E06B2000F02AF80446402CF9D10121B4
:105AD0006B2000F04DF818211B2000F049F8002140
